ITP00109000001407031442495018815000014912457996000148                POLIMETRI INDUSTRIA METALCISER NEDSCHROEF FIXADORE         
PE1011000000001140703         000000PB.047                        PB.047                                    011             PC0P
PE2000000000000    0000000000000000000000000000000000000000000000000000000000   00000000             1                          
PE314070100000014000140709000000140001407160000001400014072300000014000140730000000070001408060000001400014081300000014000      
PE5140701199418    140709199418    140716199418    140723199418    140730199418    140806199418    140813199418                 
PE314082000000014000140827000000140001409030000001400014091000000007000140917000000140001409240000001400014100100000014000      
PE5140820199418    140827199418    140903199418    140910199418    140917199418    140924199418    141001199418                 
PE314100800000007000141015000000140000000000000000000000000000000000000000000000000000000000000000000000000000000000000000      
PE5141008199418    141015199418    0000000         0000000         0000000         0000000         0000000                      
PE1011000000001140703         000000PB.049                        PB.049                                    011             PC0P
PE2000000000000    0000000000000000000000000000000000000000000000000000000000   00000000             1                          
PE314062300000015400140630000000322001407070000001435014071400000014000140721000000143501407280000001400014080400000015050      
PE5140623199418    140630199418    140707199418    140714199418    140721199418    140728199418    140804199418                 
PE314081100000015050140818000000154001408250000001505014090100000015050140908000000150501409150000001505014092200000014700      
PE5140811199418    140818199418    140825199418    140901199418    140908199418    140915199418    140922199418                 
PE314092900000015050141006000000133001410130000001295000000000000000000000000000000000000000000000000000000000000000000000      
PE5140929199418    141006199418    141013199418    0000000         0000000         0000000         0000000                      
PE1011000000001140703         000000PB.050                        PB.050                                    011             PC0P
PE2000000000000    0000000000000000000000000000000000000000000000000000000000   00000000             1                          
PE314070100000037800140709000000126001407160000002520014072300000012600140730000000252001408060000001260014081300000025200      
PE5140701199418    140709199418    140716199418    140723199418    140730199418    140806199418    140813199418                 
PE314082000000012600140827000000252001409030000001260014091000000025200140917000000252001409240000001260014100100000025200      
PE5140820199418    140827199418    140903199418    140910199418    140917199418    140924199418    141001199418                 
PE314100800000012600141015000000126000000000000000000000000000000000000000000000000000000000000000000000000000000000000000      
PE5141008199418    141015199418    0000000         0000000         0000000         0000000         0000000                      
PE1011000000001140703         000000PP.042                        PP.042                                    011             PC0P
PE2000000000000    0000000000000000000000000000000000000000000000000000000000   00000000             1                          
PE314062300000021000140704000000105001407110000002100014072500000010500140801000000105001408150000002100014082200000010500      
PE5140623199418    140704199418    140711199418    140725199418    140801199418    140815199418    140822199418                 
PE314090500000010500140912000000210001409260000001050014100300000010500141017000000105000000000000000000000000000000000000      
PE5140905199418    140912199418    140926199418    141003199418    141017199418    0000000         0000000                      
PE1011000000001140703         000000PQ.004                        PQ.004                                    011             PC0P
PE2140610027312   11406060000120000000000000000000000000000000000000000000000   00000000             1                          
PE314082500000004200140904000000042001409150000000315014092500000003150141006000000031501410160000000210000000000000000000      
PE5140825199418    140904199418    140915199418    140925199418    141006199418    141016199418    0000000                      
PE1011000000001140703         000000PQ.014                        PQ.014                                    011             PC0P
PE2140610027312   11406060000440000000000000000000000000000000000000000000000   00000000             1                          
PE314071600000010000140718000000150001407250000002500014080100000005000140806000000400001408150000003500014082700000040000      
PE5140716198660    140718198660    140725198660    140801199045    140806199045    140815199045    140827199045                 
PE314090500000025000140917000000300001409260000002000014100200000005000141008000000250001410170000002000000000000000000000      
PE5140905199261    140917199261    140926199261    141002199261    141008199261    141017199261    0000000                      
PE1011000000001140703         000000PQ.050                        PQ.050                                    011             PC0P
PE2000000000000    0000000000000000000000000000000000000000000000000000000000   00000000             1                          
PE314062300000059850140702000000451501407090000003150014071600000013650140723000000336001407300000003045014080600000011550      
PE5140623199418    140702199418    140709199418    140716199418    140723199418    140730199418    140806199418                 
PE314081300000031500140820000000294001408270000001155014090300000032550140910000000336001409170000001365014092400000034650      
PE5140813199418    140820199418    140827199418    140903199418    140910199418    140917199418    140924199418                 
PE314100100000030450141008000000147001410150000003255000000000000000000000000000000000000000000000000000000000000000000000      
PE5141001199418    141008199418    141015199418    0000000         0000000         0000000         0000000                      
FTP0000000000005000000000000000000                                                                                              
