12200G56081482000106DIMEBRAS COMERCIAL HOSPITALAR LTDA      RUA PAULO DE FRONTIM,25       RIBEIRAO PRETO      14030-43SP122003032017000006600022017000044000032016000054380000200000001000044000000029480032017000044000000014520000014960000000000
12200G01321974000130DISTRIBUIDORA GAMA LTDA                 RODOVIA BR-381 FERN√O DIAS,35 BETIM               32689-89MG122003032017000016200072016000054336082016000097536000300000001000029700000000000032017000029700000000000000000000000000000
12200G17214149000176FUNDACAO FELICE ROSSO                   AVENIDA CONTORNO, 9530        BELO HORIZONTE      30110-93MG122003042017000008064022017000008064012004000020400001000000000000052416000000000032017000040320000000000000000000000000000
12200G32561144000456BISTURI DISTR. MATL. HOSP. LTDA         RUA CORONEL MOREIRA CESAR, 21 SAO GONCALO         24440-40RJ122003032017000000216032014000042785072015000064457000050000001000042776000000000032017000042776000000000000000000000000000
12200G33438250000167DROGARIAS PACHECO S/A                   RODOVIA PRESIDENTE DUTRA, 2749RIO DE JANEIRO      21535-50RJ122003052016000005047122012000056592052016000068721000050000001000000016000000016032017000000000000000000000000000000000016
12200G78742491000133JOAOMED COM MAT CIRURGICO LTDA          RUA WILSON LOIS KOEHLER JUNIORCURITIBA            81630-28PR122003032017000040600022017000162400112015000393150000300000001000190240000037120032017000133400000018560000018560000000000
12200G28047561000165MARAJO MATERIAL CIRURGICO LTDA          RUA JOAQUIM SALVADOR, 140     SAO GONCALO         24460-57RJ122003032017000001237032015000014640032015000039122000004500001000015563000000000032017000015563000000000000000000000000000
12200G01906952000131MEDICAL LINE COM MATL MED HOSP LTDA     RUA RUA GENERAL IZIDORO DIAS LSAO BERNARDO DO CAMP09687-00SP122003082016000058000052014000190900042016000285785000100000001000000276000000276032017000000000000000000000000000000000276
12200G10779833000156MEDICAL MERCANTIL DE APARELHAGEM MED    AV AGAMENOM MAGALHAES, 3158   RECIFE              52010-04PE122003032017000028250092014000090000072016000239720000200000001000099440000004520032017000065540000000000000004520000000000
12200G28862209000183POLIBOR LTDA                            AV. NOSSA SENHORA DE FATIMA, 9ENGENHEIRO PAULO DE 26650-00RJ012004072016000070107092015000845000102015003439000002000000004001620407001620407032017000000000000000000000000000001620407
12200G02800122000198CIRURGICA BEZERRA DISTRIB LTDA          RUA SAO JOSE, 1523            NATAL               59063-15RN122003032017000000200112016000065200112016000065200000200000001000024205000001475032017000006100000000000000001475000000000
12200G61418042000131CIRURGICA FERNANDES LTDA                ALAMEDA AFRICA,570            SANTANA DE PARNAIBA 06543-30SP032004042016000006252122013000960270042015003980233005000000003000163694000163694032017000000000000000000000000000000163694
12200G03079709000112SERRA DA ESTRELA DISTRIBUIDORA LTDA     RUA DONA ROSA, 150            NOVA IGUACU         26280-58RJ122003042017000006292112015000027380112015000042632000008000001000014923000000000032017000008630000000000000000000000000000
12200G00874929000140MED CENTER COMERCIAL LTDA               RODOVIA JK BR 459-KM 99, S/N  POUSO ALEGRE        37550-00MG122003032017000057500012017000115000012017000382490000250000001000060490000034500032017000057500000000000000023000000011500
12200G94389400000184M C W PRODS MEDS HOSPITALARES LTDA      ROD. BR 471, KM 122           SANTA CRUZ DO SUL   96814-40RS122003032017000086550122014000144000032016000357372000300000001000257325000014750032017000192150000000000000014750000000000
12200G47869078000453DIPROMED COMERCIO E IMPORTACAO LTDA     AV DR MAURO LINDEMBERG MONTEIROSASCO              06278-01SP122003122016000005250112015000258300012016002119945000500000004000018094000018094032017000000000000000000000000000000018094
12200G46068425000133UNIVERSIDADE ESTADUAL DE CAMPINAS       CID. UNIVERSITARIA ZEFERINO VOCAMPINAS            13083-97SP122003062012000003960052012000007740052010000173422000001080000000001758000001758032017000000000000000000000000000000001758
12200G35997345000146HOSPIDROGAS COMERCIO PROD HOSP LTDA     RUA ALCINDO GUANABARA, 417    VILA VELHA          29106-40ES012004032017000088000082015000211750032016000528720000500000001000165000000165000032017000165000000000000000165000000000000
12200G05400006000170FABMED DISTR  HOSP LTDA                 RUA CONDE DE ARCO,200         FEIRA DE SANTANA    44094-58BA012004042017000000022112016000114000022017000187800000300000002000129822000030822032017000077028000015422000015400000000000
12200G32407538000101INDUSTRIA FRONTINENSE DE LATEX S.A.     RUA MAJOR TOFANI, 20          ENGENHEIRO PAULO DE 26650-00RJ012004022016000000401062012001616428022008041953009015000000000001234225001234225032017000000000000000000000000000001234225
12200G64533797000175VOLPI DISTRIBUIDORA DE DROGAS LTDA      RUA DR. JOSE JORGE CURY, 155  SAO JOSE DO RIO PRET15076-61SP012004032017000077000112016000570880112016000576000000800000002000198000000041250032017000165000000041250000000000000000000
12200G05864669000145DISMAP PROD P/ SAUDE LTDA               RUA WALDEMAR NERY CARN MONT, 3RECIFE              51030-14PE012004032017000011400122015000052800022016000077103000090000000000011400000000000032017000011400000000000000000000000000000
12200G05924848000120MZ - MEDGLASS COM E DISTR LTDA.         ESTRADA ENGENHO D'AGUA, 1330  RIO DE JANEIRO      22765-24RJ022004042017000008662082013000037120022016000059940000010004000000009382000000000032017000000000000000000000000000000000000
12200G32313421000169CAMINHAS COMERCIAL LTDA                 RUA RUA MARECHAL BENTO MANOEL,DUQUE DE CAXIAS     25015-27RJ022004032017000012585092016000019545012017000030720000020000001000034691000000000032017000037757000000000000000000000000000
12200G03924435000110DIMENSAO COMERCIO DE ARTIGOS MEDICOS    RUA MALU, 4458                UMUARAMA            87501-14PR022004032017000003480022017000003480000000000000000000130000000000003445000001148032017000003480000001148000000000000000000
12200G01722296000117PANORAMA COM PROD MED FARM LTDA         RUA SANTA QUITERIA, 176       FORTALEZA           60410-33CE022004032017000028750032017000103500112015000246368000200000001000168090000008960032017000154650000004480000004480000000000
12200G03407436000198SULMED ARTIGOS HOSPITALARES LTDA        RUA MINISTRO OLIVEIRA SALAZAR,UMUARAMA            87502-07PR032004032017000004560022017000005800022017000005800000000000002000004560000000000032017000004560000000000000000000000000000
12200G02933849000143MEDBAMA                                 RUA RUA PRESIDENTE KENNEDY,101BARRA MANSA         27323-64RJ032004052016000004019052016000013844052016000035536000001800019000019869000019869032017000000000000000000000000000000019869
12200G05487170000166P B FARMA DISTRIBUIDORA DE MED LTDA     AVENIDA COLETORA A,1040       NOSSA SENHORA DO SOC49160-00SE042004022017000028250082016000131000092016000620500000030000006000024182000000000032017000000000000000000000000000000000000
12200G02999391000125BORRACHA XETAL COM RECICLAGEM LTDA      RUA ISAURA GAMBA VITORINO, 265MARINGA             87065-14PR042004012017000005600012017000005600042004000003171000000000000000001867000000000032017000000000000000000000000000000000000
12200G39499710000143MEDICOM RIO FARMA LTDA EPP              AVENIDA CONSELHEIRO JULIUS ARPNOVA FRIBURGO       28623-00RJ042004032017000023400082016000059400092016000205920000100000001000070200000000000032017000070200000000000000000000000000000
12200G52202744000192NACIONAL COMERCIO HOSPITALAR LTDA       AVENIDA DOUTOR CELSO CHARURI, RIBEIRAO PRETO      14098-51SP042004112016000018750102014000142800052016000313814000000000000000015502000015502032017000000000000000000000000000000015502
12200G04949905000163F CARDOSO & CIA LTDA                    AVENIDA ALMIRANTE BARROSO, 750BELEM               66630-50PA052004022017000034200112016000070200122016000163800000200000001000011556000000000032017000000000000000000000000000000000000
12200G00175233000125TRES LEOES MATERIAL HOSPITALAR LTDA     RUA BOM JESUS DOS NAVEGANTES,2ARACAJU             49047-06SE022004022017000000030062015000216000082016000525464000200000001000023200000000000032017000000000000000000000000000000000000
12200G31864051000195PLAST LABOR IND COM EQUI HOSP LAB LT    RUA VAZ DA COSTA,103          RIO DE JANEIRO      20760-51RJ062004052016000002728072014000009798072014000009798000001006000000001290000001290032017000000000000000000000000000000001290
12200G04361467000118ARTMED COMERCIO EIRELI                  RUA LUIZ DUTRA, 340           NATAL               59040-34RN082004032017000016100112016000023400012017000045360000000000000000040400000000000032017000036800000000000000000000000000000
12200G35230010000106REPIFARMA COMERCIAL DE MEDIC LTDA       RUA MONSENHOR SALAZAR,90      FORTALEZA           60130-37CE092004052016000017500072014000113290052016000216600000065000000000000840000000840032017000000000000000000000000000000000840
12200G04889013000114DISTRILAF DISTRIBUIDORA DE MED LTDA     RUA ALZIRA FERNANDES DE SOUZA,CONSELHEIRO LAFAIETE36400-00MG102004112016000007076072016000274000082016001161163000008800000000001080000001080032017000000000000000000000000000000001080
12200G25725813000170EQUIPAR MEDICO E HOSPITALAR LTDA        RUA LUIZ ROCHA, 725           JUIZ DE FORA        36048-13MG112004032017000006000062013000019800022017000016800000030000000000006000000004020032017000006000000001980000002040000000000
12200G32573503000142HERLAU ATACADISTA PRODS HOSP LTDA       RUA AMACENA, 30               RIO DE JANEIRO      21061-10RJ122004032017000074880102016000137493022016000249754000300000000000074880000000000032017000074880000000000000000000000000000
12200G04192876000138CRISMED COMERCIAL HOSPITALAR LTDA       RUA SAO PAULO,13              SANTOS              11075-33SP032005102016000065500032015000084500112014000217660000002500000000012083000012083032017000000000000000000000000000000012083
12200G04598413000170RECOL REPRESENTACOES E COMERCIO LTDA    VIA CHICO MENDES,1256         RIO BRANCO          69906-21AC032005032017000071100122016000207254012017000388152000500000001000080588000009488032017000071100000000000000009488000000000
12200G09423609000148DINAMICA COM DE PROD HOSPITALAR LTDA    RUA AMADEU FURTADO, 994       FORTALEZA           60450-13CE042005032017000023400032015000048000062016000129980000070000000000053560000009280032017000046600000004640000004640000000000
12200G82641325002080CREMER SA                               ROD PRESID DUTRA,2250         RIO DE JANEIRO      21535-50RJ122005122013000012064012011001694550062011005636492015000000000000352300000352300032017000000000000000000000000000000352300
12200G00085822000112ESPECIFARMA C. M. P. H. LTDA            ESTRADA DA PEDRA, 5.100       RIO DE JANEIRO      23030-38RJ032011042016000012050122013000240000112015001410555000000000000000299840000299840032017000000000000000000000000000000299840
12200G06106005000180STOCK MED PRODUTOS MEDICO HOSPITALAR    AVENIDA PAUL HARRIS, 100      SANTA CRUZ DO SUL   96810-40RS042006042017000115000032017000115000022017000439631000120000000000434837000008555032017000382380000008555000000000000000000
12200G06175908000112BIO LOGICA DISTRIBUIDORA EIRELI - EP    RUA PROF ZELDA C. CURSI MASTRICAMBE               86182-53PR042006032017000008295032017000008295022017000006380000060000002000008295000000000032017000008295000000000000000000000000000
12200G74093675000169QUIMION DIST. FARMACEUTICA LTDA         RUA CATARINA DE BORA, 205     LONDRINA            86039-37PR052006032017000006840052015000024200072016000030272000072000001000006249000000606032017000006840000000000000000606000000000
12200G59609123001220SP EQUIPAMENTOS DE PROT. E MRO LTDA     AV ROBERT KENNEDY, 675        SAO BERNARDO DO CAMP09895-00SP052011092014000007480042014000015840000000000000000000000001000000011440000011440032017000000000000000000000000000000011440
12200G13774687000164VIDA OLIVEIRA COM.ACES.HOSP.LTDA ME     RUA RUA MATOSO MAIA, 22       NITEROI             24070-02RJ072011032017000012057062015000037120062016000083838000030000000000012057000000000032017000012057000000000000000000000000000
12200G11206099000280SUPERMED COM E IMP DE PRODUTOS MEDIC    AVENIDA RHODES,50             CAMBUI              37600-00MG042012012017000030495112016000492000042015003401802002500000001000143196000143196032017000000000000000000000000000000143196
12200G99000465999980GARLICO ENTERPRISE                      LORONG LIMAU SATU A,7         SELANGOR            41000-00ML082012022017000002880092012000085310062015000136645000000000245000062682000062682032017000000000000000000000012762000049920
12200G05295083000107CIRURGICA PHARMA COM PROD CIR LTDA      AVENIDA HISTORIADOR J EMERENCIRECIFE              50800-12PE102012032017000066600022017000177600072016000371640000113000000000141223000000000032017000177600000000000000000000000000000
12200G00235396000156JELMED COM.DE MEDIC.E MATERIAL HOSP.    RUA GODOFREDO VIANA,320       RIO DE JANEIRO      22730-02RJ042013032016000004970032014000011908072015000014054000000001038000000484000000484032017000000000000000000000000000000000484
12200G04380569000180JRG DISTRIBUIDORA DE MEDICAMENTOS HO    RUA PEDRO ZANGRADE,12         SERRA               29164-02ES042013032017000030680122016000222000122016000483700000062000005000170610000002000032017000168610000000000000002000000000000
12200G06166676000136BARROS E BAZILIO COMERCIO DE METAIS     RUA CARLOS EDUARDO FERREIRA DAPARAIBA DO SUL      25850-00RJ052013042017000000250112016000001117000000000000000000000000005000000255000000255032017000001379000000255000000000000000000
12200G12420164000157CM HOSPITALAR S/A                       AVENIDA LUIZ MAGGIONI, 2727   RIBEIRAO PRETO      14072-05SP062013112016000225400092016000246000062016000611405000500000001000000980000000980032017000000000000000000000000000000000980
12200G03662136000155DENTAL SORRIA LTDA                      RUA CREPUSCULO,58             BELO HORIZONTE      30855-43MG062013092013000041820062013000049000000000000000000000005000000000003430000003430032017000000000000000000000000000000003430
12200G01417694000120DISTRIMIX DIST.DE MED.LTDA              AVENIDA PRESIDENTE TANCREDO NECARATINGA           35300-10MG062013032017000017250052016000036900052016000109390000150000000000034500000006900032017000017250000003450000003450000000000
12200G21681325000157MULTIFARMA COMERCIAL LTDA               RUA 03, 283                   VESPASIANO          33200-00MG072013042017000165000042017000165000022017000385000000300000000000304357000000000032017000198000000000000000000000000000000
12200G12047164000153GLOBAL HOSPITALAR IMPORTAÁAO E COMER    RUA PITUNIA,138               CONTAGEM            32150-20MG072013032017000008064012017000135600072016000541300000017000000000079109000022597032017000082284000000000000022597000000000
12200G13757202000124EXATA HOSPITALAR LTDA                   AVENIDA GILBERTO CARVALHO, S/NMARICA              24944-00RJ072013032017000002882022017000083659022016000161138000000000001000084009000000000032017000057906000000000000000000000000000
12200G06047087003235REDE DOR SAO LUIZ S/A                   RUA FRANCISCO REAL,752        RIO DE JANEIRO      21810-04RJ082013042017000001656022017000004140062016000009730000000000000000005520000000000032017000005520000000000000000000000000000
12200G27901222000131J BADIM S/A                             RUA SAO FRANCISCO XAVIER, 390 RIO DE JANEIRO      20550-01RJ082013042017000009246062016000012350052016000065316000000000000000034224000000000032017000024978000000000000000000000000000
12200G11708320000117PROSILIX COM DE ARTIGOS MEDICOS HOSP    RUA JOSEFINA GASPARIAN, 61    COMENDADOR LEVY GASP25870-00RJ092013092014000020237092013000023600000000000000000000000000000000002336000002336032017000000000000000000000000000000002336
12200G26921908000393HOSPFAR INDUSTRIA E COMERCIO DE PROD    RUA POTYRA,31 E 65            RECIFE              50751-31PE092013032017000002700112016000108000012016000638332000000000001000002700000000000032017000002700000000000000000000000000000
12200G08958658000112GABMASTER MATERIAIS HOSPITALARES LTD    RUA MAURICIO MARINO,43        MAGE                25931-81RJ092013122015000001728082015000063670122015000136980000005000004000027257000027257032017000000000000000000000000000000027257
12200G15038394000144PSM DISTRIBUIDORA DE PRODUTOS MEDICO    AVENIDA CAVALHADA, 2164       PORTO ALEGRE        91740-00RS092013042017000005900022017000007020022017000007020000010000004000005900000000000032017000000000000000000000000000000000000
12200G10290557000168SALES EQUIPAMENTOS E PROD. DE HIG. P    RUA PROFESSOR HASEGAWA, 250   SAO PAULO           08260-09SP102013072014000015400102013000055000000000000000000000000000001000015400000015400032017000000000000000000000000000000015400
12200G14841442000175X MEDIC HOSPITALAR LTDA                 RUA VEREADOR JULIO PEREIRA,909MACAPA              68909-00AP102013022017000003420082016000140405062016000300817000100000001000003762000000000032017000000000000000000000000000000000000
12200G03052017000180CENTRO ODONTOLOGICO HATAB LTDA          RUA GAVIAO PEIXOTO, 212       NITEROI             24230-10RJ112013032017000005000112013000012960112016000012800000013000002000012500000000000032017000012500000000000000000000000000000
12200G18471262000108TS DISTRIBUIDORA HOSPITALAR E LABORA    RJOSE JERONIMO DE MESQUITA, 39SAO GONCALO         24742-16RJ112013062014000005520022014000008160000000000000000000002352944000002777000002777032017000000000000000000000000000000002777
12200G05348580000126DROGA ROCHA DISTRIBUIDORA DE MEDICAM    AV. NA«’ES UNIDAS, 1069       TERESINA            64019-23PI112013022017000011600112013000021900022017000011600000050000001000003828000000000032017000000000000000000000000000000000000
12200G05577401000122R O CARVALHO DO NASCIMENTO E-PP         RUA MAGALH√ES FILHO, 720      TERESINA            64000-12PI112013022017000034500082015000048640092016000078000000120000003000006900000000000032017000000000000000000000000000000000000
12200G03326448000198ELLO ATACADAO DE PRODUTOS LTDA          RUA SANTOS TITARA, 28 A       SALVADOR            65010-58BA112013102016000002240112013000022400102016000004480000000000000000010080000010080032017000000000000000000000000000000010080
12200G02223342000104STARMED ARTIGOS MEDICOS E HOSPITALAR    RUA BENJAMIM ANTONIO, 180     CURITIBA            81030-49PR122013032017000081200092016000208000102016000434634000500000001000159730000033870032017000081200000016240000016240000001390
12200G03968926000163MASIF ARTIGOS MEDICOS E HOSPITALARES    RUA BR 116, 17651             CURITIBA            81690-30PR012014032017000046748112016000122000042016000492000000223000000000102080000032480032017000081200000016240000016240000000000
12200G07752236000123MEDILAR IMPORTACAO E DIST. DE PRODUT    RUA NORBERTO OTTO WILD,420    VERA CRUZ           96880-00RS012014112015000002400112014000129000102015000065499000130000208000006066000006066032017000000000000000000000000000000006066
12200G09660958000183S3 MED DISTRIBUIDORA DE MEDICAMENTOS    RUA BERNARDO MASCARENHAS,1062 JUIZ DE FORA        36080-00MG012014062015000016800022014000350000062015000475524000150000024000048297000048297032017000000000000000000000000000000048297
12200G33438250044539DROGARIAS PACHECO S/A                   AV. WILSON TAVARES RIBEIRO, 10CONTAGEM            32183-68MG012014052016000000622012015000003140012015000006546000000000016000000198000000198032017000000000000000000000000000000000198
12200G92146505000187NEO STOCK BRASIL PROD PARA SAUDE LTD    AVENIDA AV. MARANH√O,737      PORTO ALEGRE        90230-04RS022014042017000046805082014000304500042015000834498000030000002000520375000074750032017000161805000040250000034500000000000
12200G18739378000177ODONTOCOPA COMERCIO DE ARTIGOS ODONT    AV.NOSSA SENHORA DE COPACABANARIO DE JANEIRO      22020-00RJ022014032017000006193032017000006193032017000004258000010000000000008850000000000032017000010451000000000000000000000000000
12200G07118264000193QUALITY MEDICAL COMERCIO E DIST. MED    AVENIDA ALBERTO RAMOS, 274    SAO PAULO           03222-00SP022014042017000057000012017000207000012017000495880000200000001000277260000106260032017000306125000000000000053130000053130
12200G07129130000178LOTUS FARMACEUTICA EIRELI-ME            AVENIDA ANA PENA DE FARIA, 453CARATINGA           35300-10MG022014012017000004640012017000010440012017000026015000010000011000015080000011310032017000000000000000000000007540000003770
12200G17700763000148FUTURA DIST. DE MEDICAMENTOS E PRODS    RUA RECIFE, S/N               DUQUE DE CAXIAS     25243-57RJ022014042017000033600032017000082918022017000148760000100000002000194658000016240032017000148998000008120000008120000000000
12200G01107455000173DISTRIBUIDORA BARATELLA LTDA            AVENIDA PRIMEIRA AVENIDA,1605 VILA VELHA          29111-16ES032014032017000006180032015000012000032015000012000000004554000000006180000000000032017000006180000000000000000000000000000
12200G11872656000110HDL LOGISTICA HOSPITALAR LTDA           AVENIDA CESARIO ALVIM,,4425   UBERLANDIA          38405-18MG042014032017000011800042014000049500082016000072630000370000001000040750000013162032017000040750000000000000008775000004387
12200G17498163000149DISTRIBUIDORA TRIANGULO LTDA            RUA SANTA QUITERIA,634        BELO HORIZONTE      30710-46MG052014032017000002050062014000126000092016000029105000030000002000002050000000000032017000002050000000000000000000000000000
12200G11511020000143SAUDE DOCTOR COMERCIO LTDA              RUA AÁU, 341                  NATAL               59020-11RN052014032017000009990092014000035560042015000032048000032000000000014874000003996032017000009990000001998000001998000000000
12200G28955193000153CARVAS MATERIAL CIRURGICO E DENTAL -    RUA DUQUE DE CAXIAS,99        TERESOPOLIS         25953-39RJ062014112016000003065092015000077421092015000095145000000000008000091395000091395032017000000000000000000000000000000091395
12200G07518802000137MEDFARM DIST. MED. LTDA-ME              RODOVIA BR 482,S/N            GUACUI              29560-00ES062014032016000000252072015000033900072015000034812000015000006000000256000000256032017000000000000000000000000000000000256
12200G05008240000156EXATA DISTRIBUIDORA HOSP. LTDA          RUA PITUBA,17                 RECIFE              50670-28PE062014042017000044800032015000138000052016000961980000200000020000371144000005928032017000296498000002964000002964000000000
12200G05108407000150BCM K DISTRIBUIDORA EPP-LTDA            AVENIDA DOS ESTUDANTES,2511   IBIPORA             86200-00PR062014122014000005100122014000005100122014000005100000015000230000001683000001683032017000000000000000000000000000000001683
12200G09152254000108CIRURGICA W A COMERCIO DE MED E PROD    RUA IRMA MARIA LUCIA ROLAND,38CURITIBA            81610-09PR062014102015000038400102015000128000102015000313600000058250001000267200000267200032017000000000000000000000000000000267200
12200G05675713000179SUPERFIO COM DE PROD MED E HOSP LTDA    RUA JULIO CESAR,1013          FORTALEZA           60410-50CE062014032017000033600022017000112000052016000208321000127400000000100800000013440032017000033600000006720000006720000000000
12200G10463030000198LINE MED COMERCIAL DA EMPRESA           AVENIDA QUEIRA DEUS,915       LAURO DE FREITAS    42700-00BA072014092015000015600092014000130500062015000836441000030000386000079320000079320032017000000000000000000000020727000058593
12200G09200303000122PLASMEDIC COM DE MAT P USO MEDICO E     RUA JOAO MASSIGNAN, 143       ERECHIM             99700-43RS072014032017000035400032017000035400032017000063654000050000002000041599000000000032017000036275000000000000000000000000000
12200G48090880000160VITALI SAUDE ANIMAL E AMBIENTAL LTDA    RUA SAO CAETANO,332           SAO PAULO           01104-00SP072014032017000002160082016000004050082016000004050000015000003000003600000000000032017000003600000000000000000000000000000
12200G09182725000112ATIVA MEDICO CIRURGICA LTDA             RUA VEREADOR RAIMUNDO HARGREAVJUIZ DE FORA        36083-77MG082014032017000056000092015000118000102015000403249000150000002000253115000015684032017000227360000007842000007842000000000
12200G25296849000185TIDIMAR COMERCIO DE PRODUTOS MED E H    RUA MARIA PERPETUA,322        JUIZ DE FORA        36052-56MG082014032017000011200102016000076200112015000169250000060000001000049459000003730032017000011200000001865000001865000000000
12200G06987995000102BIOLAR IMPORTACAO E EXPORTACAO LTDA     RUA CORONEL ALEXANDRINO,454   RIO BRANCO          69900-65AC082014032017000021078042015000063600000000000000000000030000000000021078000000000032017000021078000000000000000000000000000
12200G64533797000256VOLPI DISTRIBUIDORA DE DROGAS LTDA -    RUA CURITIBA, 21              GOIANIA             74675-26GO082014032017000209000082016000216000062016001999712000000000001000442275000092150032017000410500000000000000092000000000150
12200G04110063000151503 COMERCIO DE MEDICAMENTOS E MATER    RUA CANDIDO BENICIO,503       RIO DE JANEIRO      21320-06RJ082014012017000013379112016000120000112016000211062000150000002000004217000000000032017000000000000000000000000000000000000
12200G07946534000154MT COMERCIAL MEDICA LTDA                RUA NICARAGUA,112             RECIFE              52020-19PE092014032017000001695092014000208800092014000208800000020000001000001695000000000032017000001695000000000000000000000000000
12200G09000348000153LUIMED COMERCIO DE PRODUTOS HOSPITAL    RUA WILLIS ROBERTO BANKS,487  SAO PAULO           05128-00SP092014042017000001220122016000025960042016000158200000150000001000022280000000540032017000020520000000000000000000000000540
12200G56998701001279ABBOT LABORATORIOS DO BRASIL LTDA       ESTRADA BANDEIRANTES,2400     RIO DE JANEIRO      22775-10RJ092014042017000000140122014000022560122014000022560000000000003000018800000018800032017000000000000000000000000000000018800
12200G33116856000186DENTALEX ODONTO CIRURGICA LTDA          HENRIQUE SCHEID,37            RIO DE JANEIRO      20770-06RJ092014012015000003570122014000040976122014000161652000020000000000007030000007030032017000000000000000000000000000000007030
12200G05767719000176ECO FARMA DISTRIBUIDORA DE MEDICAMEN    RUA BERNARDO MASCARENHAS, 829 JUIZ DE FORA        36080-00MG092014032017000012880032017000012880000000000000000000035000000000012880000000000032017000012880000000000000000000000000000
12200G18367411000185JAMILE GOUVEA DE MESQUITA-ME            RUA 231,273                   GOIANIA             74535-22GO102014082015000021306102014000082579102014000082579000005000001000021306000021306032017000000000000000000000000000000021306
12200G02090238000180L. M. COMERCIO DE MEDICAMENTOS LTDA     AVENIDA SAUDADE, 900          FORTALEZA           60831-33CE102014032017000005800112016000012400112016000012400000006000002000006960000000000032017000005800000000000000000000000000000
12200G07886202000121MATTOS OLIVEIRA COMERCIO DE MEDICAME    RUA GUILHERMINO NOVAES, 09    VITORIA DA CONQUISTA45020-60BA112014022017000005900112015000061224042016000083678000020000023000002360000000000032017000000000000000000000000000000000000
12200G05865540000151F. DA S. CASADO                         RUA PEDRO DE TOLEDO,807       GUARULHOS           07140-00SP012015022015000031200012015000057200022015000312728000156000002000000728000000728032017000000000000000000000000000000000728
12200G66471517000177DPC DISTRIBUIDOR ATACADISTA S/A         AVENIDA AUREA CARLOS LEITE DE CARATINGA           35303-13MG012015032017000000192032015000129320032015000168417000030000000000022722000000644032017000023198000000000000000000000000644
12200G66471517000924DPC DISTRIBUIDOR ATACADISTA S/A         AVENIDA DEP LUIS EDUARDO MAGALFEIRA DE SANTANA    44096-48BA012015032017000000385032015000078080032015000149025000030000000000005414000000000032017000005414000000000000000000000000000
12200G11205909000100ODONTO CIRURGICA JUIZ DE FORA LTDA.     GALERIA CONSTANÁA VALADARES, 2JUIZ DE FORA        36010-30MG022015022017000011600022017000011600082015000008036000007000000000005800000000000032017000000000000000000000000000000000000
12200G01321974000300DISTRIBUIDORA GAMA LTDA                 AVENIDA PREF JORGE JULIO COSTABELFORD ROXO        26130-01RJ022015032017000008566122016000096340112016000265499000050000001000043234000000000032017000042220000000000000000000000000000
12200G66471517001734DPC DISTRIBUIDOR ATACADISTA S/A         RODOVIA BR 232,S/N            CARUARU             55034-64PE022015032017000003573082015000016471082015000016471000000000001000012862000000000032017000012862000000000000000000000000000
12200G18588224000121NACIONAL COMERCIO E REPRESENTAÁOES L    RUA TUIUTI,772                NATAL               59014-16RN032015032017000011100032015000030000012017000051750000010000000000017760000004440032017000011100000002220000002220000000000
12200G19105765000114LIFE CARE COMERCIO DE PRODUTOS FARMA    AVENIDA HENRIQUE DUQUE ESTRADANOVA IGUACU         26041-05RJ032015102015000045000072015000054000052015000237343000015000001000084000000084000032017000000000000000000000000000000084000
12200G10837371000186CARIOCA MEDICAMENTOS E MATERIAL MEDI    RUA FERNANDO DE MORAES,400    SAO GONCALO         24436-56RJ032015082016000070333082016000070333112015000207212000030000147000062842000062842032017000000000000000000000000000000062842
12200G45453214002600PROFARMA DISTR PROD FARMACEUTICO        RUA MARIA SOARES SENDAS,705   SAO JOAO DE MERITI  25575-82RJ042015032017000024273122016000073484122016000114941000010000001000024273000000000032017000024273000000000000000000000000000
12200G33486085000119FOX FARMA SOCIEDADE FARMACEUTICA EIR    RUA PROFESSORA ESTER DE MELO,1RIO DE JANEIRO      20930-01RJ052015082015000018600082015000018600082015000021075000000000283000000417000000417032017000000000000000000000000000000000417
12200G51462471000152LABSYNTH PROD. P/ LABORATORIO LTDA.     AVENIDA DR. ULYSSES GUIMARAES,DIADEMA             09990-09SP062004112015000000168072015000007755062015000014879000030000000000000328000000328032017000000000000000000000000000000000328
12200G61613881000100DAKFILM COMERCIAL LTDA                  RUA OURO GROSSO,1343          SAO PAULO           02531-01SP052015032017000003600082016000014630082016000035795000030000000000003600000000000032017000003600000000000000000000000000000
12200G10269296000102SEMEAR DISTRIBUIDORA EIRELI- EPP        RUA PRESIDENTE JOHN KENNEDY, 7VILA VELHA          29108-44ES052015032017000034171032017000034171052015000003720000070000000000052929000000000032017000052929000000000000000000000000000
12200G19679938000108L R LAGOS ARTIGOS MEDICOS E HOSPITAL    RODOVIA AMARAL PIXOTO,90333   ARARUAMA            28970-00RJ062015042017000018720022017000024114102016000038392000004000000000042505000000000032017000018085000000000000000000000000000
12200G40782468000108MSHS COMERCIO DE MATERIAL MEDICO HOS    RUA ANALIA JOVEM DE PAULA, 10 PARNAMIRIM          59149-19RN062015032017000005900112016000043900122016000096320000050000002000035400000000000032017000035400000000000000000000000000000
12200G02082008000170MVG TRTANSPORTES EIRELI                 RUA RAMO A1, 1750             MURIAE              36880-00MG072015042017000000022042017000000022000000000000000000000000000000000022000000000032017000000000000000000000000000000000000
12200G31890783000150RIO MEIER COMERCIO DE MATERIAIS ODON    RUA MEDINA,164                RIO DE JANEIRO      20735-13RJ072015042017000003744082016000014066082016000026663000030000001000003744000000000032017000000000000000000000000000000000000
12200G21155050000118RIO CENTER DISTRIBUIDORA LTDA - EPP     RUA NUNES VIANA,94            RIO DE JANEIRO      20765-37RJ072015032017000049085012016000086100012017000183764000020000001000063445000000000032017000049085000000000000000000000000000
12200G00823255000154MAMEDICO CIRURGICO LTDA                 RUA GLORIA,S/N                ARARUAMA            28970-00RJ082015032017000026525012017000042199012017000042199000006000001000034505000000000032017000026525000000000000000000000000000
12200G07928753000291GOYAZ SERVICE COMERCIO E LOGISTICA L    AVENIDA EDUARDO MORAIS BUFAIÁAGOIANIA             75370-00GO082015032017000003859072016000006595022016000007470000040000002000003859000000000032017000003859000000000000000000000000000
12200G07580167000118BASE MEDICAL DISTRIBUIDORA DE MEDICA    RUA E (DT INDUSTRIAL), 440    JEQUIE              45210-17BA092015122016000003450092016000069960102015000125000000036000010000006325000006325032017000000000000000000000006325000000000
12200G02482618000160VEIGAMED MATERIAL MEDICO E HOSPITALA    RUA RUA E 9,288               MACAE               27910-00RJ092015072016000040930092015000461520092015000650700000000000000000115380000115380032017000000000000000000000000000000115380
12200G12420164000319CM HOSPITALAR S/A                       RUA EIXO 3, S/N               CATALAO             75709-68GO092015092015000308000092015000308000092015000490000000200000003000006101000006101032017000000000000000000000000000000006101
12200G08765948000140GIL FARMA COMERCIAL FARMACEUTICOS LT    RUA ACRE, 97                  VITORIA DA CONQUISTA45075-07BA092015022017000013800092015000102560092015000102560000130000001000004600000000000032017000000000000000000000000000000000000
12200G05317182000142DENTAL CONQUISTA LTDA- EPP              RUA RUA DOIS DE JULHO, 112    VITORIA DA CONQUISTA45000-24BA102015012017000001740012017000002900012017000004640000046000000000001160000000000032017000000000000000000000000000000000000
12200G89543078000166CERVOSUL DISTRIBUIDORA DE MEDICAMENT    AVENIDA INDUSTRIAL BELGRAF,250ELDORADO DO SUL     92990-00RS102015032017000014986092016000039600022017000039789000400000002000033140000000000032017000014986000000000000000000000000000
12200G18274996000199RIO DE JANEIRO MEDICINA LABORATORIAL    ESTRADA ESTRADA ADHEMAR BEBIANRIO DE JANEIRO      20765-17RJ102015032017000004140012017000006900012017000006900000003500001000005520000000000032017000005520000000000000000000000000000
12200G09315202000105MEDLIFE DISTRIBUIDORA DE MEDICAMENTO    RUA RUA MINISTRO ANTONIO CARLOLAURO DE FREITAS    42700-00BA102015032017000006000102016000237600102016000397944000030000001000286975000028325032017000202000000028325000000000000000000
12200G02176615000107BIO EXTRATUS COSMETIC NATURAL LTDA      RODOVIA RODOVIA MG 123, KM 01,ALVINOPOLIS         35950-00MG112015042017000004554012017000005382012017000005382000000000000000004554000000000032017000000000000000000000000000000000000
12200G08157293000127NATCOFARMA DO BRASIL LTDA               RUA RUA PEDRO ZANGRANDE,1040  SERRA               29164-02ES112015022016000007833112015000011934122015000017916000000000000000000130000000130032017000000000000000000000000000000000130
12200G10877246000108DISLAB COMERCIAL FARMACEUTICA LTDA      RUA RUA GENERAL AUGUSTO SOARESRIBEIRAO PRETO      14095-24SP112015122015000003014112015000003104112015000003104000050000005000002069000002069032017000000000000000000000000000000002069
12200G09663726000189A M COMERCIO E REPRESENTAÁOES LTDA      AVENIDA 15 DE NOVEMBRO,610    CRUZEIRO DO SUL     69980-00AC122015032017000003082032017000003082000000000000000000003000000000003082000000000032017000003082000000000000000000000000000
12200G21988592000171J. PHARMA HOSPITALAR LTDA-ME            AVENIDA MUCURI,363            GOVERNADOR VALADARES35020-37MG122015032017000013200042016000030000042016000046576000003500003000022752000000000032017000025200000000000000000000000000000
12200G25440140000101HOSPIDROGAS LTDA                        RUA SAO JOAO BATISTA DO GLORIABELO HORIZONTE      31540-10MG012016032017000005700092016000010876052016000013412000100000015000010683000000000032017000009150000000000000000000000000000
12200G07404167000167M2S COMERCIO IMPORTAÁAO DE MATERIAL     AVENIDA DAS AMERICAS, 500     RIO DE JANEIRO      22640-10RJ012016012017000107963112016000113273052016000400228000000000001000025520000000000032017000000000000000000000000000000000000
12200G21514919000173COMERCIAL RIO MEDICAMENTOS E MATERIA    RODOVIA BR 040, KM 800        MATIAS BARBOSA      36081-61MG022016032017000035250092016000585000092016001137501000000000002000327950000192350032017000035250000152400000025850000014100
12200G15161670000167FACIMED COMERCIO E REPRESENTAÁıES EI    AVENIDA ANTONIO CABRAL DE SOUZPAULISTA            53425-43PE022016042017000012000012017000020740022017000093670000050000001000082350000010710032017000058200000002880000007830000000000
12200G00085822000384ESPECIFARMA COM MED PROD HOSPITALAR     RUA ANGELO BORGO,620          VILA VELHA          29108-01ES022016042017000163500032017000264000062016000975998000500000001000797542000034828032017000778750000008710000017414000008704
12200G07294636000132MD MATERIAL HOSPITALAR LTDA - ME        AVENIDA SANTIAGO DE COMPOSTELASALVADOR            40279-15BA022016032017000011500102016000103000042016000158960000003500008000047892000002875032017000011500000002875000000000000000000
12200G07485803000122MACEIO MED DISTRIBUIDORA DE PRODUTOS    AVENIDA DR JULIO MARQUES LUZ,7MACEIO              57035-70AL022016012017000007200122016000010800122016000024000000020000006000003600000003600032017000000000000000000000000000000003600
12200G11206099000107SUPERMED COMERCIO E IMPORP DE PROD M    RUA PROJETADA,SN              CAMBUI              37600-00MG032016042017000182169112016000944000012017002902573002500000001001987217000149281032017001649759000000000000148461000000820
12200G17624789000316LINEA RJ COMERCIO EIRELI ME             AVENIDA TALMA RODRIGUES RIBEIRSERRA               29173-79ES032016032017000011000122016000040950052016000185184000200000000000053150000002925032017000036650000000000000002925000000000
12200G57837973000105S P COMERCIO E SERVIÁOS EM DISTRIBUI    AVENIDA ALCEU PAIVA  ARANTES, RIBEIRAO PRETO      14056-39SP032016032017000019205112016000046800022017000080904000010000001000065396000008566032017000049910000000000000008566000000000
12200G09266890000152SUPERACAO DISTRIBUIDORA LTA EPP         RUA DULCE,799                 NILOPOLIS           26545-18RJ032016032017000002776102016000063310102016000142340000015000001000030975000000000032017000030975000000000000000000000000000
12200G19571321000174LAFE SERVICOS DIAGNOSTICOS LTDA         RUA PRES BACKER, 178          NITEROI             24220-04RJ042016032017000009800032017000010920032017000010920000030000004000020720000000000032017000020720000000000000000000000000000
12200G07918288000127MEDIC CENTER DISTRIBUIDORA DE PRODUT    AVENIDA DR MAURO LINDEMBERG MOOSASCO              06278-01SP042016032017000034200022017000045600042016000004672000300000000000034200000034200032017000034200000008550000025650000000000
12200G40409666000112CG COMERCIO DE PRODUTOS DE LIMPEZA L    RUA RUA EQUADOR,436           RIO DE JANEIRO      20220-41RJ042016032017000002538082016000003997012017000006874000020000001000002538000000000032017000002538000000000000000000000000000
12200G07369076000138LUAN MED PRODUTOS HOSPITALARES LTDA     RUA AMAPA, 205                ARACAJU             49075-04SE042016012017000014304102016000039300052016000057700000000000010000004720000004720032017000000000000000000000004720000000000
12200G15729853000136COMEP MEDICAMENTOS LTDA - EPP.          RUA CORACAO DE MARIA,63       RECIFE              50020-40PE052016052016000003445052016000003445000000000000000000000000000000003445000003445032017000000000000000000000000000000003445
12200G23164660000103HOSPITAL MUNICIPAL DR. OSWALDO PREDI    AVENIDA AVENIDA ANTÙNIO CARLOSSALINAS             39560-00MG052016052016000007200052016000007200000000000000000000000000000000007200000007200032017000000000000000000000000000000007200
12200G45511847000179PREFEITURA MUNICIPAL DE ARACATUBA       RUA COLEHO NETO,73            ARACATUBA           16015-92SP052016052016000000832052016000000832000000000000000000000000000000000100000000100032017000000000000000000000000000000000100
12200G08766992000174METHABIO FARMACEITICA DO BRASIL LTDA    QUADRA SIA TRECHO 3, S/N      BRASILIA            71200-03DF052016042017000140000122016000619440022017002221284000200000002000868480000364480032017001499344000280000000000000000084480
12200G05129693000130ROCHA DISTRIBUIDORA DE MATERIAIS DES    AVENIDA MARGINAL ITRAPOA,416  SANTO ANDRE         09371-60SP052016082016000013500072016000037800072016000047640000010000002000006474000006474032017000000000000000000000000000000006474
12200G10314658000121CALTECHLAB COMERCIO DE PRODUTOS PARA    RUA QUINZE DE NOVEMBRO, 710   UBERLANDIA          38400-21MG062016022017000000840062016000002460062016000002940000003000005000001029000000000032017000000000000000000000000000000000000
12200G34435891000120S-MASTER COMERCIAL LTDA                 AVENIDA AMARILIO THIAGO DOS SALAURO DE FREITAS    42700-00BA062016022017000014040022017000014040092016000008040000003000004000003510000000000032017000000000000000000000000000000000000
12200G32838716000159FARMAC PRODUTOS HOSPITALARES E LABOR    TRAVESSA VITORIA,58           ARACAJU             49085-45SE062016122016000006550112016000033800072016000064500000010000000000000453000000453032017000000000000000000000000000000000453
12200G00200646000112RECICLAGEM ANASTACIA LTDA -ME           RUA SAO JOSE,1482             TRES RIOS           25820-16RJ072016042017000000040082016000000520000000000000000000000000002000000110000000110032017000000360000000110000000000000000000
12200G22706161000138AVANTE BRASIL COMERCIO EIRELI-ME        RUA SILVEIRA MARTINS,S/N      RIO DE JANEIRO      25540-50RJ072016032017000055000022017000139608022017000334216000000000000000055000000022000032017000055000000011000000011000000000000
12200G16826043000160DENTALMED COMERCIO E REPRESENTACOES     RUA DOUTOR POTY NOBREGA, 1945 NATAL               59056-18RN072016032017000002320072016000012624072016000012624000010000002000006960000000000032017000002320000000000000000000000000000
12200137050817000048MICHELE CARVALHO JUSTINIANO             RUA VITÛRIA SOUZA CASTRO,11   PARAIBA DO SUL      25850-00RJ082016032017000000015102016000000030000000000000000000000000000000000015000000015032017000000015000000000000000015000000000
12200G01314126000101REAL HOSPITALAR COMERCIAL LTDA EPP      RUA BARBARA DE ALENCAR,442    FORTALEZA           60140-00CE082016032017000017100032017000017100102016000033480000040000001000017100000000000032017000017100000000000000000000000000000
12200G09269369000179PRIME HIGIENE E LIMPEZA LTDA ME         RUA QUISSAMA, 1931            PETROPOLIS          25615-53RJ092016032017000001205022017000008439000000000000000000030000000000002850000000000032017000001205000000000000000000000000000
12200108983747000007RODRIGO DE OLIVEIRA LIMA                TRAVESSA TRAVESSA ANA LUCIA DEPARAIBA DO SUL      25850-00RJ092016042017000000002022017000000020000000000000000000000000000000000005000000003032017000000009000000003000000000000000000
12200G11145401000156LA DALLA PORTA JUNIOR                   RUA PASCOAL GOMES LIBERATTO, 2SANTA MARIA         97065-29RS092016012017000100300012017000100300012017000100300000020000000000040120000040120032017000000000000020060000020060000000000
12200089852907000070CLAUDIA  PATRICIA FERREIRA PINHEIRO     RUA BERNADINO FRANCO, 275     PARAIBA DO SUL      25780-00RJ102016032017000000015102016000000045000000000000000000000000000000000015000000015032017000000030000000000000000015000000000
12200G16707024000115MEDMAR MATERIAIS MEDICO HOSPITALAR E    AVENIDA ZUMBI DOS PALMARES, 16MARICA              24936-53RJ102016032017000001054102016000003909112016000007158000004000001000003246000000000032017000003246000000000000000000000000000
12200G18574662000130SILVIO CESAR DE FARIA - ME              RUA MURIAE, 972               DIVINOPOLIS         35501-25MG102016102016000003013102016000003013102016000003013000000000002000000994000000994032017000000000000000000000000000000000994
12200G17771867000143DBV COMERCIO DE MATERIAL HOSPITALAR     ESTRADA DO ENGENHO DAGUA, 1330RIO DE JANEIRO      22765-24RJ112016032017000048228032017000048228032017000086196000022000001000075574000000000032017000048228000000000000000000000000000
12200G21473588000170MULTMED - EQUIPAMENTOS,MEDICAMENTOS     RUA ALPIDES BATISTA NERES, 511SAO CRISTOVAO       49100-00SE112016032017000003600122016000003600012017000004095000010000002000003600000000000032017000003600000000000000000000000000000
12200G10822357000109CONTRAPROVA ANALISE ENSINO E PESQUIS    AVENIDA ALM. ARY PARREIRAS, 67NITEROI             24230-32RJ112016042017000001200112016000002100112016000002100000003000001000001794000000000032017000000000000000000000000000000000000
12200G41758202000184CIRURGICA UBERLANDIA COMERCIO DE ART    RUA CARMO GIFONI, 222         UBERLANDIA          38400-35MG112016022017000000840112016000002522112016000003018000050000001000000990000000000032017000000000000000000000000000000000000
12200G05234475000166HIFARMA COMERCIO E REPRES. LTDA         RUA CARLOS VASCONCELOS, 1419  FORTALEZA           60115-17CE112016042017000006960112016000011800112016000011800000020000000000016240000000000032017000016240000000000000000000000000000
12200G11920636000178DIVINOPOLIS COMERCIO DE MEDICAMENTOS    RUA JOSE GABRIEL MEDEF, 81    DIVINOPOLIS         35502-56MG122016032017000017700122016000037200122016000037200000040000001000034800000000000032017000034800000000000000000000000000000
12200G11411491000180HOSPMED COMERCIO LTDA EPP               TRAVESSA TV WE-20, 452        ANANINDEUA          67130-30PA122016032017000000912022017000012768122016000009600000056000001000004514000000000032017000000912000000000000000000000000000
12200G05565200000105COUPLING COMERCIO E REPRESENTACAO DE    RUA CEL MOREIRA CESAR, 229    NITEROI             24230-05RJ122016032017000000395122016000003278000000000000000000000000000000003294000000000032017000003294000000000000000000000000000
12200G00301048000130DISOMED - DISTRIBUIDORA OESTE DE MED    AVENIDA MAIA, 887             BARREIRAS           47810-81BA122016032017000007200122016000024800122016000024800000050000001000012744000004824032017000007200000002376000002448000000000
12200G33444761000191MYLLA CATEDRAL REPRESENTA«’ES E DIST    QUADRA 401 CONJUNTO 15 LOTE 08BRASILIA            72630-11DF122016012017000006180122016000006180012017000012360000000000008000006180000006180032017000000000000000000000000000000006180
12200G07524061000105MEDICAL PRODUTOS MEDICOS HOSPITALARE    RUA AVENIDA CONSELHEIRO ELIEL RIACHAO DO JACUIPE  44640-00BA122016032017000006032022017000018096122016000024000000025000006000017516000009860032017000006032000007656000002204000000000
12200G45453214002448PROFARMA DISTRIBUIDORA DE PRODUTOS F    RUA 18 ESQUINA COM AVENIDA EIXAPARECIDA DE GOIANIA74985-16GO122016032017000015035122016000030244012017000034631000000000000000015035000000000032017000015035000000000000000000000000000
12200G21752699000116BRASILSEG ATACADISTA DE EQUIPAMENTOS    RUA CUBA, 211                 RIO DE JANEIRO      21020-16RJ122016042017000001770012017000003068022017000008992000000000002000004956000000000032017000003186000000000000000000000000000
12200G21620349000104COLIN COMERCIO E REPRESENTACOES LTDA    RUA ESTORIL, 1365             BELO HORIZONTE      31255-19MG012017032017000003068012017000006000022017000012000000020000001000003068000000000032017000003068000000000000000000000000000
12200G23837936000177G1 DISTRIBUIDORA DE PRODUTOS FARMACE    RUA RIACHO DAS ALMAS, 770     JABOATAO DOS GUARARA54368-27PE012017022017000005750022017000005750012017000004600000000000000000001917000000000032017000000000000000000000000000000000000
12200G059936980001071000MEDIC DISTRIBUIDORA IMPORT EXPOR    RUA LIDIO OLTRAMARI, 1796     PATO BRANCO         85503-38PR012017032017000014220032017000014220012017000005220000384000003000014220000000000032017000014220000000000000000000000000000
12200G09312074000138NBFARMA DISTRIBUIDORA DE PRODUTOS FA    RUA MANOEL VITORINO, 162      GUANAMBI            46430-00BA012017032017000001800012017000017850012017000017850000039000006000009600000000000032017000009600000000000000000000000000000
12200G01321974000482DISTRIBUIDORA GAMA LTDA                 RUA LUCIANO SATHLER, 111      SERRA               29175-70ES012017022017000000270012017000028080000000000000000000000000000000000090000000000032017000000000000000000000000000000000000
12200G03935967000153MEDFASP SERVICOS & COMERCIO LTDA - E    RUA QUADRANGULAR, S/N         CAMACARI            42800-97BA012017032017000012760012017000015080012017000015080000015000001000012760000000000032017000012760000000000000000000000000000
12200G17217364000120MGMED PRODUTOS HOSPITALARES EIRELI      RUA GOVERNADOR VALADARES, 585 EXTREMA             37640-00MG022017032017000022500022017000052537000000000000000000075000000000035634000011250032017000022500000005625000005625000000000
12200G09204127000105POLLO HOSPITALAR LTDA EPP               RUA GOVERNADOR NEY BRAGA, 4335UMUARAMA            87501-33PR022017022017000006960022017000006960000000000000000000140000000000002296000000000032017000000000000000000000000000000000000
12200G96845896000189COMPRATES COMERCIAL FARMACEUTICA E H    RUA OPALA, 300                EUNAPOLIS           45825-57BA022017032017000011600022017000033640000000000000000000060000000000022701000007772032017000011600000003828000003944000000000
12200G05301431000101DISTRIBUIDORA DE MEDICAMENTOS BRASIL    AVENIDA PARQUE, 240           JOAO PESSOA         58082-03PB022017042017000000020022017000009660000000000000000000500000000000006540000000570032017000002280000000570000000000000000000
12200G12338563000173SOLUCAO LABORATORIO DE ANALISES CLIN    AVENIDA VEREADOR ABRAAO JOAO FITAJAI              88307-30SC022017032017000006147022017000006147022017000006147000100000003000007684000000000032017000006147000000000000000000000000000
12200G07783386000102CASA DO DOUTOR PRODUTOS HOSPITALARES    AVENIDA SAO PAULO, 537        TEIXEIRA DE FREITAS 45990-36BA022017032017000003452032017000003452022017000003016000000000000000003452000000000032017000003452000000000000000000000000000
12200G17227485000153L G PRODUTOS HOSPITALARES LTDA ME       RUA JOAO QUIRINO, 588         CAMPINA GRANDE      58410-37PB022017032017000006960032017000006960000000000000000000013000000000005800000000000032017000006960000000000000000000000000000
12200G14433455000105SOLMEDI COMERCIO DE MATERIAL MEDICO     AVENIDA LIONS CLUB, 386       JEQUIE              45208-44BA022017032017000002530032017000002530000000000000000000010000000000003036000001518032017000002530000001518000000000000000000
12200G06224321000156DEPOSITO GERAL DE SUPRIMENTOS HOSPIT    RODOVIA BR-408, S/N           CARPINA             55819-32PE022017022017000034500022017000034500022017000034500000500000000000020700000000000032017000000000000000000000000000000000000
12200G03434444000123FORMED COMERCIO DE PRODUTOS HOSPITAL    RUA AYMORE, 560               BARREIRAS           47806-09BA032017032017000006000032017000006000000000000000000000050000000000006000000000000032017000006000000000000000000000000000000
12200G32271496000124RX BANDEIRANTES SERVICOS RADIOLOGICO    AVENIDA NELSON CARDOSO, 1149  RIO DE JANEIRO      22730-00RJ032017032017000002044032017000002044032017000002044000015000000000001022000000000032017000002044000000000000000000000000000
12200G09228091000191DENTAL S SEBASTIAO LTDA ME              AVENIDA RUI BARBOSA, 2370     FORTALEZA           60115-22CE032017032017000022800032017000045600000000000000000000120000000000068400000000000032017000068400000000000000000000000000000
12200G00145361000126DENTAL FLUOR PRODUTOS ODONTOLOGICOS     AVENIDA DAS AMERICAS, 3939    RIO DE JANEIRO      22631-00RJ032017032017000002580032017000002580000000000000000000010000000000002580000000000032017000002580000000000000000000000000000
12200G10596721000160MIRANDA & GEORGINI LTDA                 RUA GESY FONSECA, 839         BELA VISTA DO PARAIS86130-00PR032017042017000034500042017000034500000000000000000000060000000000034500000000000032017000000000000000000000000000000000000
12200G03296379000117COMED PRODUTOS MEDICOS HOSPITALAR LT    RUA PAULINA MARIA MENDON«A, 80MACEIO              57035-55AL032017032017000007500032017000042700000000000000000000058000000000050200000000000032017000050200000000000000000000000000000
12200G05847630000110DIMACI SP MATERIAL CIRURGICO LTDA       AVENIDA SENADOR FL¡QUER, 869  SAO BERNARDO DO CAMP09725-44SP032017042017000088000042017000132000000000000000000001000000000000220000000000000032017000000000000000000000000000000000000
