ITP00109000001012100920256114228700018959104422005704        00010032TOWER AUTOMOTIVE                                           
PE1011PRG-F-09 101210               M     10440025                                              OP200015    011             KG0P
PE210100807730 0   1010080000016910000000006203300000000062033000000000000000           011    0000  2                000       
PE310120600000004000101209000000040001012100000000000010121100000000000101212000000000001012130000000000010121300000004000      
PE310121400000000000101215000000000001012150000000400010121600000000000101217000000000001012180000000000010121900000000000      
PE310122000000000000101221000000000001012220000000000010122300000000000101224000000000001012250000000000010122600000000000      
PE310122700000000000101228000000000001012290000000000010123000000000000101231000000000001101010000000000011010200000000000      
PE311010300000000000110104000000000001101050000000000011010600000000000110107000000000001101080000000000011010900000000000      
PE31101100000000000011011700000000000110124000000000001101310000000000011020700000000000                                        
PE1011PRG-F-09 101210               374   809897   R                                            OP200015    011             PC0P
PE210081805848 0   1008180000009000000000000090000000000000900000000000000000           011    0000  2                000       
PE310120600000000010101210000000000001012110000000000010121200000000000101213000000000001012140000000000010121500000000000      
PE310121600000000000101217000000000001012180000000000010121900000000000101220000000000001012210000000000010122200000000000      
PE310122300000000000101224000000000001012250000000000010122600000000000101227000000000001012280000000000010122900000000000      
PE310123000000000000101231000000000001101010000000000011010200000000000110103000000000001101040000000000011010500000000000      
PE311010600000000000110107000000000001101080000000000011010900000000000110110000000000001101170000000000011012400000000000      
PE31101310000000000011020700000000000                                                                                           
