12301G28763118000867A NOSSA DROGARIA DE CAXIAS11            RUA DOS ROMEIROS, 111 A 119 A RIO DE JANEIRO      21070-09RJ112003               022007000006589022005000008018000006900000000000000000000000102016000000000000000000000000000000000000
12311G04562591000141A R RODRIGUEZ & CIA LTDA                AVENIDA JOAQUIM NABUCO, 2235  MANAUS              69020-03AM112003               112014000019878062016000034290000015000254000034290000022861102016000000000000000000000000000000000000
12311G02295257000143A GARCIA DA SILVA COMERCIO              AV JOAQUIM PEREIRA DE QUEIROZ,BENEVIDES           68795-00PA112003               000000000000000000000000000000000005211000000000000000000000102016000000000000000000000000000000000000
12311G04995731000175A B MARCHETTI DISTR DE MAT HOSP LTDA    RUA DR PEDRO SAULO, 270  LJ 01MIGUEL PEREIRA      26900-00RJ112003               092004000002344052004000004256000010007000000003934000003934102016000000000000000000000000000000000000
12311G80392566000145AABA COM EQUIPAMENTOS MEDICOS LTDA      AVENIDA SILVA JARDIM, 747     CURITIBA            80230-00PR112003               122004000007800122004000010740000005004000000002940000002940102016000000000000000000000000000000000000
12312G60659463000191ACHE LABORATORIOS FARMACEUTICOS S/A     RODOVIA PRESIDENTE DUTRA KM 22GUARULHOS           03573-01SP112003               022004000012240022004000026620000040008000000000000000000000102016000000000000000000000000000000000000
12311G37429628000117ADURRA COM PRODS MED LTDA               AVENIDA ALZIRA SANTANA, 2310  VARZEA GRANDE       78130-00MT112003               032004000004912032004000004912000010005000000000000000000000102016000000000000000000000000000000000000
12399G29267333000163EMPRESA DE TRANSPORTES HB LTDA          ROD PRESIDENTE DUTRA, KM 237  PIRAI               27175-00RJ112003               000000000000000000000000000000000000800000000000000000000000102016000000000000000000000000000000000000
12399G32407538000101NOSSO CARRO                             RUA MAJOR TOFANI, 20          ENGENHEIRO PAULO DE 26650-00RJ112003               000000000000000000000000000000005000000000000000000000000000102016000000000000000000000000000000000000
12311G04195058000199ADVANCED FARMA LTDA - ME                RUA MARIO ESTEVES, 334  LJ 2  NITEROI             24050-29RJ112003               000000000000000000000000000000000001010000000000000000000000102016000000000000000000000000000000000000
12399G50935436001708EXPRESSO JUNDIAI                        AV DR TACITO VIANNA RODRIGUES,RESENDE             27536-00RJ112003               000000000000000000000000000000000000000000000000000000000000102016000000000000000000000000000000000000
12399G02671195001018FASTER ROAD EXPRESS LTDA                ROD WASHINGTON LUIS, 2569     DUQUE DE CAXIAS     25025-00RJ112003               000000000000000000000000000000000000800000000000000000000000102016000000000000000000000000000000000000
12311G01494983000122AKIMED COMERCIO E REPRESENTACAO         ESTR FRANCISCO DA CRUZ NUNES, NITEROI             24310-40RJ112003               042006000004374102004000008026000000000000000000000000000000102016000000000000000000000000000000000000
12399G03019447000605BRASEX TRANSPORTES LTDA                 RODOVIA WASHINGTON LUIS, 2569 DUQUE DE CAXIAS     25025-00RJ112003               000000000000000000000000000000000000800000000000000000000000102016000000000000000000000000000000000000
12399G33271511025949TRANSPORTADORA ITAPEMIRIM S/A           AVENIDA COELHO DA ROCHA, 364  BELFORD ROXO        26130-13RJ112003               000000000000000000000000000000000000800000000000000000000000102016000000000000000000000000000000000000
12399G58506155000427MIRA OTM TRANSPORTES LTDA               RODOVIA WASHINGTON LUIS, 2569 DUQUE DE CAXIAS     25085-00RJ112003               000000000000000000000000000000000000800000000000000000000000102016000000000000000000000000000000000000
12399G25100223008306RODOVIARIO RAMOS LTDA                   ESTR RIO D OURO, 801 BL 02 G 2RIO DE JANEIRO      21535-03RJ112003               000000000000000000000000000000000000800000000000000000000000102016000000000000000000000000000000000000
12301G04021079000198COMPMED COMERCIO REPRESENTACOES LTDA    TRAVESSA RUI BARBOSA, 1981    BELEM               00035-22PA112003               092003000001225092003000004725000007000000000004725000004725102016000000000000000000000000000000000000
12301G04428100000174COMPRAMED COMERCIO DE PROD HOSP LTDA    RUA GUILHERME RAUEM 29        SANTA CECILIA       89540-00SC112003               042006000001800042006000001800000010000000000000000000000000102016000000000000000000000000000000000000
12301G73468449000152CONCORRENTE COM REP MAT HOSP LTDA       RUA DR NILO PECANHA 1062 LJ 02SAO GONCALO         24450-00RJ112003               042005000015200062005000027400000026000000000004066000004066102016000000000000000000000000000000000000
12311G03388128000162CONFEITARIA COLOMBO LTDA                RUA GONCALVES DIAS 32 A 36    RIO DE JANEIRO      20050-03RJ112003               042005000001188042005000001188000000000000000000000000000000102016000000000000000000000000000000000000
12302G29640612000120CONFERENCIA SAO JOSE DO AVAI            RUA CORONEL LUIS FERRAZ 397   ITAPERUNA           28300-00RJ112003               032005000001600042005000003200000001000000000000000000000000102016000000000000000000000000000000000000
12303G37094588000108CONTRAST COM IMP EXP E REPRES. LTDA     AV SIRIPIRUNA 20 GALPAO II SL TAGUATINGA          72030-10DF112003               102004000075788102004000111958000010001000000001656000001656102016000000000000000000000000000000000000
12302G17213703000443COOPERATIVA EDIT DE CULTURA MEDICA      AV PROFESSOR ALFREDO RALENA, 1BELO HORIZONTE      30130-10MG112003               062004000001012062004000001012000002000000000000000000000000102016000000000000000000000000000000000000
12301G89774160000525COOP REGIONAL AGROP LANGUIRU LTDA       RUA ARTHUR PILZ 208           TEUTONIA            95890-00RS112003               000000000000000000000000000000000002000000000000000000000000102016000000000000000000000000000000000000
12301G65825689000139COOPERMED CIRURGICA LTDA                RUA GALILEU GALILEI 73        RIBEIRAO PRETO      14020-62SP112003               092004000004000062005000010720000005000000000000000000000000102016000000000000000000000000000000000000
12311G00950045000127CPM COM REP PRODS MEDS HOSP LTDA        RUA DES MILTON FIGUEIREDO MENDCUIABA              78070-01MT112003               052004000001593052004000001593000000000000000000000000000000102016000000000000000000000000000000000000
12311G32734295000116CRISFARMA COM REP PRODS FARMACOS        AVENIDA SIMEAO SOBRAL, 359    ARACAJU             49065-77SE112003               042005000007500042005000014310000000000000000000930000000930102016000000000000000000000000000000000000
12398G01372107000123CREPBOR ARTEFATOS DE BORRACHA LTDA      RUA ERICO VERISSIMO, 1155     FRANCA              14409-50SP112003               102003000007092102003000007092000000000000000007092000007092102016000000000000000000000000000000000000
12311G02335470000131CRISMEDICA COMERCIO LTDA                RUA OSEAR GALVAO 70           SAO LUIS            65010-42MA112003               052004000002600042004000004250000000000000000000000000000000102016000000000000000000000000000000000000
12311G32076382000123CRUZ MATERIAL CIR COMERCIO LTDA         TRAVESSA DR HOLMAN 117        NITEROI             24000-00RJ112003               012005000000840042004000001510000006000000000000000000000000102016000000000000000000000000000000000000
12311G29925799000109CUTELARIA & TABACARIA PONTO DOIS LTD    TRAVESSA RENATO PEDROSA 48/52 NOVA IGUACU         26210-09RJ112003               072004000001428082004000002656000002000000000000000000000000102016000000000000000000000000000000000000
12305G00173618000153D H DAY HOSPITAL S/C                    AV DAS AMERICAS, 4666 GRS 316 RIO DE JANEIRO      22649-90RJ112003               122003000002937122003000002937000000000000000002028000000000102016000000000000000000000000000000000000
12311G58362633000120DAMA COMERCIO E REPRESENTACAO LTDA      RUA ALTO BELO, 921            SAO PAULO           03478-04SP112003               000000000000000000000000000000000000000000000000000000000000102016000000000000000000000000000000000000
12311G95368320000105DAMBRAS MATERIAIS E EQUIP HOSP LTDA     RUA PARANA, 299               PATO BRANCO         85501-09PR112003               000000000000000000000000000000000005000000000000000000000000102016000000000000000000000000000000000000
12312G33051491000663DARROW LABORATORIOS S/A                 RODOVIA BR 040 KM 37 S/N      AREAL               25845-00RJ112003               000000000000000000000000000000000010000000000000000000000000102016000000000000000000000000000000000000
12311G56250533000186DAVOL COMERCIO REPRESENTACAO LTDA       RUA ITAQUERI, 170             SAO PAULO           03178-00SP112003               012004000005058022004000009336000000000000000000000000000000102016000000000000000000000000000000000000
12301G00636892000111ALDMED COM DISTR LTDA                   AVENIDA JOAO PAULO I, 284     SAO PAULO           02738-00SP112003               042003000001536042003000001536000000000000000000000000000000102016000000000000000000000000000000000000
12301G02912577000103DDMA DISTR DE MEDIC ANAPOLIS LTDA       AV SENADOR JOSE LOURENCO DIAS,ANAPOLIS            75023-16GO112003               022005000007400032005000020084000010000000000000000000000000102016000000000000000000000000000000000000
12311G03951140000133DE PAULI COM REP IMP E EXP LTDA         RUA SAO FRANCISCO DO VERMELHO,SAO PAULO           03725-13SP112003               072005000032000072005000075530000000000000000000000000000000102016000000000000000000000000000000000000
12311G40223695000195DELTA X COM REP IMPO E SERV LTDA        RUA CAPITAO FELIX, 110 LJ 18/2RIO DE JANEIRO      20920-31RJ112003               000000000000000000000000000000000050000000000000000000000000102016000000000000000000000000000000000000
12311G02742670000109DEMARC STO ANDRE COM PROD VETERINAR     RUA RIO CLARO, 250            SANTO ANDRE         09230-37SP112003               000000000000000000000000000000000010000000000000000000000000102016000000000000000000000000000000000000
12311G36900926000180DENTAL CENTRO OESTE LTDA                RUA PROF JOAO FELIX, 635      CUIABA              78008-13MT112003               112013000048445032004000016203000000000002000002720000002720102016000000000000000000000000000000000000
12311G02359320000168ALG COM DE MATERIAL HOSPITALAR LTDA     RUA CAP FELIX, 110 GALERIA 4 LRIO DE JANEIRO      20920-31RJ112003               000000000000000000000000000000000016800000000000000000000000102016000000000000000000000000000000000000
12311G05617742000184DENTAL QUEIMADOS LTDA                   RUA APARECIDA, 35 CASA 2      QUEIMADOS           26325-29RJ112003               122003000001200122003000001200000010000000000000000000000000102016000000000000000000000000000000000000
12301G03526176000170DENTMED MATERIAIS MEDICOS E ODONT       AVENIDA RIO BRANCO, 765       ADAMANTINA          17800-00SP112003               072005000003000072005000003000000010000000000000000000000000102016000000000000000000000000000000000000
12310G02898798000166DIAGNOSTICO DIPROL COMERCIAL LTDA       RUA ANA LAURA ALMEIDA MARTINE,SOROCABA            18052-73SP112003               012004000003510012004000003510000006000000000000000000000000102016000000000000000000000000000000000000
12311G19961036000160DIFARMIG LTDA                           RUA TIBIRIÁA,400              BELO HORIZONTE      30455-01MG112003               042014000046000042004000006936000016000000000000000000000000102016000043860000000000000000000000000000
12301G03139217000175ALTERNATO COMERCIO REPRES LTDA          RUA ARLINDO NUNES, 418        ENGENHEIRO PAULO DE 26650-00RJ112003               052004000001258072004000002240000005305000000000000000000000102016000000000000000000000000000000000000
12311G90251109000194DIMACI MATERIAL CIRURGICO LTDA          RUA JOAO GUIMARAES, 182       PORTO ALEGRE        90630-17RS112003               092004000022344092004000039695000020000000000000000000000000102016000000000000000000000000000000000000
12311G82291311000111AMARILDO BASSEGIO E CIA LTDA            RUA SANTO ANTONIO, 151        FRANCISCO BELTRAO   85602-00PR112003               000000000000000000000000000000000020008000000000000000000000102016000000000000000000000000000000000000
12311G47959697000196AMAZONAS PRODUTOS P/ CALCADOS LTDA      AVENIDA RIO BRANCO, 745       FRANCA              14405-90SP112003               000000000000000000000000000000000000000000000000000000000000102016000000000000000000000000000000000000
12311G10339315000111ANA LUISA MEIRELES GOMES                RUA CORONEL CAMPELO, S/N      VIANA               65215-00MA112003               052005000003000052005000003000000000000000000000000000000000102016000000000000000000000000000000000000
12311G05028198000135ANDRE FIGUEIREDO VILAR - EPP            RUA FRANCISCO AUGUSTO NUNES, 2RIBEIRAO PRETO      14092-15SP112003               042004000001500052004000002700000002010000000000000000000000102016000000000000000000000000000000000000
12301G04252118000168ARBC ATACADISTA LTDA.                   EST DO ENGENHO D'¡GUA, 1330 BORIO DE JANEIRO      22765-24RJ112003               112012000015402042015000030882000010007138000025981000025981102016000000000000000000000000000000025981
12311G04914284000182ARTE E LIMPEZA RIO COM DISTR LTDA       RUA ATILIO PARIM, 516         RIO DE JANEIRO      21240-17RJ112003               012004000001806012004000001806000010000000000000000000000000102016000000000000000000000000000000000000
12311G01824528000148ATITUDE FUTURA COMERCIO DE MAT LTDA     RUA DR NILO PECANHA, 229/205  NITEROI             24140-39RJ112003               000000000000000000000000000000000010000000000000000000000000102016000000000000000000000000000000000000
12311G41118886000150ATMA PRODUTOS HOSPITALARES              RUA DAS MANGUEIRAS, 182       CABEDELO            58310-00PB112003               062005000035250082005000078420000010004000000000000000000000102016000000000000000000000000000000000000
12311G42799163000126B H FARMA COMERCIO LTDA                 RUA SIMOES TAMM, 257          BELO HORIZONTE      30130-25MG112003               092004000023500042005000029280000030002000000000000000000000102016000000000000000000000000000000000000
12311G01053174000185BAJUL MATERIAIS CIRURGICOS LTDA         RUA BARATA RIEIRO, 810 LJS B/CRIO DE JANEIRO      22051-00RJ112003               072006000005991072006000010491000000000000000000000000000000102016000000000000000000000000000000000000
12311G02079950000189BARRIER COMERCIO E SERVICOS LTDA        AV P MARTIN LUTHER KING JR, 12RIO DE JANEIRO      20765-12RJ112003               062004000174264072004000719104000000000000000000000000000000102016000000000000000000000000000000000000
12311G00656468000139DIMACI/PR MATERIAL CIRURGICO LTDA       RUA ANITA RIBAS, 410          CURITIBA            82520-61PR122003               052004000146688052004000146688000000000000000000000000000000102016000000000000000000000000000000000000
12311G56081482000106DIMEBRAS COMERCIAL HOSPITALAR LTDA      RUA PAULO DE FRONTIM,25       RIBEIRAO PRETO      14030-43SP122003               022016000026400032016000054380000050000000000000000000000000102016000016510000000000000000000000000000
12301G03678419000195DIMEOESTE DISTR DE MEDICAM OESTE        RUA ALMIRANTE TAMANDARE, 1059 SAO MIGUEL D'OESTE  89900-00SC122003               052005000001260012005000002240000010000000000000000000000000102016000000000000000000000000000000000000
12311G94811510000192DIPHROL COM IMPO EXPO LTDA              RUA MOROW, 2854               PASSO FUNDO         99010-03RS122003               042004000003060042004000004380000006000000000001320000001320102016000000000000000000000000000000000000
12311G44230753000169DIPROFAR COMERCIAL LTDA                 RUA MONSENHOR SIQUEIRA, 380   RIBEIRAO PRETO      14080-17SP122003               000000000000000000000000000000000010000000000000000000000000102016000000000000000000000000000000000000
12311G04216957000120DISK MED PADUA DISTR DE MED LTDA        ROD PIRAPETINGA PADUA, KM 01  SANTO ANTONIO DE PAD28470-00RJ122003               032014000014280032005000021760000010000932000000000000000000102016000000000000000000000000000000000000
12311G05050520000122DISMEDICA COM E REPR SERVICOS LTDA      TRAVESSA N SRA DOS OPERARIOS, CUIABA              78005-45MT122003               032005000009431052005000013902000005000000000009831000009831102016000000000000000000000000000000000000
12301G88948880000173DISTRIBUIDORA FARMACA VECENTIN LTDA     RUA GERMANIA, 332             CANOAS              92320-00RS122003               042004000011700042004000011700000006500000000000000000000000102016000000000000000000000000000000000000
12301G78712643000155DISTRIB DE MEDICAMENT BEVILAQUA LTDA    RUA SALGADO FILHO, 3252       CASCAVEL            85802-15PR122003               022004000001530000000000000000000015000000000000000000000000102016000000000000000000000000000000000000
12301G37189503000167DISTRIBUIDORA DL LTDA                   RUA SARGENTO HERCULES S CAMPOSCAMPO GRANDE        79117-24MS122003               112004000002838022005000003527000010000000000000000000000000102016000000000000000000000000000000000000
12311G01321974000130DISTRIBUIDORA GAMA LTDA                 RODOVIA BR-381 FERN√O DIAS,35 BETIM               32689-89MG122003               072016000054336082016000097536000000000004000020250000000000102016000020250000000000000000000000000000
12311G02421679000118DIVIMED COMERCIO DE PROD HOSP LTDA      ESTRADA VELHA DA MURICOSA, 09 SALVADOR            41250-42BA122003               062015000084000102015000115446000010000001000000000000000000102016000000000000000000000000000000000000
12311G12728929000110DJ COMERCIO E REPRESENTACOES LTDA       RUA RANGEL TRAVASSO, 1251     JOAO PESSOA         58070-12PB122003               022004000001410022004000001410000006000000000000000000000000102016000000000000000000000000000000000000
12311G05044056000161DMH PRODUTOS HOSPITALARES LTDA          RUA DR LUIZ CORREA DE  OLIVEIRRECIFE              51030-00PE122003               022016000005616022016000006240000000000000000006240000000000102016000000000000000000000000000000000000
12311G33360314000154DROGARIA ITAOCARA DO CARMO LTDA         AV VICENTE DE CARVALHO, 1604 LRIO DE JANEIRO      21210-00RJ122003               102004000004608102004000005392000000000000000000000000000000102016000000000000000000000000000000000000
12311G30273270000137DROGARIA VENANCIO LTDA                  PRACA SAES PENA, 31           RIO DE JANEIRO      20520-00RJ122003               092005000000040092005000000040000002000000000000000000000000102016000000000000000000000000000000000000
12311G42225938000150DROGASMIL MEDICAMENTOS E PERF LTDA      RUA JOAO MACHADO, 121         RIO DE JANEIRO      21361-49RJ122003               022004000003480012004000004047000003000000000000180000000180102016000000000000000000000000000000000000
12311G68134477000101DRUG MED COM DE MATERIAL HOSPITALAR     RUA IVAI, 43                  SAO PAULO           03080-01SP122003               122005000220837052006000667536000050100000000116868000000000102016000000000000000000000000000000000000
12311G04027894000164DUPATRI HOSPITALAR COMERCIO LTDA        RUA SAO PAULO, 31             SANTOS              11075-33SP122003               052005000015000012005000028429000010000000000000000000000000102016000000000000000000000000000000000000
12311G85396182000114ECO COMERCIO REPRES PROD HOSP LTDA      RUA LA-SALLE 729              XANXERE             89820-00SC122003               000000000000000000000000000000000010000000000000000000000000102016000000000000000000000000000000000000
12311G05166487000109EDNER PLACERES DE CARVALHO & CIA        RUA BOTELHO DE ABREU SAMPAIO 8SAO CARLOS          13561-06SP122003               000000000000000000000000000000000010000000000000000000000000102016000000000000000000000000000000000000
12311G60383338000100EMBRAMED INDUSTRIA E COMERCIO LTDA      RUA AGOSTINHO TOGNERI, 399    SAO PAULO           04690-09SP122003               042004000049490072006000109223000010000000000000000000000000102016000000000000000000000000000000000000
12304G45789724000285EMBRARAD EMP BRAS DE RADIACOES LTDA     AVENIDA CRUZADA BANDEIRANTES 2COTIA               06700-00SP122003               092004000001000092004000001000090000000000000000000000000000102016000000000000000000000000000000000000
12311G54551015000177ENIESSE REPRESENTACOES E COM LTDA       RUA FLORINDA MARTINS BARBOSA 2GUARULHOS           07076-10SP122003               032004000001815032004000001815000010000000000000000000000000102016000000000000000000000000000000000000
12310G29435005000552ESHO EMPRESA DE SERVICOS HOSP LTDA      RUA FARME DE AMOEDO, 86       RIO DE JANEIRO      22420-02RJ122003               122003000003200122003000003200000010000000000000000000000000102016000000000000000000000000000000000000
12311G01647385000146FAMED PRODUTOS MEDIC HOSPITALAR LTDA    AV 1. RADIAL, 805             GOIANIA             74820-30GO122003               092004000006110092004000007658000022000000000000000000000000102016000000000000000000000000000000000000
12311G05364553000147FARMALAB COMERCIO DE MAT MED HOSP       AVENIDA ASSIS BRASIL 3316/501 PORTO ALEGRE        91010-00RS122003               052004000000864052004000000864000004000000000000000000000000102016000000000000000000000000000000000000
12311G74461229000160FARMASHOP VOTUPORANGA COMERCIAL LTDA    RUA JOAQUIM F. COSTA, 628     VOTUPORANGA         15505-13SP122003               112004000008136042005000013039000010000000000006744000000000102016000000000000000000000000000000000000
12311G33349473000310FARMOQUIMICA S/A                        RUA VIUVA CLAUDIO,300         RIO DE JANEIRO      20970-03RJ122003               072015000013600072015000013600000007000000000000000000000000102016000000000000000000000000000000000000
12311G00669315000126FAXFARMA COMERCIO LTDA                  RUA DOIS DE FEVEREIRO 33      RIO DE JANEIRO      20730-45RJ122003               022004000005300122003000010400000000000000000001749000001749102016000000000000000000000000000000000000
12311G03606635000125FLEX HOSPITALAR LTDA                    RUA DOM BOSCO 14              ARACAJU             49055-73SE122003               012005000019200062005000030080000020000000000000000000000000102016000000000000000000000000000000000000
12305G30499826000108FMG-EMPREENDIMENTOS HOSPITALAR LTDA     RUA FIGUEIREDO MAGALHAES, 875 RIO DE JANEIRO      22031-01RJ122003               032004000007284032004000028724000028800000000000000000000000102016000000000000000000000000000000000000
12311G03246587000101FRANKLIN ARAUJO PEREIRA DE LUCENA       AVENIDA ALMEIDA BARRETO, 245  JOAO PESSOA         58013-46PB122003               012005000003005042004000003554000004000000000000000000000000102016000000000000000000000000000000000000
12302G04966545000108BENEFICIENCIA NIPO BRASIL/AMAZONIA      TRAVESSA 9 DE JANEIRO, 1267   BELEM               66060-37PA122003               000000000000000000000000000000000002011000000000000000000000102016000000000000000000000000000000000000
12311G63424121000180BENTES & SOUSA LTDA                     RUA PAULO DE FRONTIN,217      SAO LUIS            65031-36MA122003               022004000002820022004000002820000020000000000000000000000000102016000000000000000000000000000000000000
12311G49324221000104FRESENIUS KABI BRASIL LTDA              RUA FRANCISCO PEREIRA COUTINHOCAMPINAS            13088-10SP122003               122003000002300000000000000000000010000000000000000000000000102016000000000000000000000000000000000000
12311G93305910000163FUFAMED COM IMPO MED HOSP LTDA          RUA SAO NICOLAU 1080          PORTO ALEGRE        91030-23RS122003               112004000027600122004000058300000010000000000000000000000000102016000000000000000000000000000000000000
12311G32872368000136BETH MED PRODS MED E HOSPITALAR LTDA    RUA RIO GRANDE DO SUL, 823    ARACAJU             49075-51SE122003               082004000012250082004000022450000010008000000000000000000000102016000000000000000000000000000000000000
12302G32190092000106FUND EDUCACIONAL SERRA DOS ORGAOS       AVENIDA ALBERTO TORRES, 111   TERESOPOLIS         25964-00RJ122003               000000000000000000000000000000000009000000000000000000000000102016000000000000000000000000000000000000
12302G17214149000176FUNDACAO FELICIO ROSSO                  AVENIDA DO CONTORNO, 9530     BELO HORIZONTE      30110-90MG122003               012004000020400012004000020400000018500000000000000000000000102016000000000000000000000000000000000000
12311G02902707000119BIO SAM LTDA                            AVENIDA BERNARDO MONTEIRO, 433BELO HORIZONTE      30150-28MG122003               012004000008320012004000008320000008002000000000000000000000102016000000000000000000000000000000000000
12310G20294088000109BIOCOR/HOSP DOENCAS CARDIOVASC LTDA     RUA DA PAISAGEM, 280          NOVA LIMA           34000-00MG122003               000000000000000000000000000000000069004000000000000000000000102016000000000000000000000000000000000000
12301G32410037000184FUNDACAO EDUCACIONAL SEVERINO SOMBRA    PRACA MARTINHO NOBREGA 40     VASSOURAS           27700-00RJ122003               000000000000000000000000000000000010000000000000000000000000102016000000000000000000000000000000000000
12311G87651345000193G GOTUZZO & CIA LTDA                    RUA ANCHIETA 1511             PELOTAS             96015-42RS122003               052004000001359052004000001359000030000000000000000000000000102016000000000000000000000000000000000000
12311G02649956000144BIODENTE MATERIAIS ODONTONTOLOG LTDA    RUA FLORIANOPOLIS, 251 E      CHAPECO             69812-12SC122003               000000000000000000000000000000000005003000000000000000000000102016000000000000000000000000000000000000
12311G01288546000152BIOFICINAL IND PRODS FARMACEUT LTDA     AVENIDA EUGENIO BORGES, 915   SAO GONCALO         24751-00RJ122003               072004000011700082004000019256000000000000000000000000000000102016000000000000000000000000000000000000
12312G33040635000171BIOMERIEUX BRASIL S/A                   ESTRADA MAPUA,491             RIO DE JANEIRO      22713-32RJ122003               112015000012460112015000023674000060000004000016376000000000102016000000000000000000000000000000000000
12301G32561144000456BISTURI DISTR MAT HOSPITALAR LTDA       RUA CORONEL MOREIRA CESAR, 21 SAO GONCALO         24440-40RJ122003               032014000042785072015000064457000030009000000012191000000000102016000003395000000000000000000000000000
12311G03329698000181G C L DA SILVA E CIA LTDA               TRAVESSA ROSA VERMELHA, 529   ANANINDEUA          67010-32PA122003               022004000009312022004000010089000010000000000000000000000000102016000000000000000000000000000000000000
12311G00662640000167G WECKWERTH & WECKWRTH LTDA             RUA VALDEMAR GONM, 498        CASCAVEL            85817-25PR122003               012004000002211012004000002211000000000000000000000000000000102016000000000000000000000000000000000000
12399G29267333000163EMPR TRANSP HB/ACEVILLE TRANSP LTDA     RODOVIA PRESIDENTE DUTRA, KM 2PIRAI               27700-  RJ122003               000000000000000000000000000000000000800000000000000000000000102016000000000000000000000000000000000000
12399G27436302003421AGUIA BRANCA CARGAS LTDA                RUA MARIA SOARES SENDAS, 205  RIO DE JANEIRO      25565-35RJ122003               000000000000000000000000000000000000800000000000000000000000102016000000000000000000000000000000000000
12399G46435293003580ANDORINHA TRANSPORTADORA LTDA           RUA LUIS FERREIRO, 246        RIO DE JANEIRO      21042-21RJ122003               000000000000000000000000000000000000000000000000000000000000102016000000000000000000000000000000000000
12399G23929979000425COMPANHIA ATUAL DE TRANSPORTES LTDA     ESTRADA ENGENHO DA PEDRA, 944 RIO DE JANEIRO      21030-03RJ122003               000000000000000000000000000000000000800000000000000000000000102016000000000000000000000000000000000000
12399G01744885000520ECLIPSE TRANSPORTES LTDA                RUA DA PROCLAMAO, 788         RIO DE JANEIRO      21040-28RJ122003               000000000000000000000000000000000000000000000000000000000000102016000000000000000000000000000000000000
12399G29267333000163EMPR TRANSP HB/ ENTRAM EMPR TRANSP L    RODOVIA PRESIDENTE DUTRA, KM 2PIRAI                       RJ122003               000000000000000000000000000000000000800000000000000000000000102016000000000000000000000000000000000000
12399G95591723009507EXPRESSO MERCURIO S/A                   RODOVIA PRESIDENTE DUTRA, KM 2BARRA MANSA         27355-64RJ122003               000000000000000000000000000000000000000000000000000000000000102016000000000000000000000000000000000000
12399G29267333000163EMPR TRANSP HB/ EXPRESSO GARDENIA LT    RODOVIA PRESIDENTE DUTRA, KM 2PIRAI                       RJ122003               000000000000000000000000000000000000800000000000000000000000102016000000000000000000000000000000000000
12399G29267333000163EMPR TRANSP HB / ROCHALER TRANSP LTD    RODOVIA PRESIDENTE DUTRA, KM 2PIRAI                       RJ122003               000000000000000000000000000000000000000000000000000000000000102016000000000000000000000000000000000000
12399G00260413000296TRANSPORTADORA PONTUAL LTDA             RUA LUIS CAMARA, 114 - LOJA E RIO DE JANEIRO      21031-17RJ122003               000000000000000000000000000000000000001000000000000000000000102016000000000000000000000000000000000000
12311G04233195000170GAMAMED COMERCIO MATERIAL HOSP LTDA     RUA FRANCISCO DUTRA,157       NITEROI             24220-15RJ122003               012004000006240012004000013074000040000000000000000000000000102016000000000000000000000000000000000000
12311G04436976000162GAN RIO APOIO NUTRICIONAL LTDA          RUA VIEIRA BUENO 33           RIO DE JANEIRO      20920-39RJ122003               012006000002800012006000004000000010001000000000000000000000102016000000000000000000000000000000000000
12311G89735070000100GAUCHAFARMA MEDICAMENTOS LTDA           RUA GAL SALVADOR PINHEIRO 917 PORTO ALEGRE        91320-24RS122003               072004000023400072004000046556000010001000000003790000000000102016000000000000000000000000000000000000
12310G03490958000104GESTHO GESTAO HOSPITALAR S/A            AVENIDA ANTONIO CARLOS 1694   BELO HORIZONTE      31210-01MG122003               112003000001776012004000003256000010001000000000000000000000102016000000000000000000000000000000000000
12311G63503007000146GIRAO E SAMPAIO LTDA                    AVENIDA MIGUEL ROSA, 3755     TERESINA            64001-49PI122003               062005000002572062006000004160000000800000000000000000000000102016000000000000000000000000000000000000
12311G00637825000111GLOBOMED COMERCIAL LTDA                 RUA ALENCAR ARARIPE 574/578   SAO PAULO           04253-00SP122003               032004000003264032004000003264000000000000000000000000000000102016000000000000000000000000000000000000
12311G15479439000116GRANDE LOJA MACONICA DO ESTADO DO MS    RUA DO SUCRE 275              CAMPO GRANDE        79051-90MS122003               042005000000800042005000000800000000800000000000000000000000102016000000000000000000000000000000000000
12311G04499664000106GUIDAO LIMP COM E SERVICOS LTDA         AVENIDA PIAM, 18 SL 02        BELFORD ROXO        26115-22RJ122003               000000000000000000000000000000000000800000000000000000000000102016000000000000000000000000000000000000
12301G00285753000433HARMEN DIST DE PRODUTOS HOSP LTDA       PRACA SAENS PENA, 33          RIO DE JANEIRO      20520-09RJ122003               122003000001571122003000001571000010003000000000000000000000102016000000000000000000000000000000000000
12311G03375328000180HD DA SILVA ME                          RUA RIO GRANDE DO SUL, 125    PRESIDENTE PRUDENTE 19030-13SP122003               000000000000000000000000000000000000000000000000000000000000102016000000000000000000000000000000000000
12311G05213626000108HELEMED 2000 COMERCIAL LTDA             RUA FRANCISCO PORTELA 2463 SL SAO GONCALO         24470-00RJ122003               072003000004880112003000007196000000800000000006416000006416102016000000000000000000000000000000000000
12311G62248067000105HOME CARE MEDICAL LTDA                  RUA PANAMBI 615               GUARULHOS           07224-13SP122003               012004000069300012004000209748000010000000000033284000017912102016000000000000000000000000000000000000
12301G00789328000139HORAFARMA DIST DE PRODS HOSP E FARM     RUA ALMEIDA BARRETO, 236      CAMPINA GRANDE      58107-63PB122003               092003000001782032005000001947000000000000000000391000000391102016000000000000000000000000000000000000
12305G27781293000148HOSPITAL DAS CLINICAS DE NITEROI        RUA LA SALE, 12               NITEROI             24020-09RJ122003               122003000020931012004000041863000000800000000000000000000000102016000000000000000000000000000000000000
12301G26921908000121HOSPFAR IND COM PRODS HOSP S.A          RUA 03, 975 QD 11 578         GOIANIA             74620-38GO122003               082013000255000092015000890042000550000000000000000000000000102016000000000000000000000000033000000074
12302G30486369000117HOSPITAL DE CLINICAS BANGU LTDA         RUA FRANCISCO REAL, 752       RIO DE JANEIRO      21810-04RJ122003               042014000003800122003000004545000000800488000000870000000870102016000000000000000000000000000000000000
12311G83646307000191C J A PARENTE                           TRAVESSA PIRAJA, 578          BELEM               66087-49PA122003               052004000005100052004000005100000000000000000000000000000000102016000000000000000000000000000000000000
12310G31129141000132CASA DE SAUDE E MAT SAO LUCAS LTDA      RUA DOS EXPEDICIONARIOS, 144  PETROPOLIS          25660-29RJ122003               000000000000000000000000000000000000800000000000000000000000102016000000000000000000000000000000000000
12305G04090612000173HOSPITAL DE IRAJA QUATRO AMIGOS LTDA    RUA PEREIRA DE ARAUJO 44      RIO DE JANEIRO      21235-09RJ122003               122003000000950122003000000950000007009000000000000000000000102016000000000000000000000000000000000000
12305G60678604000113HOSPITAL E MATER SANTA JOANA S/A        RUA DR EDUARDO AMARO 157      SAO PAULO           04104-08SP122003               000000000000000000000000000000000010000000000000000000000000102016000000000000000000000000000000000000
12305G16676520000159HOSPITAL MATER DEI S/A                  RUA GONCALVES DIAS 2700       BELO HORIZONTE      30140-09MG122003               092004000011200092004000017100000013000000000000000000000000102016000000000000000000000000000000000000
12305G00025841000153HOSPITAL SANTA LUCIA S/A                SHLS SUL QD 716 CONJ C        BRASILIA            70390-70DF122003               122005000003040122005000003040000000000000000000000000000000102016000000000000000000000000000000000000
12311G82338435000105HOSPITALAB COM DE MAT HOSP LTDA         AVENIDA CARLOS GOMES, 479     MARINGA             87015-20PR122003               082004000004500042006000008100000000000000000000000000000000102016000000000000000000000000000000000000
12311G01476334000107HOSPITALIA PRODUTOS PARA SAUDE LTDA     SHC/SUL QD 302 A BLOCO C LJ 33BRASILIA            70338-53DF122003               000000000000000000000000000000000000000000000000000000000000102016000000000000000000000000000000000000
12311G14549513000160HOSPMED COM E REPR MAT MED HOSP         RUA FRANCISCO FERRARO 29-31   SALVADOR            40050-02BA122003               032004000002000032004000002000000000800000000000000000000000102016000000000000000000000000000000000000
12311G57920837000176HOSPYCENTER COM MAT CIRUR HOSPITALAR    RUA DR ASSIS RIBEIRO, 1580    SAO PAULO           03717-00SP122003               022004000007200022004000010442000014001000000000000000000000102016000000000000000000000000000000000000
12311G37642097000146I M PRODUTOS MEDICOS HOSPITALARES       RUA BALBINO DAMACENO 1A LJ, 42ANAPOLIS            75001-97GO122003               012005000011200072004000017758000000000000000000000000000000102016000000000000000000000000000000000000
12311G28817500000130IMG MATERIAL DE PERFUMARIA E ASSESSO    RUA RUA RAIMUNDO DOS SANTOS, SSEROPEDICA          23898-01RJ122003               062016000003490092015000008032000010006005000003833000000000102016000003826000000000000000000000000000
12311G02445830000158ICARAI MATERIAL HOSPITALAR LTDA         RUA GENERAL PERFIRA DA SILVA 1NITEROI             24220-03RJ122003               052003000000720052003000001440000000000000000001008000001008102016000000000000000000000000000000000000
12398G33060740000172MANTECORP IND. QUIM E FARM. LTDA        ESTRADA DOS BANDEIRANTES, 3091RIO DE JANEIRO      22775-11RJ122003               112005000005400112005000010125000000000000000000000000000000102016000000000000000000000000000000000000
12398G92927094000167INDUSTRIA FARMACEUTICA TEXON LTDA       RUA JOSE GARIBALDI, 1230      VIAMAO              94410-10RS122003               092004000005400012004000007214000003305000000000000000000000102016000000000000000000000000000000000000
12302G60194990000844INST PEQUENAS MISS MARIA IMACULADA      AV RAJA GARAGLIA 1002         BELO HORIZONTE      30380-00MG122003               022003000002480022003000002480000000800000000000000000000000102016000000000000000000000000000000000000
12302G28721702001155INST DE REABILIT SANTO INACIO LOIOLA    RUA ANA NERI, 190             DUQUE DE CAXIAS     25070-42RJ122003               082004000005100012004000005221000000800000000000000000000000102016000000000000000000000000000000000000
12311G02881877000164INTERCONTINENTAL MEDICAL IMP E EXP      RUA RUZZI, 607                MAUA                09370-85SP122003               082006000141000042007000195375000040001000000130256000000000102016000000000000000000000000000000000000
12302G17217985003472HOSPITAL DAS CLINICAS - UFMG            AV PROF ALFREDO BALENA 110  11BELO HORIZONTE      30130-10MG122003               122003000018126122003000051780000000800000000000420000000420102016000000000000000000000000000000000000
12310G32411738000138IRM POBRES DE ENG PAULO DE FRONTIN      RUA ARLINDO NUNES, 28         ENGENHEIRO PAULO DE 26650-00RJ122003               000000000000000000000000000000000000800000000000000000000000102016000000000000000000000000000000000000
12302G62779145000190ISCMSP - HOSPITAL CENTRAL               RUA CESARIO MOTA JUNIOR 112   SAO PAULO           01277-90SP122003               042003000003150042003000007359000000800000000007359000007359102016000000000000000000000000000000000000
12311G03416540000149J MEDICA DISTR MATERIAL HOSP LTDA       AV LAURICIO PEDRO BASMUSSEM, 4GOIANIA             74633-42GO122003               022004000010810022004000010810000020002000000000000000000000102016000000000000000000000000000000000000
12311G03296130000101J S COMERCIO ODONTOLOGICO LTDA          RUA CONDE DE IRAJA, 1816      RIBEIRAO PRETO      14030-18SP122003               032004000000714032004000000714000000800000000000000000000000102016000000000000000000000000000000000000
12301G33438250000167DROGARIAS PACHECO S/A                   RODOVIA PRESIDENTE DUTRA, 2749RIO DE JANEIRO      21535-50RJ122003               122012000056592052016000068721000050000001000040298000000000102016000000000000000000000000000000000016
12311G04235514000187JM DIST DE PROD FARMAC E HOSPITALAR     RUA MARIO CARLOS JUNIOR, 110  JAPERI              21123-22RJ122003               000000000000000000000000000000000000000000000000000000000000102016000000000000000000000000000000000000
12311G72699663000157JOAO CARLOS DE MELO RIBEIRAO PRETO      AVENIDA TREZE DE MAIO, 1109   RIBEIRAO PRETO      14090-27SP122003               102004000039000102004000044200000000000000000000000000000000102016000000000000000000000000000000000000
12311G78742491000133JOAOMED COM MAT CIRURGICO LTDA          RUA WILSON LOIS KOEHLER JUNIORCURITIBA            81630-28PR122003               042014000093450112015000393150000000000000000095065000000000102016000049600000000000000000000000000000
12311G95433397000111MACROSUL COMERCIO MAT MED HOSP LTDA     RUA JOSE ZGODA, 340           CURITIBA            82820-44PR122003               062004000019000062004000029910000020002000000000000000000000102016000000000000000000000000000000000000
12311G05049432000100COMERCIO E REPRESENTACOES PRADO LTDA    TRAVESSA CASTELO BRANCO 2028  BELEM               66063-00PA122003               042005000024870042005000024870000000800000000000000000000000102016000000000000000000000000000000000000
12311G26291237000162JULIMED COM E REPRES LTDA               RUA MOJU 204                  BELO HORIZONTE      31050-68MG122003               012004000005460012004000005460000000800000000000000000000000102016000000000000000000000000000000000000
12311G00132856000200K C FREITAS                             RUA LIZANDRO NOGUEIRA, 983    TERESINA            64000-12PI122003               000000000000000000000000000000000000000000000000000000000000102016000000000000000000000000000000000000
12311G03091878000178KAMPO SUPRIMENTOS MED ODONT LTDA        RODOVIA BR 277 KM 114, 368    CAMPO LARGO         83605-42PR122003               032004000003120072004000004576000000800000000000000000000000102016000000000000000000000000000000000000
12311G00727486000164KNIM PERFUMARIA LTDA                    RUA ARQUIAS CORDEIRO 246 DEPOSRIO DE JANEIRO      20770-00RJ122003               012004000001614012004000001614000000000000000000000000000000102016000000000000000000000000000000000000
12311G82084898000198KOCH KOCH YAEDU E FREITAS LTDA          RODOVIA PR 218 KM 1           ARAPONGAS           86702-00PR122003               032004000001800082004000002700000006000000000000000000000000102016000000000000000000000000000000000000
12301G05525307000120KUEFFRIN DIST DE PROD MEDICOS HOSP      RUA JOSE NOGUEIRA DE CARVALHO,SAO JOSE DO RIO PRET15055-30SP122003               012004000009330022004000017082000010000000000000000000000000102016000000000000000000000000000000000000
12311G01193306000174L D T PRODUTOS FARMACEUTICOS E HOSP     RUA CONDE DE PORTO ALEGRE, 180NOVA MARIA          97010-10RS122003               000000000000000000000000000000000000000000000000000000000000102016000000000000000000000000000000000000
12311G01735994000157LABONORTE COMERCIAL LTDA                RUA BARROS FALCAO 305         SALVADOR            40255-37BA122003               022004000000750032004000002100000010000000000000750000000750102016000000000000000000000000000000000000
12311G01005728000179LABOR IMPORT COMERCIAL IMPORT EXPORT    RUA PADRE DAMASCO,173         OSASCO              06016-01SP122003               000000000000000000000000000000000030000000000000000000000000102016000000000000000000000000000000000000
12312G61150819000120LABOR AMERICANO FARMACOTERAPIA S/A      RUA NOVA YORK, 245            SAO PAULO           04560-90SP122003               032006000008310072005000013420000000800000000008030000000000102016000000000000000000000000000000000000
12312G31673254000102LABORATORIO B BRAUN S/A                 AVENIDA AVENIDA E BORGES,1092 SAO GONCALO         24751-00RJ122003               022004000012800032004000028000000001400000000000000000000000102016000000000000000000000000000000000000
12312G01563691000102LABORATORIO BIOCLINICO LTDA             RUA 7 DE SETEMBRO 1173        CAMPO GRANDE        79002-13MS122003               000000000000000000000000000000000000000000000000000000000000102016000000000000000000000000000000000000
12302G28523215000378HOSPITAL UNIVERSITARIO ANTONIO PEDRO    RUA MQ DE PARANA,303          NITEROI             24030-21RJ122003               052009000045360052006000182688000010000000000000000000000000102016000000000000000000000000000000000000
12312G42486076000119LABORATORIO BRAVET                      RUA VISCONDE DE SANTA CRUZ    RIO DE JANEIRO      20950-34RJ122003               000000000000000000000000000000000000800000000000000000000000102016000000000000000000000000000000000000
12312G34155945000102LABORATORIO DR SERGIO FRANCO LTDA       AVENIDA ATAUFO DE PAIVA, 669  RIO DE JANEIRO      22440-03RJ122003               000000000000000000000000000000000000800000000000000000000000102016000000000000000000000000000000000000
12311G04724729000161LABSERVICE PRODS SERV P/LABORATORIO     RUA C-32 QD 24 LT 05          GOIANIA             74265-22GO122003               012004000004800012004000004800000020000000000000000000000000102016000000000000000000000000000000000000
12311G02966311000135LIDERMEDICA COM ATAC DE PROD HOSP       RUA LUIZ CARLOS ZANNI 3413    IBIPORA             86200-00PR122003               102004000002600102004000002600000000800000000000000000000000102016000000000000000000000000000000000000
12310G31728710000166CASA DE SAUDE E MATER MODELO LTDA       RUA COMANDANTE ARY PARREIRAS, SAO GONCALO         24426-47RJ122003               102004000000880042005000001492000002400000000000000000000000102016000000000000000000000000000000000000
12310G42400861000107CASA DE S MATER RIO DE JANEIRO LTDA     RUA DAS TULIPAS, 209          RIO DE JANEIRO      21330-40RJ122003               122003000001334022004000001870000000000000000000000000000000102016000000000000000000000000000000000000
12310G32410920000174CASA DE SAUDE NOSSA SRA APARECIDA       AVENIDA DR NILO PECANHA, 540  PARACAMBI           26600-00RJ122003               032004000001580032004000002622000002000000000000000000000000102016000000000000000000000000000000000000
12310G31592264000105CASA DE SAUDE PIO XII LTDA              AV DR THEMISIOCLES DE ALMEIDA,SANTO ANTONIO DE PAD28470-00RJ122003               000000000000000000000000000000000000000000000000000000000000102016000000000000000000000000000000000000
12310G33031733000142CASA DE SAUDE SAO MIGUEL S/A            RUA CONDE DE IRAJA, 420       RIO DE JANEIRO      22274-02RJ122003               042004000001410052004000002306000002000000000000000000000000102016000000000000000000000000000000000000
12310G28681096000110CASA DE SAUDE STA MARIA S/A - GCH       RUA TENENTE JOSE EDUARDO, 585 BARRA MANSA         27320-43RJ122003               102003000000720102003000000720000000800000000000720000000720102016000000000000000000000000000000000000
12311G31911548004880CASAS SENDAS COMERCIO IND S/A           RUA FLORIANO, 286 BL 01       SAO JOAO DE MERITI  25565-33RJ122003               111998000000432111998000000432000000800000000000432000000432102016000000000000000000000000000000000000
12311G31911548010422CASAS SENDAS COMERCIO INDUSTRIA S/A     RODOVIA PRES DUTRA, 4200 LJ B SAO JOAO DE MERITI  25580-00RJ122003               000000000000000000000000000000000000800000000000000000000000102016000000000000000000000000000000000000
12301G48791685000168C.B.S. MEDICO CIENTIFICA S/A            RUA PALMORINO MONACO,630      SAO PAULO           03043-00SP122003               022010000340632092009001282250000200000000000000000000000000102016000000000000000000000000000000000000
12311G00092638000108CCP EXPOTEC PRODUTOS LTDA               RUA BARBALHA, 137             SAO PAULO           05083-02SP122003               082004000014400092004000028512000000000000000000000000000000102016000000000000000000000000000000000000
12311G05116911000100CENELLAR LOCACAO E COM DE MAT LTDA      RUA LUIZ VAZ DE CAMOES, 3153  SAO JOSE DO RIO PRET15015-75SP122003               042004000001425042004000001425000000800000000000000000000000102016000000000000000000000000000000000000
12302G27687607000148CENTRO DE PREMATUROS DO ESTADO DO RJ    RUA SAO JOAO BATISTA, 80/86   RIO DE JANEIRO      22270-03RJ122003               012004000000720012004000000720000010000000000000000000000000102016000000000000000000000000000000000000
12311G28574523000160CENTRO ESPIRITO PAI JOSE CAMBINDA       RUA FRUTUOSO GIL GONCALVES    BARRA DO PIRAI      27115-05RJ122003               092003000000717092003000000717000000800000000000000000000000102016000000000000000000000000000000000000
12302G28231835000171CENTRO MEDICO DO GRAJAU                 RUA BARAO BOM RETIDO          RIO DE JANEIRO      20540-34RJ122003               000000000000000000000000000000000000800000000000000000000000102016000000000000000000000000000000000000
12311G00061118000120CEPEO CONTRACEPTIVOS LTDA               RUA CORONEL ALMERINDO REHEM B2SALVADOR            41820-76BA122003               022004000001020022004000001020000000000000000000000000000000102016000000000000000000000000000000000000
12310G28252013000258CIC-CENTRO DE INV CARDIOCLINICA LTDA    RUA ALMIRANTE BALTAZAR, 383 ADRIO DE JANEIRO      20941-15RJ122003               122003000000260122003000000260000000800000000000260000000260102016000000000000000000000000000000000000
12311G04539279000137CIENTIFICA PRODUTOS LAB SIST LTDA       AVENIDA CACHOEIRA, 449        BARUERI             06413-00SP122003               000000000000000000000000000000000000800000000000000000000000102016000000000000000000000000000000000000
12301G01734480000187CINCOMED DISTR MAT CIRURG HOSP LTDA     AVENIDA BRASIL, 2779          CASCAVEL            85816-29PR122003               012004000005922012004000009122000006811000000000000000000000102016000000000000000000000000000000000000
12311G05323167000107CIRUBEL CIRURGICA BELEM COM REP LTDA    AVENIDA 9 DE JANEIRO, 1295    BELEM               66060-37PA122003               012004000025800022004000085967000000000000000000000000000000102016000000000000000000000000000000000000
12301G56851199000116L M DISTR DE PRODS MEDICOS LTDA         RUA FLORIANO PEIXOTO 446      SAO JOSE DO RIO PRET15025-11SP122003               102004000004095102004000004095000000000000000000000000000000102016000000000000000000000000000000000000
12311G00339246000192LONDRICIR COM MATERIAL HOSP LTDA        AVENIDA PORTUGAL, 870         LONDRINA            86056-03PR122003               042004000006048042004000006048000000000000000000000000000000102016000000000000000000000000000000000000
12301G39140173000140M & H DIST SUPRIMENTOS MEDIC HOSP       AVENIDA CESARIO DE MELO, 2800 RIO DE JANEIRO      23050-00RJ122003               042004000003040042004000004011000003300000000000000000000000102016000000000000000000000000000000000000
12311G05312781000173M L G SANTOS COMERCIO                   CIDADE NOVA IV ME 49, 72      ANANINDEUA          67133-00PA122003               102004000001832102004000001832000000800000000000000000000000102016000000000000000000000000000000000000
12311G28047561000165MARAJO MATERIAL CIRURGICO LTDA          RUA JOAQUIM SALVADOR, 140     SAO GONCALO         24460-57RJ122003               032015000014640032015000039122000004500000000003280000003280102016000000000000000000000000000000000000
12301G27175520000191MARCONDES E MARCONDES DIST COSMETICO    AV GETULIO DE MOURA 1559 E 156NILOPOLIS           26525-00RJ122003               000000000000000000000000000000000000000000000000000000000000102016000000000000000000000000000000000000
12311G04300816000191MARCOS ALGEMIRO PERBONI ME              RUA TROWVILE, 73              CAMPO GRANDE        79021-81MS122003               112003000002880042004000004215000003000000000002880000002880102016000000000000000000000000000000000000
12311G02614637000101MARTINS DISTRIBUICAO E LOGISTICA EIR    AVENIDA ERIPEDES DE MENEZES,S/GOIANIA             74993-54GO122003               042005000010880042005000022960000000000000000000000000000000102016000000000000000000000000000000000000
12311G04639418000102MAVILAB COMERCIO E REPRES LTDA          RUA CABO AYLSON SIMOES 834    VILA VELHA          29100-32ES122003               000000000000000000000000000000000000800000000000000000000000102016000000000000000000000000000000000000
12311G39082755000118MED FLEX COMERCIAL CIRURGICA LTDA       AVENIDA BARAO DE TOFE 93      RIO DE JANEIRO      20220-46RJ122003               112004000009888122004000018528000020000000000000000000000000102016000000000000000000000000000000000000
12311G69200673000191MED PLUS FARMADOG LTDA ME               RUA MARBOIA 8                 SAO PAULO           03573-01SP122003               022004000002080032004000005265000015000000000000000000000000102016000000000000000000000000000000000000
12305G43358647000100MEDIAL SAUDE S/A                        RUA DR GERALDO C MOREIRA 240 3SAO PAULO           04571-02SP122003               000000000000000000000000000000000000800000000000000000000000102016000000000000000000000000000000000000
12311G04696791000197MEDIC MINAS PROD MED HOSP LTDA          RUA GUVIDIO DE ABREU 299      MONTES CLAROS       39400-00MG122003               092003000001237092003000002475000000800000000002475000002475102016000000000000000000000000000000000000
12311G01906952000131MEDICAL LINE COM MATL MED HOSP LTDA     RUA RUA GENERAL IZIDORO DIAS LSAO BERNARDO DO CAMP09687-00SP122003               032014000304500042016000285785000100000001000058000000000000102016000000000000000000000000000000000276
12311G10779833000156MEDICAL MERCANTIL DE APARELHAGEM MED    AV AGAMENOM MAGALHAES, 3158   RECIFE              52010-04PE122003               092014000090000072016000239720000030000000000105202000000000102016000000000000000000000000000000000000
12310G29269736000141MEDISE MEDICINA DIAG SERVICOS LTDA      AV AIRTON SENNA 2541 AREA II  RIO DE JANEIRO      22775-00RJ122003               000000000000000000000000000000000000800000000000000000000000102016000000000000000000000000000000000000
12311G46642567000162MERCANTIL FARMED LTDA                   RUA FORTUNATO FERRAZ 210      SAO PAULO           05093-00SP122003               122003000001880122003000001880000000800000000000000000000000102016000000000000000000000000000000000000
12311G00071343000147MICROMED COMERCIO E REPRES LTDA         RUA DOS GOITACAZES 1045       CAMPOS DOS GOITACAZE28026-60RJ122003               112004000020190042004000028025000000000000000000000000000000102016000000000000000000000000000000000000
12311G00207500000107MULTIMEDIC COMERCIAL LTDA               RUA ZELI FIGUEIREDO,47        SANTA LUZIA         33030-04MG122003               092004000005170092004000005170000010000000000000000000000000102016000000000000000000000000000000000000
12398G05141591000130NATURE CLEAN RESICLAGEM E SERV LTDA     RUA ADALBERTO DE BARROS NUNEZ VOLTA REDONDA       27274-20RJ122003               102003000000247042004000002853000002100000000002601000002601102016000000000000000000000000000000000000
12310G02809310000187NEOMEX HOSPITALAR LTDA                  RUA MANUEL FRANCISCO MENDES 73CAMPINAS            13030-28SP122003               072005000011175032005000013774000000800000000000000000000000102016000000000000000000000000000000000000
12311G01982722000151NOVA AEROFARMA COM E REPRES LTDA        AVENIDA JOSE ALVES DE AZEVEDO,CAMPOS DOS GOITACAZE28035-00RJ122003               032004000007060032004000012922000016007000000000000000000000102016000000000000000000000000000000000000
12311G03033589000112OLIMED MATERIAL HOSPITALAR LTDA         VIA EX PAUL FRITZ KUEHNRICH,15BLUMENAU            89052-47SC122003               000000000000000000000000000000000020000000000000000000000000102016000000000000000000000000000000000000
12301G17291576000158ORGAFARMA ORGANIZACAO FARMACEUTICA L    RUA SENADOR LUCIO RITTENCOURT BELO HORIZONTE      30710-07MG122003               032004000001188032004000001188000000800000000000000000000000102016000000000000000000000000000000000000
12311G04057771000176OYKAM COMERCIAL LTDA                    AVENIDA JOAO BRASIL, 882      NITEROI             24130-08RJ122003               082004000002800082004000004100000000800000000000000000000000102016000000000000000000000000000000000000
12301G09441460000120PADRAO DIST PROD EQUIP HOSP PE CALLO    RUA FLORIANO PEIXOTO,308      RECIFE              50020-06PE122003               082014000022568082014000038116000020000001000002810000000000102016000000000000000000000000000000000000
12310G33749383000154PARAISO DO MEDICO LTDA                  RUA VOLUNTARIOS DA PATRIA 126-RIO DE JANEIRO      22270-01RJ122003               000000000000000000000000000000000000800000000000000000000000102016000000000000000000000000000000000000
12301G28862209000183POLIBOR LTDA                            AV. NOSSA SENHORA DE FATIMA, 9ENGENHEIRO PAULO DE 26650-00RJ012004               092010002476800102015003439000002000000004000179090000179090102016000000000000000000000000000001799497
12301G28862209000345POLIBOR LTDA.                           AVENIDA AYRTON SENNA, 300     RIO DE JANEIRO      22775-00RJ032004               042006000126000042006000333760000500000000000000000000000000102016000000000000000000000000000000000000
12311G02361059000130PONTAL COMERCIO ACESS HOSPITALAR LTD    RUA OTAVIO VILELA, 233        SAO GONCALO         24460-43RJ122003               062011000004248032007000036000000006001000000000000000000000102016000000000000000000000000000000000000
12311G02816696000154PONTAMED FARMACEUTICA LTDA              RUA DRA PAULA XAVIER 246 FUNDOPONTA GROSSA        84040-01PR122003               012005000006500012005000006500000008003000000000000000000000102016000000000000000000000000000000000000
12302G29079480000100PREF MUNIC DE ENG PAULO DE FRONTIN      PRACA ROGER MALHARDES, 49     ENGENHEIRO PAULO DE 26650-00RJ122003               000000000000000000000000000000000000800000000000000000000000102016000000000000000000000000000000000000
12302G28580694000100PREFEITURA MUNICIPAL DE MENDES          AVENIDA JULIO BRAGA, 86       MENDES              26700-00RJ122003               000000000000000000000000000000000000800000000000000000000000102016000000000000000000000000000000000000
12302G01604139000107PREFEITURA MUNICIPAL DE SEROPEDICA      RUA MARIA LOURENCO, 18        SEROPEDICA          23801-97RJ122003               062004000000500062004000000500000001000000000000000000000000102016000000000000000000000000000000000000
12301G04023995000248PRESLAF EMPR SERV HOSPITALAR LTDA       TRAVESSA FREDERICO PAMPLONA 32RIO DE JANEIRO      22061-08RJ122003               122003000007800122003000012400000000800000000000000000000000102016000000000000000000000000000000000000
12398G02479987000102PRO LUVAS INDUSTRIAL LTDA               RUA BALSA, 803                SAO PAULO           02910-00SP122003               092009000287875092009000481750000056012000000481750000481750102016000000000000000000000000000000000000
12310G97515480000165PRO-OFTALMO MICRO CIRURGIA OCULAR S/    RUA ALVARO RAMOS 560          RIO DE JANEIRO      22280-11RJ122003               042005000004400042005000005280000007011000000000000000000000102016000000000000000000000000000000000000
12311G01267825000130PROCIFAR COMERCIAL LTDA                 RUA UBA 100                   JUIZ DE FORA        36035-26MG122003               000000000000000000000000000000000000000000000000000000000000102016000000000000000000000000000000000000
12311G14722938000120PROCIFAR COM DE PROD CIRURG FAR LTDA    RUA JORGE NOVIS, 316          SALVADOR            40270-37BA122003               012005000005062022005000010125000008000000000000000000000000102016000000000000000000000000000000000000
12312G33009945002339PRODS ROCHE QUIMICOS E FARM. S/A        ESTRADA DOS BANDEIRANTES,,2020RIO DE JANEIRO      22775-10RJ122003               022013000012238122015000017280000003000008000003840000000000102016000000000000000000000000000000000000
12301G45453214000151PROFARMA DIST DE PRODS FARMAC  LTDA     RUA LUIZ COUTINHO CAVALCANTE 6RIO DE JANEIRO      21625-31RJ122003               000000000000000000000000000000000000000000000000000000000000102016000000000000000000000000000000000000
12311G02660654000177PROHLAB COMERCIO E REPRES LTDA          RUA DA AREIA, 421             JOAO PESSOA         58010-64PB122003               112003000001502112003000004419000000800000000000000000000000102016000000000000000000000000000000000000
12311G71630388000152PROMERO PRODS HOSPITALARES LTDA         RUA MARIA CONCEICAO M DE BARROSAO PAULO           04295-03SP122003               112003000001176000000000000000000000800000000000000000000000102016000000000000000000000000000000000000
12310G00092929000198PRONEP LAR INTERNACAO DOMICILIAR LTD    RUA VISCONDE DE SILVA 125     RIO DE JANEIRO      22271-09RJ122003               012004000001335032004000002670000000000000000000000000000000102016000000000000000000000000000000000000
12310G29919917000176PRONIL CASA SAUDE E P. SOCORRO INF.     RUA JOAO PESSOA, 1741         NILOPOLIS           26525-01RJ122003               112004000009376022004000012292000030000000000002620000000000102016000000000000000000000000000000000000
12311G03414064000127QUALIDADE MATERIAL HOSPITALAR LTDA      RUA AIDA CURI 102             SAO GONCALO         24730-02RJ122003               012004000013530012005000017920000020000000000001240000000000102016000000000000000000000000000000000000
12311G85345528000155QUIMIOLAB COM DE PRODS LAB LTDA         RUA URUGUAI, 266-D            CHAPECO             89802-50SC122003               000000000000000000000000000000000000800000000000000000000000102016000000000000000000000000000000000000
12311G05167581000174R S GOMES LTDA                          RUA SEBASTIAO GUIMARAES, 30   MENDES              26700-00RJ122003               082003000001248082003000002208000000800000000002208000002208102016000000000000000000000000000000000000
12311G03274225000124RAGA & SILVA LTDA                       RUA ANTONIO MARQUES DOS SANTOSSAO JOSE DO RIO PRET15050-50SP122003               072004000001040072004000001872000000800000000000000000000000102016000000000000000000000000000000000000
12311G02896042000188REALMED COM DE PRODS MED HOSP LTDA      AVENIDA JANUNCIO FERREIRA, 735CAMPINA GRANDE      58102-55PB122003               022004000008293082004000011231000000001000000001188000000000102016000000000000000000000000000000000000
12311G01293314000192REI LABOR COM PRODS LABORATORIO LTDA    RUA JALES RODRIGUES DA SILVA, SAO PAULO           03881-15SP122003               012004000012480032004000034749000000000000000000000000000000102016000000000000000000000000000000000000
12311G40787152000109CIRUFARMA COMERCIAL LTDA                RUA PRESIDENTE QUARESMA, 1105 NATAL               59031-10RN122003               122014000086000122014000109640000000000061000000000000000000102016000000000000000000000000000000000000
12311G02742911000110CIRUMEX INDUSTRIA E COMERCIO LTDA       RUA PEDRO STANCATO, 48        CAMPINAS            13082-56SP122003               000000000000000000000000000000000000800000000000000000000000102016000000000000000000000000000000000000
12311G02286145000126CIRURGICA ALTO VALE C MAT HOSP LTDA     RUA PERNAMBUCO, 117           RIO DO SUL          89160-00SC122003               000000000000000000000000000000000000800000000000000000000000102016000000000000000000000000000000000000
12301G02800122000198CIRURGICA BEZERRA DISTRIB LTDA          RUA SAO JOSE, 1523            NATAL               59014-18RN122003               032014000005400022005000008112000200000000000000000000000000102016000000000000000000000000000000000000
12311G12734018000104CIRURGICA CAMPINENSE LTDA               PRACA CORONEL ANTONIO PESSOA, CAMPINA GRANDE      58101-04PB122003               062004000012750062004000012750000000800000000000000000000000102016000000000000000000000000000000000000
12311G02340772000106CIRURGICA COPACABANA 2000 LTDA          PRACA DEMETRIO RIBEIRO, 15 LJBRIO DE JANEIRO      22011-02RJ122003               042004000001464042004000001464000000800000000000000000000000102016000000000000000000000000000000000000
12311G41934829000149CIRURGICA FENIX LTDA                    RUA CORREIA NETO, 1           POCOS DE CALDAS     37701-01MG122003               000000000000000000000000000000000000800000000000000000000000102016000000000000000000000000000000000000
12301G61418042000131CIRURGICA FERNANDES LTDA                ALAMEDA AFRICA,570            SANTANA DE PARNAIBA 06543-30SP032004               122013000960270042015003980233005000000003000000912000000912102016000000000000000000000000000000163694
12311G17166059000661CIRURGICA GERVASIO LTDA                 RUA FERNANDO LOBO, 263        BELO HORIZONTE      30270-15MG122003               042004000001662122004000002067000003000000000000000000000000102016000000000000000000000000000000000000
12311G36280113000135REPROMED COM REP DE MAT HOSPITALAR      RUA IPIRANGA, 56/115          CAMPOS              28015-05RJ122003               112004000003400032004000005068000001103000000000000000000000102016000000000000000000000000000000000000
12311G01401470000553REYDROGAS COM LTDA                      RUA ANTONIO ANCHADE LT 01-02 QSALVADOR            41316-90BA122003               032004000002067032004000002067000016000000000000000000000000102016000000000000000000000000000000000000
12311G01401470000200REYDROGAS COMERCIAL LTDA                STA/SUL TECHO 3 QD 2, 1024    BRASILIA            21200-03DF122003               102003000009300122003000029650000016000000000009300000009300102016000000000000000000000000000000000000
12311G68515410000109REZENDE PRODUTOS FARMACEUTICOS LTDA     RUA ALABANBINA, 481           BELO HORIZONTE      30775-33MG122003               012005000002032082004000003124000000000000000000000000000000102016000000000000000000000000000000000000
12311G83929976000170RIFARMED - RCJ ZAGALLO                  TRAVESSA 14, 182 CONJ CATOLINABELEM               66640-39PA122003               012005000008160012005000016720000000800000000000000000000000102016000000000000000000000000000000000000
12311G00086231000160ROTAL HOSPITALAR LTDA                   RUA GOIAS QD 29 LT 7/9        APARECIDA DE GOIANIA74912-34GO122003               000000000000000000000000000000000000000000000000000000000000102016000000000000000000000000000000000000
12311G46385514000103ROYTON QUIMICA FARMACEUTICA             AVENIDA DR CARDOSO DE MELO, 13SAO PAULO           04548-00SP122003               082005000002880082004000004600000006000000000000000000000000102016000000000000000000000000000000000000
12311G01975798000150SALUTIS HOSPITALAR LTDA                 RUA LAMENHA LINS 41 LJ 06     CURITIBA            80250-02PR122003               022004000019320022004000019320000010000000000000000000000000102016000000000000000000000000000000000000
12302G23278898000160SANTA CASA DE MISERICORDIA DE PASSOS    RUA SANTA CASA 164            PASSOS              37900-00MG122003               022004000006070022004000009895000006800000000000000000000000102016000000000000000000000000000000000000
12302G12737680000100SANTA CASA MIS. DE SAO MIGUEL CAMPOS    PRACA DR JOSE INACIO 43       SAO MIGUEL DOS CAMPO57240-00AL122003               112003000000812112003000000812000000001000000000800000000000102016000000000000000000000000000000000000
12312G00530205000189SANTALAB LAB DE PAT CLINICA LTDA        AV FRANCISCO SALES, 1111 1 ANDBELO HORIZONTE      30150-22MG122003               012004000001104012004000001104000000000000000000000000000000102016000000000000000000000000000000000000
12311G33683814000127SEMIC-SERV MEDICOS A IND E COMERCIO     RUA VISCONDE DE CARAVELAS, 14 RIO DE JANEIRO      22271-03RJ122003               012004000003852102004000006859000012001000000001387000001387102016000000000000000000000000000000000000
12301G01036982000134SERGIO DE OLIVEIRA SOARES ME            RUA JORGE RACHID, 100         SAO GONCALO         24753-12RJ122003               042007000002150042005000004610000000000000000002150000000000102016000000000000000000000000000000000000
12301G03079709000112SERRA DA ESTRELA DISTRIB. LTDA          RUA DONA ROSA,150             NOVA IGUACU         26280-58RJ122003               112015000027380112015000042632000008000001000001555000000000102016000015483000000000000000000000000000
12310G31410111000108SERV BABY HOSPITAL MATERNO INFANTIL     RUA FRANCISCO REAL, 722/732   RIO DE JANEIRO      21810-04RJ122003               122003000001354122003000001354000010000000000000000000000000102016000000000000000000000000000000000000
12311G32242299000187SILAB DIST COM PROD HOSPITALAR LTDA     RUA RUA DARCILENA,15          RIO DE JANEIRO      21740-17RJ122003               000000000000000000000000000000000000000000000000000000000000102016000000000000000000000000000000000000
12311G02957332000194SINOS DOS ALPES ALIMENTOS LTDA          RUA REINALDO NOSCHANG 290     BOM RETIRO DO SUL   95870-00RS122003               112005000001960112005000003920000000800000000000000000000000102016000000000000000000000000000000000000
12302G92021062000106SOC HOSP BENEFIC SAO VICENTE PAULA      RUA TEIXEIRA SOARES 808       PASSO FUNDO         33010-08RS122003               102003000008800102003000008800000000800000000000000000000000102016000000000000000000000000000000000000
12302G92736040000890SOC LITERARIA CARITATIVA ST AGOSTINH    RUA PEDRO BENEDETI 630        CRICIUMA            88800-00SC122003               042003000001032042003000001032000000800000000000000000000000102016000000000000000000000000000000000000
12302G33005638000174SOCIEDADE ESPANHOLA DE BENEFICENCIA     RUA RIACHUELO 302             RIO DE JANEIRO      20230-01RJ122003               042004000003790042004000004670000000800000000000000000000000102016000000000000000000000000000000000000
12312G59225268000255SOQUIMICA LABORATORIOS LTDA             RUA NEUZA APARECIDA DE GARCIA SAO JOSE DO RIO PRET15051-03SP122003               012004000010200052004000019788000030000000000000000000000000102016000000000000000000000000000000000000
12311G02118114000166SPADA E SPADA LTDA                      RUA COSTA E SILVA 657         VILHENA             78995-00RO122003               092004000003196092004000003196000000800000000000000000000000102016000000000000000000000000000000000000
12311G03995459000160T I T COMERCIAL E IMPORTADORA LTDA      RUA ANTHEMIOS DE TRALLES, 33  SAO PAULO           02317-03SP122003               112003000007752112003000024050000000800000000014574000014574102016000000000000000000000000000000000000
12311G03602795000104TECNOLON COM PROD HOSPITALAR LTDA       AVENIDA DUQUE DE CAXIAS, 4221 LONDRINA            86026-07PR122003               062005000010500062005000019365000010000000000000000000000000102016000000000000000000000000000000000000
12311G03582862000168TRIFARMA COM DE PROD MED HOSP LTDA      RUA DR VASCONCELOS 72         CAMPINA GRANDE      58102-00PB122003               062005000007375042005000014750000005000000000000000000000000102016000000000000000000000000000000000000
12312G60665981000118UNIAO QUIMICA FARMAC NACIONAL S/A       RUA CORONEL LUIZ T DE BRITO, 9SAO PAULO           06900-00SP122003               000000000000000000000000000000000000800000000000000000000000102016000000000000000000000000000000000000
12311G38054979000234UNICOM PRODUTOS HOSPITALARES LTDA       RUA DUZENTOS VINTE SETE, 95   GOIANIA             74605-08GO122003               062004000008000062004000008000000000800000000000000000000000102016000000000000000000000000000000000000
12311G01035335000108VALE SUL COM REP DE MAT HOSP LTDA       RUA MARTIN LUTERO 137         VALENCA             27600-00RJ122003               022005000011160042005000023427000000000000000000000000000000102016000000000000000000000000000000000000
12311G79822169000187VIDA IMP COM E REPRESENTACAO LTDA       RUA LEOBERTO LEAL, 1847       SAO JOSE            88111-14SC122003               122003000005628122003000015886000000800000000000000000000000102016000000000000000000000000000000000000
12311G47096136001182VIENA DELICATESSEN LTDA                 RUA AGOSTINHO TOGNERI 421 PARTSAO PAULO           04690-09SP122003               112004000014400012004000021000000020001000000000000000000000102016000000000000000000000000000000000000
12311G05411354000142ZERBINI MEDICAL COM DE PROD MEDICOS     RUA XV DE NOVEMBRO, 3085      CURITIBA            80050-00PR122003               102003000002820072004000004720000000800000000000000000000000102016000000000000000000000000000000000000
12302G78638707000115AUTARQUIA SERV MUNICIPAL DE SAUDE       RUA ATTILIO OCTAVIO BISATTO, 4LONDRINA            86010-34PR122003               092005000043575092005000093794000000800000000000000000000000102016000000000000000000000000000000000000
12311G03376102000102BAHIA SERVICOS DE SAUDE LTDA            RUA SALDANHA MARINHO 88       SALVADOR            40323-01BA122003               022004000011520022004000012438000010008000000000000000000000102016000000000000000000000000000000000000
12302G81590754000140CASA DE SAUDE BOM JESUS                 RUA XV DE NOVEMBRO, 1260      TOLEDO              85900-00PR122003               000000000000000000000000000000000000800000000000000000000000102016000000000000000000000000000000000000
12305G31715543000119CASA DE SAUDE E MATER SANTA MARIA       AVENIDA JULIO LIMA, 100       SAO GONCALO         24400-00RJ122003               022007000001060092004000002308000000800000000000880000000000102016000000000000000000000000000000000000
12302G17267634000108CASA DE SAUDE E MATER SANTA FE          RUA POUSO ALEGRE, 2111        BELO HORIZONTE      31015-03MG122003               000000000000000000000000000000000000800000000000000000000000102016000000000000000000000000000000000000
12310G11403094000166CASA DE SAUDE SANTA EFIGENIA LTDA       RUA GONCALO COELHO, 40        CARUARU             55014-02PE122003               092004000003271122004000006876000000800000000000000000000000102016000000000000000000000000000000000000
12302G03500923000443CENTRO DE ENS SUP DE CAMPO GRANDE       AVENIDA ALEXANDRE HERCULANO, 1CAMPO GRANDE        79037-28MS122003               032004000001002032004000001002000000800000000000000000000000102016000000000000000000000000000000000000
12302G19843929001506CENTRO GERAL DE PEDIATRIA - FHEMIG      ALAMEDA IZEQUIES DIAS, 345    BELO HORIZONTE      30130-11MG122003               112003000011138122003000022485000000800000000000208000000208102016000000000000000000000000000000000000
12302G00394502047027CENTRO LOGISTICO DE SAUDE DA MARINHA    RUA EURICO DE SOUZA LEAO, 120 RIO DE JANEIRO      20911-29RJ122003               092005000028152102005000094656000000800000000000000000000000102016000000000000000000000000000000000000
12302G19843929002820FHEMIG - HOSPITAL JULIA KUBITSCHEK      AVENIDA DR CRISTIANO RESENDE, BELO HORIZONTE      30620-47MG122003               012003000010492022004000018664000000800000000000000000000000102016000000000000000000000000000000000000
12302G19843929001425FHEMIG - HOSP MARIA AMALIA LINS         RUA DOS OTONI 772             BELO HORIZONTE      30150-27MG122003               022003000017592122003000028512000000800000000000000000000000102016000000000000000000000000000000000000
12302G19843929000704SANATORIO SANTA FE                      AV NOSSA SRA DO MONTE CALVARIOTRES CORACOES       37410-00MG122003               102003000001092102003000001092000000800000000000000000000000102016000000000000000000000000000000000000
12302G19843929000615FHEMIG - CENTRO H PSIQ BARBACENA        PCA PRESIDENTE EURICO GASPAR DBARBACENA           36202-37MG122003               102003000002184102003000003248000000800000000001064000001064102016000000000000000000000000000000000000
12302G01441372000116FUNDACAO JOSUE MONTELLO                 RUA DAS HORTAS 120            SAO LUIS            65020-29MA122003               032004000011440072004000063415000000000000000000000000000000102016000000000000000000000000000000000000
12302G15461510000133FUND UNIV FED MATO GROSSO DO SUL        AVENIDA FELINTO MULLER S/N    CAMPO GRANDE        79080-19MS122003               072004000023122102004000032094000000001000000000000000000000102016000000000000000000000000000000000000
12302G00054015000132FUNDO DE SAUDE DO DISTRITO FEDERAL      ST GRANDES AREAS PUBLICAS BL GBRASILIA            71215-00DF122003               072004000276924072005000952320000000000000000140400000000000102016000000000000000000000000000000000000
12302G03609595000175FUNDO ESTADUAL DE SAUDE - PB            AVENIDA D PEDRO II, 1826      JOAO PESSOA         58013-00PB122003               000000000000000000000000000000000000800000000000000000000000102016000000000000000000000000000000000000
12302G82892282001468FUNDO MUNICIPAL DE SAUDE -SC            AV HENRIQUE DA SILVA FONTES 61FLORIANOPOLIS       88036-70SC122003               000000000000000000000000000000000000800000000000000000000000102016000000000000000000000000000000000000
12302G13937131000141SESAB- UN DE EM DE CAJAZEIRA VIII       ROTULO DA CAJAZEIRA VIII, S/N SALVADOR            41330-02BA122003               122003000004120082004000014781000000800000000006884000006884102016000000000000000000000000000000000000
12302G33663683005347HOSP UNIV CLEMENTINO FRAGA FILHO        AVENIDA BRIGADIRO TROMPONSKY, RIO DE JANEIRO      21941-59RJ122003               042003000015780082003000018615000000000000000000000000000000102016000000000000000000000000000000000000
12302G00038174000658HOSP UNIVERSITARIO DE BRASILIA          SGAN 604/605 LOTE,S/N         BRASILIA            70840-00DF062006               052003000008976052006000019441000000000000000014371000014371102016000000000000000000000000000000000000
12302G19843929002740HOSPITAL ALBERTO CAVALCANTE             RUA CAMILO DE BRITO 636       BELO HORIZONTE      30730-54MG122003               122003000002074122003000003906000000800000000000000000000000102016000000000000000000000000000000000000
12302G19843929000291HOSPITAL GALBA-VELOSA - FHEMIG          RUA CONDO FERREIRA CARNEIRO 36BELO HORIZONTE      30510-01MG122003               122003000003931122003000006552000000800000000000000000000000102016000000000000000000000000000000000000
12302G09794975022344FUSAM - HOSPITAL BARAO DE LUCENA        AVENIDA CAXANGA, 3860         RECIFE              50740-00PE122003               082005000004079082005000016317000000800000000004079000004079102016000000000000000000000000000000000000
12302G13937131005372SESAB/FES/BA/HOSP CENT ROBERTO SANTO    ESTRADA DO SABOEIRO S/N       SALVADOR            41700-00BA122003               032005000037400052005000049400000000800000000005700000005700102016000000000000000000000000000000000000
12302G01567601000224HOSPITAL DAS CLIN UNIV FED DE GOIAS     1 AVENIDA S/N                 GOIANIA             74605-02GO122003               122003000031286122003000091530000000800000000000000000000000102016000000000000000000000000000000000000
12302G00394544021344HOSP. DE CARDIOLOGIA DE LARANJEIRAS     RUA DAS LARANJEIRAS,374       RIO DE JANEIRO      22240-00RJ122003               082011000058800012006000260051000000001000000000000000000000102016000000000000000000000000000000000000
12302G00394544021182HOSPITAL DOS SERVIDORES DO ESTADO       RUA SACADURA CABRAL, 178      RIO DE JANEIRO      20226-90RJ122003               072004000090830112011000123865000000001000000000000000000000102016000000000000000000000000000000000000
12302G00394544020291HOSPITAL GERAL DE BONSUCESSO            AVENIDA LONDRES, 616          RIO DE JANEIRO      21041-00RJ122003               032010000138860032010000165060000000001000000000000000000000102016000000000000000000000000000000000000
12301G02914305000134MANTIQUEIRA DIST DE PROD HOSP LTDA      RUA SAO PAULO 69              AGUAS DA PRATA      13890-00SP122003               012006000019530012006000019530000000800000000000000000000000102016000000000000000000000000000000000000
12310G76081892000164HOSPITAL POLICLINICA CASCAVEL LTDA      RUA MARANHAO 945              CASCAVEL            85806-05PR122003               122003000000770000000000000000000000000000000000000000000000102016000000000000000000000000000000000000
12311G38530929000103PROGRAMA SOS SORRIZO                    RUA PARATBA 755               BELO HORIZONTE      31130-14MG122003               012004000001275012004000002210000000000000000000000000000000102016000000000000000000000000000000000000
12311G14128359000153RUBENS ARAUJO MARTINS ME                CONJUNTO CIDADE NOVA TRAV 66, ANANINDEUA          67140-00PA122003               112003000000777112003000000755000000800000000000000000000000102016000000000000000000000000000000000000
12311G26284760000161HOSDFAR COMERCIO E REPRESENTACOES       RUA SAO PEDRO,,25             UBA                 36500-00MG122003               092015000015246092015000015246000000800000000000000000000000102016000000000000000000000000000000000000
12310G33564881000122A B B R ASSOC BRAS BENEF REABILITACA    RUA JARDIM BOTANICO, 660      RIO DE JANEIRO      22461-00RJ122003               032006000002368062004000004441000003500000000000000000000000102016000000000000000000000000000000000000
12311G65237851000106CIRURGICA PINHEIRO LTDA                 AVENIDA BELO HORIZONTE,553    UBERLANDIA          38400-45MG122003               102004000005600102004000008000000055000000000000000000000000102016000000000000000000000000000000000000
12311G87651345000274G GOTUZZO & CIA LTDA                    RUA GENERAL TELLES, 710       PELOTAS             96010-31RS122003               000000000000000000000000000000000030000000000000000000000000102016000000000000000000000000000000000000
12301G33429804000160DISTRIBUIDORA DE PERFUMARIA BEBIADO     RUA ARLINDO JANOT, 284        RIO DE JANEIRO      21041-16RJ122003               012004000005180082005000007392000010000000000002156000002156102016000000000000000000000000000000000000
12311G67300020000159HUNIMED COMERCIAL LTDA                  RUA CORONDA 27                SAO PAULO           03621-05SP122003               112003000005016112003000005016000000800000000000000000000000102016000000000000000000000000000000000000
12311G00874929000140MED CENTER COMERCIAL LTDA               AVENIDA SAO FRANCISCO, 436    POUSO ALEGRE        37550-00MG122003               122014000087000012015000109500000000000022000000000000000000102016000000000000000000000000000000000000
12310G39082151000171CLINICA DE OLHOS ZONA OESTE LTDA        AVENIDA CONEGO VASCONCELOS, 30RIO DE JANEIRO      21810-01RJ122003               122003000000768000000000000000000000800000000000000000000000102016000000000000000000000000000000000000
12301G05668060000109FENIX 2000 DIST DE PROD DE PERF         AVENIDA IRMAOS GUINLE, 1037 PAQUEIMADOS           26323-13RJ122003               042005000003450072005000005271000010000000000003450000003450102016000000000000000000000000000000000000
12311G09287160000138HOSMED COM HOSPITALAR MEDICA LTDA       RUA GENERAL OSORIO, 141       JOAO PESSOA         58010-78PB122003               012004000003060032004000008501000000000000000003898000003898102016000000000000000000000000000000000000
12311G02362983000131VISUAL COMERCIO DE MATERIAL HOSP        RUA AMEDEE PERET, 205         BELO HORIZONTE      31170-27MG122003               082004000009680092004000012000000010012000000000000000000000102016000000000000000000000000000000000000
12311G73416497000105EMPROMED MATERIAL HOSPITALAR LTDA       TRAV ARLINDO RODRIGUES COELHO SAO GONCALO         24422-32RJ122003               122003000002400122003000002400000000000000000000000000000000102016000000000000000000000000000000000000
12311G33450438000120PRODS VETERINARIOS MANGUINHOS LTDA      RUA FRANCISCO MANOEL, 91      RIO DE JANEIRO      20911-27RJ122003               082005000001042082005000001042000002000000000000000000000000102016000000000000000000000000000000000000
12311G71971741000168C C C CEREZER VIDAL GUIMARAES ME        RUA SANTA TEREZINHA, 45       JACAREI             12309-01SP122003               122003000005680012004000008792000010000000000000000000000000102016000000000000000000000000000000000000
12311G05593405000285DENTAL MEDICA COMERCIO REPRES LTDA      RUA DR POTY NOBREGA, 1945     NATAL               59056-18RN122003               032007000003041032007000003041000005000000000000000000000000102016000000000000000000000000000000000000
12311G71396402000103ASIMED LTDA                             RUA DR ANIBAL DE MORAIS QUINTANOVA LIMA           34000-00MG122003               122003000000849122003000000849000000800000000000000000000000102016000000000000000000000000000000000000
12311G01178902000185VICENTIN COMERCIAL E REPR LTDA          RUA GARMANIA ,356             CANOAS              93310-07RS122003               062005000005418032004000006730000000000000000000000000000000102016000000000000000000000000000000000000
12311G00799666000151BRASFARMA COMERCIO DE MEDICAMENTOS      RUA RUA MARAVALHO BELO,77     BELEM               66623-24PA122003               082005000039950092005000103348000030000000000000000000000000102016000000000000000000000000000000000000
12302G13937131000222HOSPITAL GERAL LUIZ VIANA FILHO         AVENIDA BRASIL S/N            ILHEUS              45650-00BA122003               122003000003780122003000003780000000800000000000000000000000102016000000000000000000000000000000000000
12302G17513235000260HOSPITAL LUXEMBURGO                     RUA GENTIOS                   BELO HORIZONTE      30380-49MG122003               122003000004200122003000008400000000800000000000000000000000102016000000000000000000000000000000000000
12302G19378769000176INSTITUTO DE PATOLOGIA CLINICA H PAR    RUA AIMORES                   BELO HORIZONTE      30140-07MG122003               112003000001764000000000000000000000800000000000000000000000102016000000000000000000000000000000000000
12311G94389400000184M C W PRODS MEDS HOSPITALARES LTDA      ROD. BR 471, KM 122           SANTA CRUZ DO SUL   96814-40RS122003               122014000144000032016000357372000300000000000129216000000000102016000129216000000000000000000000000000
12311G00553026000167RUBIMED COMERCIO DE MEDIC LTDA          RUA DA PROCLAMACAO, 470       CAMBE               86192-53PR122003               032004000005920032004000005920000000000000000000000000000000102016000000000000000000000000000000000000
12311G05008441000153ABC - ACESSORIOS DE FARMACIA E PERF     RUA ITURAMA, 157/159          SAO PAULO           03035-01SP122003               012004000002520012004000004284000005003000000000000000000000102016000000000000000000000000000000000000
12311G04337565000110AILTON ANTUNES FERREIRA OLIMPIA ME      AV DEP WALDEMAR LOPES FERRAZ, OLIMPIA             15400-00SP122003               112003000001580032004000002760000002000000000001200000001200102016000000000000000000000000000000000000
12302G00445188000181CONSORCIO INTER SAUDE MEDIO PARANAPA    TRAVESSA GOIANIA, 152         BELA VISTA DO PARAIS86020-17PR122003               122003000001440122003000001440000000000000000000000000000000102016000000000000000000000000000000000000
12311G47869078000453DIPROMED COMERCIO E IMPORTACAO LTDA     AV DR MAURO LINDEMBERG MONTEIROSASCO              06278-01SP122003               112015000258300012016002119945000500000004000029250000000000102016000025500000000000000000000000018094
12311G48191886000124DIRCO DIST PRODS HOSPITALAR LTDA EPP    RUA RIBEIRO ROCHA, 41         MOCOCA              13738-03SP122003               042006000001600042006000001600000003000000000000000000000000102016000000000000000000000000000000000000
12302G02537782000128FUNDACAO POLO ECOLOGICO DE BRASILIA     AVENIDA DAS NACOES L SUL, 4   BRASILIA            70610-10DF122003               082011000007650082011000007650000000800000000000000000000000102016000000000000000000000000000000000000
12302G18715383000140SECRETARIA MUNICIPAL DE SAUDE - BH      AVENIDA AFONSO PENA, 2336 - 8 BELO HORIZONTE      30130-00MG122003               112004000129688112004000161704000000800000000000000000000000102016000000000000000000000000000000000000
12311G09297961000184SOC HOSP GANDELHA DE OLIVEIRA LTDA      VIA DE ACESSO BR 230 S/N      SOUSA               58805-29PB122003               012004000001440112003000002880000010000000000000000000000000102016000000000000000000000000000000000000
12311G00802002000102ALTERMED MATERIAL MED HOSP LTDA         ESTRADA BOA ESPERANCA,2320    RIO DO SUL          89163-55SC122003               022004000004610022004000004610000000000000000000000000000000102016000000000000000000000000000000000000
12311G01909745000130INTERNE - INTERIM HOME CARE LTDA        RUA MARQUES ANDRIM, 444       RECIFE              50070-33PE122003               092004000004900092004000006892000010001000000000000000000000102016000000000000000000000000000000000000
12311G64631302000140MULTILAB COMERCIAL & IMPORTADORA LTD    RUA DO GRITO, 34/36           IPORANGA            04217-00SP122003               012004000030400012004000030400000000000000000000000000000000102016000000000000000000000000000000000000
12311G16010431000179SANTA MARTA DISTR DE DROGAS LTDA        ANEL VIARIO QD 01 MODULO 04   APARECIDA DE GOIANIA74985-24GO122003               122005000004864072005000006292000000001000000000000000000000102016000000000000000000000000000000000000
12302G01767090000103SOCIEDADE HOSP BENEFICIENTE FREI B      RUA SENADOR NEREU RAMOS, 438  XAXIM               89825-00SC122003               122003000000740122003000000740000000800000000000000000000000102016000000000000000000000000000000000000
12302G06701254000113CASA DE SAUDE E MATERN N SRA FATIMA     RUA TEIXEIRA, 796             PARNAIBA            64218-68PI122003               122003000000705122003000000705000000800000000000000000000000102016000000000000000000000000000000000000
12311G02643623000108HELDER BONIFACIO LEONES                 RUA 83F, 14                   GOIANIA             74083-24GO122003               052004000003016052004000003016000005603000000000000000000000102016000000000000000000000000000000000000
12302G19843929001263HOSPITAL REGIONAL ANTONIO DIAS - FH     RUA MAJOR GOTE, 1231          PATOS DE MINAS      38700-00MG122003               112003000002730122003000005405000000800000000000000000000000102016000000000000000000000000000000000000
12302G33781055001530INST.DE TEC.IMUNOBIOLOGICO-BIOMANGUI    AVENIDA BRASIL, 4365 PAV ROCHARIO DE JANEIRO      21045-90RJ122003               042012000054896092010000317240000000800000000000000000000000102016000000000000000000000000000000000000
12311G91296004000114SULFARMA LTDA                           TRAVESSA PE CORNELIO, 33      PORTO ALEGRE        91520-08RS122003               122003000001725122003000005074000000800000000000000000000000102016000000000000000000000000000000000000
12310G08834137000153HOSPITAL ANTONIO TARGINO LTDA           RUA DELMIRO GOLVEIA           CAMPINA GRANDE      58107-73PB122003               022005000002080042005000005070000000800000000000000000000000102016000000000000000000000000000000000000
12311G02236334000194MATERMEDIC LTDA                         RUA REGINA, 165               BELO HORIZONTE      31930-72MG122003               122004000011200122004000011200000000800000000000000000000000102016000000000000000000000000000000000000
12311G08130288000120MOSSORO ODONTOLOGIA LTDA                PRACA DA INDEPENDENCIA, 49    MOSSORO             59600-17RN122003               032004000006484032004000009952000005200000000000000000000000102016000000000000000000000000000000000000
12302G29468055000102PREFEITURA DA CIDADE DO RIO DE JANEI    RUA ANA NERI, 1552            RIO DE JANEIRO      20960-00RJ122003               052004000276485052004001203004000000800000000000000000000000102016000000000000000000000000000000000000
12302G33781055000135FUNDACAO OSVALDO CRUZ                   AVENIDA BRASIL, 4365          RIO DE JANEIRO      21045-90RJ122003               092005000029400092005000038874000000800000000000000000000000102016000000000000000000000000000000000000
12302G00529443000336OBRAS SOCIAIS DA DIOCESE DE RIO BRAN    RUA ALVORADA, 806             RIO BRANCO          69909-38AC122003               112003000002025112003000002025000000000000000000000000000000102016000000000000000000000000000000000000
12302G37115482000135POLICIA CIVIL DO DISTRITO FEDERAL       SET GAR OFICIAIS NORTE QUADRA BRASILIA            70610-65DF122003               042010000018600102006000035219000018000000000000000000000000102016000000000000000000000000000000000000
12302G13937131001890SESAB/FES/BA/HOSP JOAO BATIST CARIBE    AVENIDA AVANIO PEIXOTO S/N    SALVADOR            40750-01BA122003               122004000005400122004000005400000000800000000000000000000000102016000000000000000000000000000000000000
12311G03716302000159DISAMAQ - COM PROD IND LTDA             AVENIDA DUQUE DE CAXIAS, 1946 LONDRINA            86010-19PR122003               012005000001710092004000001935000000800000000000000000000000102016000000000000000000000000000000000000
12310G75608547000173HOSPITAL BOM JESUS LTDA                 RUA DOM PEDRO II, 108         PONTA GROSSA        84053-00PR122003               022004000001620122003000002451000010007000000000000000000000102016000000000000000000000000000000000000
12302G78614971000119IRMANDADE SANTA CASA DE LONDRINA        ESPIRITO SANTO 523            LONDRINA            86010-45PR122003               112003000001164112003000001164000000800000000000000000000000102016000000000000000000000000000000000000
12311G01898250000153JET MED COM ATACADO PROD DESC LTDA      RUA XV DE NOVEMBRO, 132 SALA 1ORLEANS             88870-00SC122003               032004000000850032004000000850000000000000000000000000000000102016000000000000000000000000000000000000
12311G27347244000100REDALMUS COMERCIAL                      AVENIDA PAULINO MULLER, 430 L1VITORIA             29043-53ES122003               082004000005440032004000005870000005000000000000000000000000102016000000000000000000000000000000000000
12302G20499893000179SANTA CASA DE CARIDADE DE FORMIGA       RUA DR TEIXEIRA SOARES, 335   FORMIGA             35370-00MG122003               122003000001020122003000003338000006500000000000780000000780102016000000000000000000000000000000000000
12311G36395622000103COMERCIAL COSTA GOMES LTDA              RUA PARA, 09                  CARIACICA           29140-03ES122003               062005000005922012004000008208000010008000000000000000000000102016000000000000000000000000000000000000
12302G30779649000113HOSPITAL MATER S FRANCISCO DE ASSIS     RUA MINISTRO EURICO SALES S/N CARIACICA           29146-14ES122003               122003000000928122003000001856000000800000000000000000000000102016000000000000000000000000000000000000
12302G21078126000159HOSPITAL S VICENTE PAULO DE ITANHOMI    AVENIDA JOHN KENNEDY, 574     ITANHOMI            35120-00MG122003               102003000000812102003000000812000000800000000000000000000000102016000000000000000000000000000000000000
12302G01038751000160SANTA CASA MISERICORDIA DE ANAPOLIS     RUA VISCONDE DE TAUNAY, 134   ANAPOLIS            75110-73GO122003               072004000003055092004000006458000000000000000000000000000000102016000000000000000000000000000000000000
12302G09794975022506HOSPITAL AGAMENOM MAGALHAES- FUSAM      ESTRADA DO ARRAIAL, 2723      RECIFE              52051-38PE122003               072003000015120122003000051335000000800000000000000000000000102016000000000000000000000000000000000000
12302G13937131002608SESAB/FES/BA/HOSP GERAL CLER ANDRADE    AVENIDA DO CONTORNO S/N       FEIRA DE SANTANA    40055-10BA122003               052005000013200072005000020250000000800000000000000000000000102016000000000000000000000000000000000000
12305G08526006000109HOSPITAL PEDRO I                        RUA PEDRO I, 605              CAMPINA GRANDE      58107-61PB122003               082004000002412082005000007278000040000000000001501000000000102016000000000000000000000000000000000000
12302G33540014000157HOSPITAL UNIVERSITARIO PEDRO ERNESTO    AVENIDA 28 DE SETEMBRO, 77 TERRIO DE JANEIRO      20551-03RJ122003               042005000023400042004000104570000000800000000000000000000000102016000000000000000000000000000000000000
12311G05648197000193J DUARTE SILVA CAMPELO                  RUA SANTA LUZIA 2250          TERESINA            64001-40PI122003               032007000004350012005000006702000005000000000004350000002899102016000000000000000000000000000000000000
12311G01623191000100LABEX 1001 DISTRIB. MATERIAL DIAG       RUA UBALDINO DO AMARAL, N 49  RIO DE JANEIRO      20231-01RJ122003               102004000004230102004000005310000000800000000000000000000000102016000000000000000000000000000000000000
12302G33663683005266MATERNIDADE ESCOLA UFRJ                 RUA DAS LARANJEIRAS, 180      RIO DE JANEIRO      22240-00RJ122003               102003000003185122003000019666000000800000000000000000000000102016000000000000000000000000000000000000
12302G12200259000165FUNDO ESTADUAL DE SAUDE DE ALAGOAS      RUA SIQUEIRA CAMPOS S/N       MACEIO              57040-00AL122003               112004000007840082004000083198000000800000000000000000000000102016000000000000000000000000000000000000
12311G04748329000196SR DISTRIBUIDORA DE MEDICAMENTOS        AVENIDA MARECHAL DEODORO, 659 CUIABA              78005-10MT122003               122003000001777122003000005436000000800000000005436000005436102016000000000000000000000000000000000000
12302G19843929001182HOSPITAL EDUARDO MENEZES                RUA DR CRISTIANO RESENDE, 2283BELO HORIZONTE      30730-54MG122003               122003000007098122003000014196000000800000000000000000000000102016000000000000000000000000000000000000
12311G83157032000122METROMED COM DE MAT MEDICO HOSP LTDA    ESTRADA BOA ESPERANCA,1918    RIO DO SUL          89163-50SC122003               122003000001300122003000002600000030000000000000000000000000102016000000000000000000000000000000000000
12302G37113180000128ASSOCIACAO DAS PIONEIRAS SOCIAIS        SMHS- QD 101 - BL B, 45 ENTRADBRASILIA            70335-90DF122003               062004000005380062004000007060000010000000000004400000004400102016000000000000000000000000000000000000
12311G81051849000196CIROMAR COMERCIO  EQUIP HOSP LTDA       AVENIDA REPUBLICA ARGENTINA, 9FOZ DO IGUACU       85851-20PR122003               022004000009384022004000009384000003200000000000000000000000102016000000000000000000000000000000000000
12305G29541604000208CLINICA NEFROLOGICA LTDA                RUA JAIME FIGUEIREDO, 1173    SAO GONCALO         24435-40RJ122003               092004000008900032004000016600000014001000000000000000000000102016000000000000000000000000000000000000
12311G37109097000185D M I MAT MEDICOS HOSPITALAR LTDA       SAA NORTE QUADRA 03, 1000     BRASILIA            70632-32DF122005               032014000045300102004000023460000030000000000014949000000000102016000000000000000000000000000000000000
12302G09794975021020HOSPITAL DA RESTAURACAO - FUSAM         AVENIDA AGAMENOM MAGALHAES S/NRECIFE              52010-14PE122003               122003000046440122005000234048000000800000000000000000000000102016000000000000000000000000000000000000
12311G01310222000173CIRURGICA MAFRA LTDA                    RUA AUGUSTO BIANCHI, 415      RIBEIRAO PRETO      14095-14SP122003               092014000025500112004000176910000000000000000000000000000000102016000000000000000000000000000000000000
12302G00475855000179DEPARTAMENTO DE TRANSITO DO DF          SGAIN - QD 907 LT 901         BRASILIA            70790-06DF122003               122003000000129122003000000129000000000000000000000000000000102016000000000000000000000000000000000000
12302G56023443000152HOSPITAL DAS CLIN/FAC MED RIO PRETO     CAMPUS UNIVESITARIO S/N       RIBEIRAO PRETO      14048-90SP122003               112009000015017112009000034217000000800000000000000000000000102016000000000000000000000000000000000000
12302G03568867000136HOSPITAL DAS FORCAS ARMADAS             ESTRADA DO CONTORNO DO BOSQUE BRASILIA            70603-00DF122003               122003000015340122003000015340000000800000000000000000000000102016000000000000000000000000000000000000
12302G19843929002901HOSPITAL MATERNIDADE ODETE VALADARES    AVENIDA CONTORNO, 9494        BELO HORIZONTE      30110-13MG122003               122003000005460122003000010920000000800000000000000000000000102016000000000000000000000000000000000000
12302G19843929001000HOSPITAL REGIONAL DR JOAO PENIDO        AVENIDA JOAO DE FORA, 2555    JUIZ DE FORA        36048-00MG122003               122003000004368122003000008736000000800000000000000000000000102016000000000000000000000000000000000000
12302G24365710001317HOSP UNIVERSITARIO ONOFRE LOPES UFRN    AVENIDA NILO PECANHA, 620     NATAL               59012-30RN122003               012005000027590012005000027590000000800000000000000000000000102016000000000000000000000000000000000000
12311G05059766000165GENERICOS E SIMILARES UNIAO LTDA        RUA CRUZEIRO DO SUL, 1050     CONTAGEM            32115-17MG122003               122015000007004122015000007654000020000000000000000000000000102016000011790000000000000000000000000000
