ITP00109000001308291547015018815000014902269509000402                POLIMETRI INDUSTRIA METALMETALURGICA DE TUBOS DE P         
PE1011000000001130829         000000CC.013.EX CLIENTE             CC.013.EX                                 011  CONTATO FORPC0P
PE2130826038693   11308230000001100000000000000000000000000000000000000000000   00000000             1                          
PE300000000000000000000000000000000000000000000000000000000000000000000000000000000000000000000000000000000000000000000000      
PE1011000000001130829         000000CC.013.EX CLIENTE             CC.013.EX                     XXY1        011  CONTATO FORPC0P
PE2130826038693   11308230000001100000000000000000000000000000000000000000000   00000000             1                          
PE313110400000000600131111000000006001311180000000060000000000000000000000000000000000000000000000000000000000000000000000      
FTP0000000000000800000000000000000                                                                                              
