01REMESSA03CREDITO C/C    033930705000000426  03496F.A.M.E.-FB AP MT EL LTDA237BRADESCO       30010700000BPI300107                                                                                000001
1                                                             029470705006119514  ROBERTA LIMA DE MOURA                         0000000004500298                                                  000002
1                                                             032010705005014743  OLGA ELIZA XIMENES PIRES                      0000000004825298                                                  000003
90000000009325                                                                                                                                                                                    000004
