01REMESSA03CREDITO C/C    001650705000000450  03496F.A.M.E.-FB AP MT EL LTDA237BRADESCO       13100500000BPI131005                                                                                000001
1                                                             001650705000859214  CINTIA APARECIDA NUNES                  0015510000000139802298                                                  000002
1                                                             032870705000642193  ALEXANDRA SPADER                        0014070000000218696298                                                  000003
1                                                             004240705000459143  JEFFERSON POSSEL                        0015210000000097339298                                                  000004
1                                                             023780705000209341  ROGERIO FONSECA DOS SANTOS              0016010000000013390298                                                  000005
1                                                             000460705003287734  ANDRE LUIS CAGNONI                      0015950000000038644298                                                  000006
1                                                             017750705000274925  MAGNUS DARLAN VIGNE                     0015630000000052824298                                                  000007
1                                                             021100705000224154  LUIZ FERNANDO MOREIRA MARQUES           0015140000000017320298                                                  000008
1                                                             019390705000233781  RONALDO AFONSO NOGUEIRA L.JR.           0014730000000024050298                                                  000009
1                                                             004540705005100984  ROBSON LIMA OLIVEIRA                    0016280000000151846298                                                  000010
1                                                             028230705005107199  JOSE SOARES CAVALCANTI NETO             0016370000000019800298                                                  000011
1                                                             004120705000590649  ANDERSON MACHADO                        0016400000000107226298                                                  000012
90000000880937                                                                                                                                                                                    000013
