ARR5444258000002000000000000240107006080000000107888547                             
IRR2199    154269DED-5674240107SAO PAULO      25990000000000000008500005000         
IRR2199    154270DIE-8438240107SAO PAULO      25990000000000000005490005000         
IRR2199    154271DRH-0195240107SAO PAULO      25990000000000000003891005000         
IRR2199    154272DIE-8438240107SAO PAULO      25990000000000000017940005000         
IRR2199    154273DRH-0195240107SAO PAULO      25990000000000000017500005000         
IRR2199    154274DRH-0195240107SAO PAULO      25990000000000000022250005000         
IRR2199    154275DIE-8438240107SAO PAULO      25990000000000000026900005000         
IRR2199    154276DIE-8438240107SAO PAULO      25990000000000000010380005000         
IRR2199    154277DIE-8438240107SAO PAULO      25990000000000000010000005000         
IRR2199    154279DRH-0195240107SAO PAULO      25990000000000000027500005000         
IRR2199    154280DIE-8438240107SAO PAULO      25990000000000000018900005000         
IRR2199    154281DRH-0195240107SAO PAULO      25990000000000000009850005000         
IRR2199    154283DRH-0195240107SAO PAULO      25990000000000000010796005000         
IRR2199    154284CVT-7611240107SAO PAULO      25990000000000000012160005000         
IRR2199    154285DCH-3289240107SAO PAULO      25990000000000000010300005000         
IRR2199    154286CSN-3532240107SAO PAULO      25990000000000000009000005000         
IRR2199    154287CSN-3532240107SAO PAULO      25990000000000000005000005000         
IRR2199    154288CSN-3532240107SAO PAULO      25990000000000000005000005000         
IRR2199    154289CSN-3532240107SAO PAULO      25990000000000000003000005000         
IRR2199    154290CSN-3532240107SAO PAULO      25990000000000000007000005000         
IRR2199    154291DCH-3289240107SAO PAULO      25990000000000000010000005000         
IRR2199    154293DED-5674240107SAO PAULO      25990000000000000010732005000         
IRR2199    154301DED-5674240107SAO PAULO      25990000000000000015500005000         
IRR2199    154302DCH-3289240107SAO PAULO      25990000000000000006017005000         
IRR2199    154302CSN-3532240107SAO PAULO      25990000000000000006017005000         
IRR2199    154304DCH-3289240107SAO PAULO      25990000000000000016700005000         
IRR2199    154309DRH-0195240107SAO PAULO      25990000000000000032530005000         
IRR2199    154319DED-5674240107SAO PAULO      25990000000000000001380005000         
IRR2199    154320DCH-3289240107SAO PAULO      25990000000000000001380005000         
IRR2199    154339DIZ-3437240107SAO PAULO      25990000000000000028750005000         
IRR2199    154356DED-2326240107SAO PAULO      25990000000000000664000005000         
IRR2199    154443EML-0011240107SAO PAULO      25990000000000000116416005000         
IRR2199    154518DIE-8438240107SAO PAULO      25990000000000000005621005000         
IRR2199    154563DRH-0195240107SAO PAULO      25990000000000000001380005000         
IRR2199    826444CMR-4489240107SAO PAULO      25990000000000000159844005000         
IRR2199    827100CSN-3532240107SAO PAULO      25990000000000000076755005000         
IRR2199    827241CVT-7611240107SAO PAULO      25990000000000000199625005000         
IRR2199    827368DRH-0195240107SAO PAULO      25990000000000000148788005000         
IRR2199    827369DRH-0195240107SAO PAULO      25990000000000000132125005000         
IRR2199    827370DRH-0195240107SAO PAULO      25990000000000000052046005000         
IRR2199    827371DRH-0195240107SAO PAULO      25990000000000000151931005000         
IRR2199    827396DRH-0195240107SAO PAULO      25990000000000000169858005000         
IRR2199    827468DED-2326240107SAO PAULO      25990000000000000082143005000         
IRR2199    827469DIZ-3437240107SAO PAULO      25990000000000000083158005000         
IRR2199    827568EML-0011240107SAO PAULO      25990000000000000059903005000         
IRR2199    827650DRH-0195240107SAO PAULO      25990000000000000098246005000         
IRR2199    827711DRH-0195240107SAO PAULO      25990000000000000075072005000         
IRR2199    827782DIE-8438240107SAO PAULO      25990000000000000036954005000         
IRR2199    827784DED-5674240107SAO PAULO      25990000000000000143584005000         
IRR2199    827785DED-5674240107SAO PAULO      25990000000000000300296005000         
IRR2199    827787DRH-0195240107SAO PAULO      25990000000000000273461005000         
IRR2199    827788CSN-3532240107SAO PAULO      25990000000000000040964005000         
IRR2199    827789CMR-4489240107SAO PAULO      25990000000000000153515005000         
IRR2199    827790DRH-0195240107SAO PAULO      25990000000000000058833005000         
IRR2199    827791CSN-3532240107SAO PAULO      25990000000000000035242005000         
IRR2199    827791CKH-2088240107SAO PAULO      25990000000000000035242005000         
IRR2199    827795DRH-0195240107SAO PAULO      25990000000000000160350005000         
IRR2199    827796CSN-3532240107SAO PAULO      25990000000000000075665005000         
IRR2199    827798DCH-3289240107SAO PAULO      25990000000000000105504005000         
IRR2199    827801CSN-3532240107SAO PAULO      25990000000000000038389005000         
IRR2199    827802DRH-0195240107SAO PAULO      25990000000000000101484005000         
IRR2199    827804DCH-3289240107SAO PAULO      25990000000000000123313005000         
IRR2199    827807CSN-3532240107SAO PAULO      25990000000000000102258005000         
IRR2199    827808DCH-3289240107SAO PAULO      25990000000000000346738005000         
IRR2199    827811DCH-3289240107SAO PAULO      25990000000000000136778005000         
IRR2199    827813DCH-3289240107SAO PAULO      25990000000000000105645005000         
IRR2199    827814DRH-0195240107SAO PAULO      25990000000000000136991005000         
IRR2199    827815DRH-0195240107SAO PAULO      25990000000000000281801005000         
IRR2199    827817DCH-3289240107SAO PAULO      25990000000000000072694005000         
IRR2199    827817CSN-3532240107SAO PAULO      25990000000000000072694005000         
IRR2199    827818DED-5674240107SAO PAULO      25990000000000000145728005000         
IRR2199    827819DRH-0195240107SAO PAULO      25990000000000000198193005000         
IRR2199    827820DCH-3289240107SAO PAULO      25990000000000000069800005000         
IRR2199    827821DCH-3289240107SAO PAULO      25990000000000000082757005000         
IRR2199    827822DCH-3289240107SAO PAULO      25990000000000000070591005000         
IRR2199    827824DED-5674240107SAO PAULO      25990000000000000123736005000         
IRR2199    827825DRH-0195240107SAO PAULO      25990000000000000187828005000         
IRR2199    827828DED-5674240107SAO PAULO      25990000000000000039848005000         
IRR2199    827830CSN-3532240107SAO PAULO      25990000000000000043068005000         
IRR2199    827831CSN-3532240107SAO PAULO      25990000000000000077947005000         
IRR2199    827833DED-5674240107SAO PAULO      25990000000000000171920005000         
IRR2199    827834DCH-3289240107SAO PAULO      25990000000000000204139005000         
IRR2199    827835DRH-0195240107SAO PAULO      25990000000000000132514005000         
IRR2199    827836DCH-3289240107SAO PAULO      25990000000000000109918005000         
IRR2199    827838DRH-0195240107SAO PAULO      25990000000000000043206005000         
IRR2199    827840DCH-3289240107SAO PAULO      25990000000000000035382005000         
IRR2199    827840CSN-3532240107SAO PAULO      25990000000000000035382005000         
IRR2199    827841CSN-3532240107SAO PAULO      25990000000000000047212005000         
IRR2199    827842DRH-0195240107SAO PAULO      25990000000000000077952005000         
IRR2199    827843CSN-3532240107SAO PAULO      25990000000000000071264005000         
IRR2199    827844DED-5674240107SAO PAULO      25990000000000000046825005000         
IRR2199    827850DED-5674240107SAO PAULO      25990000000000000058842005000         
IRR2199    827853DED-5674240107SAO PAULO      25990000000000000106678005000         
IRR2199    827855DRH-0195240107SAO PAULO      25990000000000000046065005000         
IRR2199    827856DRH-0195240107SAO PAULO      25990000000000000036300005000         
IRR2199    827857DED-5674240107SAO PAULO      25990000000000000044459005000         
IRR2199    827859DED-5674240107SAO PAULO      25990000000000000164234005000         
IRR2199    827862DCH-3289240107SAO PAULO      25990000000000000129689005000         
IRR2199    827862CSN-3532240107SAO PAULO      25990000000000000129689005000         
IRR2199    827865DCH-3289240107SAO PAULO      25990000000000000097732005000         
IRR2199    827866DRH-0195240107SAO PAULO      25990000000000000092270005000         
IRR2199    827867DCH-3289240107SAO PAULO      25990000000000000050489005000         
IRR2199    827868DRH-0195240107SAO PAULO      25990000000000000055839005000         
IRR2199    827869DRH-0195240107SAO PAULO      25990000000000000214540005000         
IRR2199    827870DED-5674240107SAO PAULO      25990000000000000105504005000         
IRR2199    827871DRH-0195240107SAO PAULO      25990000000000000058833005000         
IRR2199    827872DRH-0195240107SAO PAULO      25990000000000000107706005000         
IRR2199    827873DCH-3289240107SAO PAULO      25990000000000000044655005000         
IRR2199    827873CSN-3532240107SAO PAULO      25990000000000000044655005000         
IRR2199    827874DCH-3289240107SAO PAULO      25990000000000000034794005000         
IRR2199    827874CSN-3532240107SAO PAULO      25990000000000000034794005000         
IRR2199    827875DRH-0195240107SAO PAULO      25990000000000000035075005000         
IRR2199    827934DRH-0195240107SAO PAULO      25990000000000000062361005000         
IRR2199    827935CIV-0443240107SAO PAULO      25990000000000000694641005000         
IRR2199    827938DIZ-3437240107SAO PAULO      25990000000000001596394005000         
IRR2199    827940DED-2326240107SAO PAULO      25990000000000000254029005000         
IRR2199    827946DIZ-3437240107SAO PAULO      25990000000000000339823005000         
IRR2199    827952DED-2326240107SAO PAULO      25990000000000000977219005000         
IRR2199    827953DIZ-3437240107SAO PAULO      25990000000000000322039005000         
IRR2199    827954CMR-4489240107SAO PAULO      25990000000000000368742005000         
IRR2199    827957DED-5674240107SAO PAULO      25990000000000000288493005000         
IRR2199    827962DED-2326240107SAO PAULO      25990000000000000308104005000         
IRR2199    827964DIZ-3437240107SAO PAULO      25990000000000000240963005000         
IRR2199    827967CST-1995240107SAO PAULO      25990000000000000032682005000         
IRR2199    827968CST-1995240107SAO PAULO      25990000000000000437409005000         
IRR2199    827971DIZ-3437240107SAO PAULO      25990000000000000647595005000         
IRR2199    827972DIZ-3437240107SAO PAULO      25990000000000000631315005000         
IRR2199    827975DIZ-3437240107SAO PAULO      25990000000000000255228005000         
IRR2199    827976CMR-4489240107SAO PAULO      25990000000000000237358005000         
IRR2199    827980DED-2326240107SAO PAULO      25990000000000000314058005000         
IRR2199    827981CVT-7611240107SAO PAULO      25990000000000000603079005000         
IRR2199    827984DED-2326240107SAO PAULO      25990000000000000226439005000         
IRR2199    827985DIZ-3437240107SAO PAULO      25990000000000000280040005000         
IRR2199    827990DIZ-3437240107SAO PAULO      25990000000000000242726005000         
IRR2199    827994DED-2326240107SAO PAULO      25990000000000000288733005000         
IRR2199    827998DED-2326240107SAO PAULO      25990000000000000147904005000         
IRR2199    828003DED-2326240107SAO PAULO      25990000000000000222721005000         
IRR2199    828004CMR-4489240107SAO PAULO      25990000000000000488702005000         
IRR2199    828006DED-2326240107SAO PAULO      25990000000000000105513005000         
IRR2199    828016DIZ-3437240107SAO PAULO      25990000000000000107360005000         
IRR2199    828028DIZ-3437240107SAO PAULO      25990000000000000152078005000         
IRR2199    828029DIZ-3437240107SAO PAULO      25990000000000000220144005000         
IRR2199    828034DRH-0195240107SAO PAULO      25990000000000000123956005000         
IRR2199    828036CMR-4489240107SAO PAULO      25990000000000000072267005000         
IRR2199    828037DIZ-3437240107SAO PAULO      25990000000000000201242005000         
IRR2199    828038DIZ-3437240107SAO PAULO      25990000000000000080930005000         
IRR2199    828039CMR-4489240107SAO PAULO      25990000000000000086176005000         
IRR2199    828041DED-2326240107SAO PAULO      25990000000000000165392005000         
IRR2199    828043DIZ-3437240107SAO PAULO      25990000000000000203913005000         
IRR2199    828044DIZ-3437240107SAO PAULO      25990000000000000144552005000         
IRR2199    828046CMR-4489240107SAO PAULO      25990000000000000153932005000         
IRR2199    828049DED-2326240107SAO PAULO      25990000000000000155094005000         
IRR2199    828050DIZ-3437240107SAO PAULO      25990000000000000054950005000         
IRR2199    828061CMR-4489240107SAO PAULO      25990000000000000063018005000         
IRR2199    828063DIZ-3437240107SAO PAULO      25990000000000000053993005000         
IRR2199    828066DIZ-3437240107SAO PAULO      25990000000000000057886005000         
IRR2199    828075CMR-4489240107SAO PAULO      25990000000000000061124005000         
IRR2199    828086DIZ-3437240107SAO PAULO      25990000000000000042383005000         
IRR2199    828091CMR-4489240107SAO PAULO      25990000000000000078158005000         
IRR2199    828105CMR-4489240107SAO PAULO      25990000000000000083090005000         
IRR2199    828106DIZ-3437240107SAO PAULO      25990000000000000099572005000         
IRR2199    828107DIZ-3437240107SAO PAULO      25990000000000000122540005000         
IRR2199    828123DED-2326240107SAO PAULO      25990000000000000116172005000         
IRR2199    828125DIZ-3437240107SAO PAULO      25990000000000000242011005000         
IRR2199    828131DIZ-3437240107SAO PAULO      25990000000000000096453005000         
IRR2199    828135CMR-4489240107SAO PAULO      25990000000000000092858005000         
IRR2199    828140DIZ-3437240107SAO PAULO      25990000000000000038895005000         
IRR2199    828141DIZ-3437240107SAO PAULO      25990000000000000077919005000         
IRR2199    828147CMR-4489240107SAO PAULO      25990000000000000075009005000         
IRR2199    828149CMR-4489240107SAO PAULO      25990000000000000040144005000         
IRR2199    828150DED-2326240107SAO PAULO      25990000000000000096299005000         
IRR2199    828153DIZ-3437240107SAO PAULO      25990000000000000092856005000         
IRR2199    828157DED-2326240107SAO PAULO      25990000000000000096260005000         
IRR2199    828162DRH-0195240107SAO PAULO      25990000000000000106377005000         
IRR2199    828167CMR-4489240107SAO PAULO      25990000000000000239742005000         
IRR2199    828187DIZ-3437240107SAO PAULO      25990000000000000176465005000         
IRR2199    828189DIZ-3437240107SAO PAULO      25990000000000000119959005000         
IRR2199    828190CMR-4489240107SAO PAULO      25990000000000000189791005000         
IRR2199    828193DIZ-3437240107SAO PAULO      25990000000000000167330005000         
IRR2199    828195DED-2326240107SAO PAULO      25990000000000000206025005000         
IRR2199    828200DED-2326240107SAO PAULO      25990000000000000211402005000         
IRR2199    828205DIZ-3437240107SAO PAULO      25990000000000000162661005000         
IRR2199    828206CMR-4489240107SAO PAULO      25990000000000000206096005000         
IRR2199    828207DIZ-3437240107SAO PAULO      25990000000000000181382005000         
IRR2199    828208DED-2326240107SAO PAULO      25990000000000000212655005000         
IRR2199    828209DIZ-3437240107SAO PAULO      25990000000000000104166005000         
IRR2199    828210DIZ-3437240107SAO PAULO      25990000000000000095778005000         
IRR2199    828214DED-2326240107SAO PAULO      25990000000000000163006005000         
IRR2199    828215DIZ-3437240107SAO PAULO      25990000000000000148765005000         
IRR2199    828216DIZ-3437240107SAO PAULO      25990000000000000128387005000         
IRR2199    828219DIZ-3437240107SAO PAULO      25990000000000000154170005000         
IRR2199    828220DIZ-3437240107SAO PAULO      25990000000000000041065005000         
IRR2199    828221DIZ-3437240107SAO PAULO      25990000000000000144320005000         
IRR2199    828223DIZ-3437240107SAO PAULO      25990000000000000181522005000         
IRR2199    828224DED-2326240107SAO PAULO      25990000000000000195072005000         
IRR2199    828233CMR-4489240107SAO PAULO      25990000000000000046380005000         
IRR2199    828234CMR-4489240107SAO PAULO      25990000000000000215841005000         
IRR2199    828239DRH-0195240107SAO PAULO      25990000000000000138044005000         
IRR2199    828241DED-5674240107SAO PAULO      25990000000000000170436005000         
IRR2199    828242DED-5674240107SAO PAULO      25990000000000000109147005000         
IRR2199    828243DED-5674240107SAO PAULO      25990000000000000032166005000         
IRR2199    828244DED-5674240107SAO PAULO      25990000000000000262821005000         
IRR2199    828245DRH-0195240107SAO PAULO      25990000000000000058832005000         
IRR2199    828246DRH-0195240107SAO PAULO      25990000000000000058833005000         
IRR2199    828247DED-5674240107SAO PAULO      25990000000000000036335005000         
IRR2199    828248DED-5674240107SAO PAULO      25990000000000000158256005000         
IRR2199    828249DED-5674240107SAO PAULO      25990000000000000043096005000         
IRR2199    828250DED-5674240107SAO PAULO      25990000000000000077001005000         
IRR2199    828251DED-5674240107SAO PAULO      25990000000000000034247005000         
IRR2199    828252DED-5674240107SAO PAULO      25990000000000000106542005000         
IRR2199    828253DRH-0195240107SAO PAULO      25990000000000000080569005000         
IRR2199    828254DRH-0195240107SAO PAULO      25990000000000000147936005000         
IRR2199    828255DED-5674240107SAO PAULO      25990000000000000068661005000         
IRR2199    828256DED-5674240107SAO PAULO      25990000000000000109506005000         
IRR2199    828257DED-5674240107SAO PAULO      25990000000000000083815005000         
IRR2199    828258DRH-0195240107SAO PAULO      25990000000000000198602005000         
IRR2199    828259DRH-0195240107SAO PAULO      25990000000000000165899005000         
IRR2199    828261DRH-0195240107SAO PAULO      25990000000000000108093005000         
IRR2199    828263DRH-0195240107SAO PAULO      25990000000000000126426005000         
IRR2199    828264DIE-8438240107SAO PAULO      25990000000000000061496005000         
IRR2199    828265DIE-8438240107SAO PAULO      25990000000000000213279005000         
IRR2199    828266CVT-7611240107SAO PAULO      25990000000000000201890005000         
IRR2199    828267CSN-3532240107SAO PAULO      25990000000000000202631005000         
IRR2199    828268DIE-8438240107SAO PAULO      25990000000000000077219005000         
IRR2199    828269CST-1995240107SAO PAULO      25990000000000000072697005000         
IRR2199    828270CSN-3532240107SAO PAULO      25990000000000000035449005000         
IRR2199    828271DIE-8438240107SAO PAULO      25990000000000000106245005000         
IRR2199    828272CST-1995240107SAO PAULO      25990000000000000193244005000         
IRR2199    828273CMR-4489240107SAO PAULO      25990000000000000083201005000         
IRR2199    828274CVT-7611240107SAO PAULO      25990000000000000065649005000         
IRR2199    828275DED-5674240107SAO PAULO      25990000000000000078186005000         
IRR2199    828276CST-1995240107SAO PAULO      25990000000000000139324005000         
IRR2199    828277DIE-8438240107SAO PAULO      25990000000000000107158005000         
IRR2199    828278DCH-3289240107SAO PAULO      25990000000000000119395005000         
IRR2199    828279DRH-0195240107SAO PAULO      25990000000000000110423005000         
IRR2199    828280DED-5674240107SAO PAULO      25990000000000000066897005000         
IRR2199    828281DRH-0195240107SAO PAULO      25990000000000000088748005000         
IRR2199    828282CSN-3532240107SAO PAULO      25990000000000000200359005000         
IRR2199    828283DED-5674240107SAO PAULO      25990000000000000093828005000         
IRR2199    828284CMR-4489240107SAO PAULO      25990000000000000105504005000         
IRR2199    828285DED-5674240107SAO PAULO      25990000000000000110151005000         
IRR2199    828286DED-5674240107SAO PAULO      25990000000000000161559005000         
IRR2199    828287DIE-8438240107SAO PAULO      25990000000000000104529005000         
IRR2199    828287DRH-0195240107SAO PAULO      25990000000000000104529005000         
IRR2199    828288DCH-3289240107SAO PAULO      25990000000000000299425005000         
IRR2199    828290DIZ-3437240107SAO PAULO      25990000000000000053645005000         
IRR2199    828292CVT-7611240107SAO PAULO      25990000000000000105563005000         
IRR2199    828293CIV-0443240107SAO PAULO      25990000000000000478671005000         
IRR2199    828296DED-2326240107SAO PAULO      25990000000000000860881005000         
IRR2199    828296CSN-3532240107SAO PAULO      25990000000000000860881005000         
IRR2199    828298DCH-3289240107SAO PAULO      25990000000000000403350005000         
IRR2199    828298CSN-3532240107SAO PAULO      25990000000000000403350005000         
IRR2199    828301DIZ-3437240107SAO PAULO      25990000000000000166988005000         
IRR2199    828311DED-2326240107SAO PAULO      25990000000000000066543005000         
IRR2199    828312DED-2326240107SAO PAULO      25990000000000000044785005000         
IRR2199    828313DED-2326240107SAO PAULO      25990000000000000057463005000         
IRR2199    828317DED-2326240107SAO PAULO      25990000000000000113431005000         
IRR2199    828318DED-2326240107SAO PAULO      25990000000000000097976005000         
IRR2199    828320DED-2326240107SAO PAULO      25990000000000000111074005000         
IRR2199    828321DIE-8438240107SAO PAULO      25990000000000000107255005000         
IRR2199    828329CVT-7611240107SAO PAULO      25990000000000000245326005000         
IRR2199    828331DED-2326240107SAO PAULO      25990000000000000144452005000         
IRR2199    828346DED-2326240107SAO PAULO      25990000000000000142286005000         
IRR2199    828348CST-1995240107SAO PAULO      25990000000000000068555005000         
IRR2199    828359DED-2326240107SAO PAULO      25990000000000000099230005000         
IRR2199    828364DIE-8438240107SAO PAULO      25990000000000000132270005000         
IRR2199    828369DIZ-3437240107SAO PAULO      25990000000000000119659005000         
IRR2199    828378DED-2326240107SAO PAULO      25990000000000000202592005000         
IRR2199    828379CST-1995240107SAO PAULO      25990000000000000080056005000         
IRR2199    828381DED-2326240107SAO PAULO      25990000000000000188161005000         
IRR2199    828382DIZ-3437240107SAO PAULO      25990000000000000139799005000         
IRR2199    828384DIZ-3437240107SAO PAULO      25990000000000000051502005000         
IRR2199    828386DIE-8438240107SAO PAULO      25990000000000000369988005000         
IRR2199    828390CST-1995240107SAO PAULO      25990000000000000077499005000         
IRR2199    828401CVT-7611240107SAO PAULO      25990000000000000294699005000         
IRR2199    828410DIZ-3437240107SAO PAULO      25990000000000000196734005000         
IRR2199    828416DIZ-3437240107SAO PAULO      25990000000000000142987005000         
IRR2199    828419CST-1995240107SAO PAULO      25990000000000000123243005000         
IRR2199    828426CVT-7611240107SAO PAULO      25990000000000000043683005000         
IRR2199    828428DIZ-3437240107SAO PAULO      25990000000000000149620005000         
IRR2199    828429DRH-0195240107SAO PAULO      25990000000000001149023005000         
IRR2199    828436DIZ-3437240107SAO PAULO      25990000000000000129772005000         
IRR2199    828436DIZ-3437240107SAO PAULO      25990000000000000129772005000         
IRR2199    828437CST-1995240107SAO PAULO      25990000000000000082000005000         
IRR2199    828440CVT-7611240107SAO PAULO      25990000000000000127852005000         
IRR2199    828443DIZ-3437240107SAO PAULO      25990000000000000503362005000         
IRR2199    828446CST-1995240107SAO PAULO      25990000000000000059682005000         
IRR2199    828480DED-2326240107SAO PAULO      25990000000000000138669005000         
IRR2199    828486DIE-8438240107SAO PAULO      25990000000000000160270005000         
IRR2199    828490EML-0011240107SAO PAULO      25990000000000000086613005000         
IRR2199    828493CST-1995240107SAO PAULO      25990000000000000384738005000         
IRR2199    828498CST-1995240107SAO PAULO      25990000000000000039314005000         
IRR2199    828499CVT-7611240107SAO PAULO      25990000000000000141307005000         
IRR2199    828505DED-2326240107SAO PAULO      25990000000000000115526005000         
IRR2199    828506CVT-7611240107SAO PAULO      25990000000000000033010005000         
IRR2199    828511DED-2326240107SAO PAULO      25990000000000000114243005000         
IRR2199    828513DIE-8438240107SAO PAULO      25990000000000000093725005000         
IRR2199    828516CST-1995240107SAO PAULO      25990000000000000116821005000         
IRR2199    828519DIZ-3437240107SAO PAULO      25990000000000000186871005000         
IRR2199    828520DIZ-3437240107SAO PAULO      25990000000000000340037005000         
IRR2199    828521DED-2326240107SAO PAULO      25990000000000000365672005000         
IRR2199    828526DED-2326240107SAO PAULO      25990000000000000059682005000         
IRR2199    828530DIZ-3437240107SAO PAULO      25990000000000000075459005000         
IRR2199    828530CSN-3532240107SAO PAULO      25990000000000000075459005000         
IRR2199    828532DIZ-3437240107SAO PAULO      25990000000000000036375005000         
IRR2199    828537DED-2326240107SAO PAULO      25990000000000000112662005000         
IRR2199    828539DRH-0195240107SAO PAULO      25990000000000000230449005000         
IRR2199    828541DED-2326240107SAO PAULO      25990000000000000793312005000         
IRR2199    828551CST-1995240107SAO PAULO      25990000000000000111667005000         
IRR2199    828554DIZ-3437240107SAO PAULO      25990000000000000109886005000         
IRR2199    828555CVT-7611240107SAO PAULO      25990000000000000035200005000         
IRR2199    828557DRH-0195240107SAO PAULO      25990000000000001599072005000         
IRR2199    828558DED-2326240107SAO PAULO      25990000000000000507260005000         
IRR2199    828561CST-1995240107SAO PAULO      25990000000000001078507005000         
IRR2199    828567DRH-0195240107SAO PAULO      25990000000000000402723005000         
IRR2199    828568DRH-0195240107SAO PAULO      25990000000000000296762005000         
IRR2199    828569DRH-0195240107SAO PAULO      25990000000000000669274005000         
IRR2199    828570DIZ-3437240107SAO PAULO      25990000000000000123557005000         
IRR2199    828571CST-1995240107SAO PAULO      25990000000000000074669005000         
IRR2199    828572CKH-2088240107SAO PAULO      25990000000000000125231005000         
IRR2199    828573CTH-7414240107SAO PAULO      25990000000000000342360005000         
IRR2199    828574DIE-8438240107SAO PAULO      25990000000000000106427005000         
IRR2199    828575BRA-1580240107SAO PAULO      25990000000000000094500005000         
IRR2199    828576CKH-2088240107SAO PAULO      25990000000000000105582005000         
IRR2199    828577CST-1995240107SAO PAULO      25990000000000000050226005000         
IRR2199    828578CST-1995240107SAO PAULO      25990000000000000075291005000         
IRR2199    828579DIE-8438240107SAO PAULO      25990000000000000072032005000         
IRR2199    828580CKH-2088240107SAO PAULO      25990000000000000084713005000         
IRR2199    828581CST-1995240107SAO PAULO      25990000000000000040194005000         
IRR2199    828582CTH-7414240107SAO PAULO      25990000000000000037629005000         
IRR2199    828583DIE-8438240107SAO PAULO      25990000000000000038298005000         
IRR2199    828584DED-5674240107SAO PAULO      25990000000000000067600005000         
IRR2199    828585EML-0011240107SAO PAULO      25990000000000000054355005000         
IRR2199    828586CKH-2088240107SAO PAULO      25990000000000000134222005000         
IRR2199    828587CST-1995240107SAO PAULO      25990000000000000040676005000         
IRR2199    828588CKH-2088240107SAO PAULO      25990000000000000218894005000         
IRR2199    828589DIE-8438240107SAO PAULO      25990000000000000131880005000         
IRR2199    828590CST-1995240107SAO PAULO      25990000000000000048454005000         
IRR2199    828591DIE-8438240107SAO PAULO      25990000000000000046562005000         
IRR2199    828592DIE-8438240107SAO PAULO      25990000000000000067501005000         
IRR2199    828593DIE-8438240107SAO PAULO      25990000000000000211343005000         
IRR2199    828594DIE-8438240107SAO PAULO      25990000000000000054836005000         
IRR2199    828595DED-5674240107SAO PAULO      25990000000000000068933005000         
IRR2199    828596DIE-8438240107SAO PAULO      25990000000000000101063005000         
IRR2199    828597CST-1995240107SAO PAULO      25990000000000000035390005000         
IRR2199    828598DED-5674240107SAO PAULO      25990000000000000062849005000         
IRR2199    828599DIE-8438240107SAO PAULO      25990000000000000143796005000         
IRR2199    828600CKH-2088240107SAO PAULO      25990000000000000320196005000         
IRR2199    828601DED-5674240107SAO PAULO      25990000000000000159766005000         
IRR2199    828602CKH-2088240107SAO PAULO      25990000000000000200029005000         
IRR2199    828603DIZ-3437240107SAO PAULO      25990000000000000650926005000         
IRR2199    828604BRA-1580240107SAO PAULO      25990000000000001000229005000         
IRR2199    828613EML-0011240107SAO PAULO      25990000000000000384530005000         
IRR2199    828617BRA-1580240107SAO PAULO      25990000000000000897605005000         
IRR2199    828619DIZ-3437240107SAO PAULO      25990000000000001339374005000         
IRR2199    828620DED-2326240107SAO PAULO      25990000000000001524881005000         
IRR2199    828625CTH-7414240107SAO PAULO      25990000000000000540292005000         
IRR2199    828627BRA-1580240107SAO PAULO      25990000000000000402548005000         
IRR2199    828633BRA-1580240107SAO PAULO      25990000000000000466461005000         
IRR2199    828637DIZ-3437240107SAO PAULO      25990000000000000404448005000         
IRR2199    828644DED-2326240107SAO PAULO      25990000000000000371484005000         
IRR2199    828652EML-0011240107SAO PAULO      25990000000000000321156005000         
IRR2199    828656DED-5674240107SAO PAULO      25990000000000000243677005000         
IRR2199    828665DIZ-3437240107SAO PAULO      25990000000000000242072005000         
IRR2199    828670BRA-1580240107SAO PAULO      25990000000000000252986005000         
IRR2199    828676BRA-1580240107SAO PAULO      25990000000000000322400005000         
IRR2199    828677BRA-1580240107SAO PAULO      25990000000000000279620005000         
IRR2199    828679DED-5674240107SAO PAULO      25990000000000000373038005000         
IRR2199    828687DED-2326240107SAO PAULO      25990000000000000169024005000         
IRR2199    828690CTH-7414240107SAO PAULO      25990000000000000191654005000         
IRR2199    828697DIZ-3437240107SAO PAULO      25990000000000000131352005000         
IRR2199    828700CSN-3532240107SAO PAULO      25990000000000000134384005000         
IRR2199    828701DIZ-3437240107SAO PAULO      25990000000000000198901005000         
IRR2199    828703DED-2326240107SAO PAULO      25990000000000000175351005000         
IRR2199    828709DED-5674240107SAO PAULO      25990000000000000158029005000         
IRR2199    828712DIZ-3437240107SAO PAULO      25990000000000000118091005000         
IRR2199    828713DIZ-3437240107SAO PAULO      25990000000000000209399005000         
IRR2199    828718EML-0011240107SAO PAULO      25990000000000000206068005000         
IRR2199    828719DED-2326240107SAO PAULO      25990000000000000129739005000         
IRR2199    828722DED-2326240107SAO PAULO      25990000000000000156310005000         
IRR2199    828723DED-2326240107SAO PAULO      25990000000000000208219005000         
IRR2199    828724BRA-1580240107SAO PAULO      25990000000000000185771005000         
IRR2199    828728DED-2326240107SAO PAULO      25990000000000000176655005000         
IRR2199    828729CSN-3532240107SAO PAULO      25990000000000000180377005000         
IRR2199    828730EML-0011240107SAO PAULO      25990000000000000165308005000         
IRR2199    828732DIZ-3437240107SAO PAULO      25990000000000000192870005000         
IRR2199    828734CSN-3532240107SAO PAULO      25990000000000000138512005000         
IRR2199    828742DED-5674240107SAO PAULO      25990000000000000158077005000         
IRR2199    828743DED-2326240107SAO PAULO      25990000000000000168992005000         
IRR2199    828752DED-5674240107SAO PAULO      25990000000000000179344005000         
IRR2199    828753BRA-1580240107SAO PAULO      25990000000000000214149005000         
IRR2199    828757DED-5674240107SAO PAULO      25990000000000000196011005000         
IRR2199    828758EML-0011240107SAO PAULO      25990000000000000153303005000         
IRR2199    828765DED-2326240107SAO PAULO      25990000000000000075927005000         
IRR2199    828767DIZ-3437240107SAO PAULO      25990000000000000073198005000         
IRR2199    828773CSN-3532240107SAO PAULO      25990000000000000110255005000         
IRR2199    828775CSN-3532240107SAO PAULO      25990000000000000083214005000         
IRR2199    828785BRA-1580240107SAO PAULO      25990000000000000082840005000         
IRR2199    828787DED-2326240107SAO PAULO      25990000000000000048808005000         
IRR2199    828790DED-2326240107SAO PAULO      25990000000000000042465005000         
IRR2199    828793CTH-7414240107SAO PAULO      25990000000000000117670005000         
IRR2199    828799DED-2326240107SAO PAULO      25990000000000000121631005000         
IRR2199    828805BRA-1580240107SAO PAULO      25990000000000000059014005000         
IRR2199    828810CSN-3532240107SAO PAULO      25990000000000000123856005000         
IRR2199    828814DED-2326240107SAO PAULO      25990000000000000109767005000         
IRR2199    828815DIZ-3437240107SAO PAULO      25990000000000000093547005000         
IRR2199    828818DED-2326240107SAO PAULO      25990000000000000059951005000         
IRR2199    828819DED-2326240107SAO PAULO      25990000000000000128350005000         
IRR2199    828821EML-0011240107SAO PAULO      25990000000000000103573005000         
IRR2199    828827DED-2326240107SAO PAULO      25990000000000000106992005000         
IRR2199    828829DED-2326240107SAO PAULO      25990000000000000118748005000         
IRR2199    828830DIZ-3437240107SAO PAULO      25990000000000000118748005000         
IRR2199    828836CSN-3532240107SAO PAULO      25990000000000000059682005000         
IRR2199    828838DIZ-3437240107SAO PAULO      25990000000000000049258005000         
IRR2199    828841DED-2326240107SAO PAULO      25990000000000000059682005000         
IRR2199    828842CSN-3532240107SAO PAULO      25990000000000000043632005000         
IRR2199    828843DIZ-3437240107SAO PAULO      25990000000000000050628005000         
IRR2199    828845DIZ-3437240107SAO PAULO      25990000000000000034682005000         
IRR2199    828856BRA-1580240107SAO PAULO      25990000000000000083408005000         
IRR2199    828858DIZ-3437240107SAO PAULO      25990000000000000074201005000         
IRR2199    828862DIZ-3437240107SAO PAULO      25990000000000000081065005000         
IRR2199    828865BRA-1580240107SAO PAULO      25990000000000000040006005000         
IRR2199    828869CKH-2088240107SAO PAULO      25990000000000000192321005000         
IRR2199    828870CKH-2088240107SAO PAULO      25990000000000000451112005000         
IRR2199    828871DIE-8438240107SAO PAULO      25990000000000000040857005000         
IRR2199    828872BRA-1580240107SAO PAULO      25990000000000000104164005000         
IRR2199    828873CTH-7414240107SAO PAULO      25990000000000000067676005000         
IRR2199    828874CST-1995240107SAO PAULO      25990000000000000102228005000         
IRR2199    828875DIE-8438240107SAO PAULO      25990000000000000042748005000         
IRR2199    828876CTH-7414240107SAO PAULO      25990000000000000136037005000         
IRR2199    828877CST-1995240107SAO PAULO      25990000000000000101328005000         
IRR2199    828878DIE-8438240107SAO PAULO      25990000000000000121992005000         
IRR2199    828879DIE-8438240107SAO PAULO      25990000000000000070591005000         
IRR2199    828880CST-1995240107SAO PAULO      25990000000000000066376005000         
IRR2199    828881DIE-8438240107SAO PAULO      25990000000000000076099005000         
IRR2199    828882DIZ-3437240107SAO PAULO      25990000000000000035457005000         
IRR2199    828883CST-1995240107SAO PAULO      25990000000000000052974005000         
IRR2199    828884CKH-2088240107SAO PAULO      25990000000000000037589005000         
IRR2199    828885DIE-8438240107SAO PAULO      25990000000000000071376005000         
IRR2199    828886CTH-7414240107SAO PAULO      25990000000000000035530005000         
IRR2199    828887CTH-7414240107SAO PAULO      25990000000000000051615005000         
IRR2199    828888BRA-1580240107SAO PAULO      25990000000000000044050005000         
IRR2199    828889CST-1995240107SAO PAULO      25990000000000000053412005000         
IRR2199    828890CKH-2088240107SAO PAULO      25990000000000000295130005000         
IRR2199    828891CKH-2088240107SAO PAULO      25990000000000000264257005000         
IRR2199    828892DED-5674240107SAO PAULO      25990000000000000051694005000         
IRR2199    828893CKH-2088240107SAO PAULO      25990000000000000157383005000         
IRR2199    828894DIE-8438240107SAO PAULO      25990000000000000047490005000         
IRR2199    828895DIE-8438240107SAO PAULO      25990000000000000136135005000         
IRR2199    828896CKH-2088240107SAO PAULO      25990000000000000138228005000         
IRR2199    828897CKH-2088240107SAO PAULO      25990000000000000120702005000         
IRR2199    828898DRH-0195240107SAO PAULO      25990000000000000127868005000         
IRR2199    828899DIZ-3437240107SAO PAULO      25990000000000000042032005000         
IRR2199    828900CST-1995240107SAO PAULO      25990000000000000065073005000         
IRR2199    828901CTH-7414240107SAO PAULO      25990000000000000057354005000         
IRR2199    828902CTH-7414240107SAO PAULO      25990000000000000105504005000         
IRR2199    828903DIE-8438240107SAO PAULO      25990000000000000105504005000         
IRR2199    828904CTH-7414240107SAO PAULO      25990000000000000039882005000         
IRR2199    828905DIE-8438240107SAO PAULO      25990000000000000070012005000         
IRR2199    828906DIZ-3437240107SAO PAULO      25990000000000000034244005000         
IRR2199    828907BRA-1580240107SAO PAULO      25990000000000000046970005000         
IRR2199    828908DIE-8438240107SAO PAULO      25990000000000000039698005000         
IRR2199    828909CST-1995240107SAO PAULO      25990000000000000042685005000         
IRR2199    828910DIZ-3437240107SAO PAULO      25990000000000000045867005000         
IRR2199    828911DIZ-3437240107SAO PAULO      25990000000000000053705005000         
IRR2199    828913CTH-7414240107SAO PAULO      25990000000000000131173005000         
IRR2199    828914DED-5674240107SAO PAULO      25990000000000000131708005000         
IRR2199    828915DED-5674240107SAO PAULO      25990000000000000131708005000         
IRR2199    828916CKH-2088240107SAO PAULO      25990000000000000115297005000         
IRR2199    828917DED-5674240107SAO PAULO      25990000000000000119639005000         
IRR2199    828918DIE-8438240107SAO PAULO      25990000000000000069815005000         
IRR2199    828919DRH-0195240107SAO PAULO      25990000000000000040401005000         
IRR2199    828920CTH-7414240107SAO PAULO      25990000000000000037356005000         
IRR2199    828921CTH-7414240107SAO PAULO      25990000000000000035445005000         
IRR2199    828922CKH-2088240107SAO PAULO      25990000000000000142445005000         
IRR2199    828923DIE-8438240107SAO PAULO      25990000000000000035124005000         
IRR2199    828924DED-5674240107SAO PAULO      25990000000000000046883005000         
IRR2199    828925DIE-8438240107SAO PAULO      25990000000000000043259005000         
IRR2199    828926CTH-7414240107SAO PAULO      25990000000000000129795005000         
IRR2199    828927CKH-2088240107SAO PAULO      25990000000000000119477005000         
IRR2199    828928CST-1995240107SAO PAULO      25990000000000000178600005000         
IRR2199    828929DRH-0195240107SAO PAULO      25990000000000000082441005000         
IRR2199    828930CKH-2088240107SAO PAULO      25990000000000000157164005000         
IRR2199    828931CST-1995240107SAO PAULO      25990000000000000132421005000         
IRR2199    828932CST-1995240107SAO PAULO      25990000000000000214669005000         
IRR2199    828933CST-1995240107SAO PAULO      25990000000000000084751005000         
IRR2199    828934CST-1995240107SAO PAULO      25990000000000000069650005000         
IRR2199    828935CTH-7414240107SAO PAULO      25990000000000000156940005000         
IRR2199    828936CTH-7414240107SAO PAULO      25990000000000000076443005000         
IRR2199    828937CST-1995240107SAO PAULO      25990000000000000230730005000         
IRR2199    828938CST-1995240107SAO PAULO      25990000000000000114811005000         
IRR2199    828939CST-1995240107SAO PAULO      25990000000000000102070005000         
IRR2199    828940DIE-8438240107SAO PAULO      25990000000000000064391005000         
IRR2199    828941CST-1995240107SAO PAULO      25990000000000000073529005000         
IRR2199    828942CKH-2088240107SAO PAULO      25990000000000000057354005000         
IRR2199    828943CKH-2088240107SAO PAULO      25990000000000000049052005000         
IRR2199    828944CKH-2088240107SAO PAULO      25990000000000000214126005000         
IRR2199    828945DIE-8438240107SAO PAULO      25990000000000000246592005000         
IRR2199    828946DED-5674240107SAO PAULO      25990000000000000197216005000         
IRR2199    828947CTH-7414240107SAO PAULO      25990000000000000103060005000         
IRR2199    828948DIE-8438240107SAO PAULO      25990000000000000133464005000         
IRR2199    828958CVT-7611240107SAO PAULO      25990000000000000160608005000         
IRR2199    828960DED-2326240107SAO PAULO      25990000000000000334730005000         
IRR2199    828961DRH-0195240107SAO PAULO      25990000000000000034083005000         
IRR2199    828962DRH-0195240107SAO PAULO      25990000000000000085234005000         
IRR2199    828963DRH-0195240107SAO PAULO      25990000000000000167676005000         
IRR2199    828964DRH-0195240107SAO PAULO      25990000000000000065090005000         
IRR2199    828965DRH-0195240107SAO PAULO      25990000000000000041690005000         
IRR2199    828966DRH-0195240107SAO PAULO      25990000000000000034881005000         
IRR2199    828967DRH-0195240107SAO PAULO      25990000000000000070530005000         
IRR2199    828968DRH-0195240107SAO PAULO      25990000000000000195173005000         
IRR2199    828987CVT-7611240107SAO PAULO      25990000000000000046258005000         
IRR2199    828989CSN-3532240107SAO PAULO      25990000000000000147439005000         
IRR2199    828997CKH-2088240107SAO PAULO      25990000000000000435885005000         
IRR2199    828998DED-2326240107SAO PAULO      25990000000000000085455005000         
IRR2199    829003EML-0011240107SAO PAULO      25990000000000000263851005000         
IRR2199    829005EML-0011240107SAO PAULO      25990000000000000623765005000         
IRR2199    829006CSN-3532240107SAO PAULO      25990000000000000300688005000         
IRR2199    829014CSN-3532240107SAO PAULO      25990000000000000356762005000         
IRR2199    829015DED-2326240107SAO PAULO      25990000000000000457815005000         
IRR2199    829017CVT-7611240107SAO PAULO      25990000000000000286250005000         
IRR2199    829019CSN-3532240107SAO PAULO      25990000000000000357872005000         
IRR2199    829021CVT-7611240107SAO PAULO      25990000000000000263402005000         
IRR2199    829023DED-2326240107SAO PAULO      25990000000000000372376005000         
IRR2199    829024CSN-3532240107SAO PAULO      25990000000000000367322005000         
IRR2199    829029CVT-7611240107SAO PAULO      25990000000000000398287005000         
IRR2199    829037CSN-3532240107SAO PAULO      25990000000000000154632005000         
IRR2199    829060DED-2326240107SAO PAULO      25990000000000000119104005000         
IRR2199    829061DED-2326240107SAO PAULO      25990000000000000078040005000         
IRR2199    829062EML-0011240107SAO PAULO      25990000000000000095629005000         
IRR2199    829063DED-2326240107SAO PAULO      25990000000000000133786005000         
IRR2199    829064CSN-3532240107SAO PAULO      25990000000000000138915005000         
IRR2199    829084CSN-3532240107SAO PAULO      25990000000000000051091005000         
IRR2199    829086CKH-2088240107SAO PAULO      25990000000000000146711005000         
IRR2199    829091CSN-3532240107SAO PAULO      25990000000000000419983005000         
IRR2199    829091CVT-7611240107SAO PAULO      25990000000000000419983005000         
IRR2199    829092CSN-3532240107SAO PAULO      25990000000000000049639005000         
IRR2199    829092CVT-7611240107SAO PAULO      25990000000000000049639005000         
IRR2199    829098CVT-7611240107SAO PAULO      25990000000000000272566005000         
IRR2199    829100CVT-7611240107SAO PAULO      25990000000000000169525005000         
IRR2199    829102CSN-3532240107SAO PAULO      25990000000000000278003005000         
IRR2199    829116CVT-7611240107SAO PAULO      25990000000000000264788005000         
IRR2199    829120CSN-3532240107SAO PAULO      25990000000000000430412005000         
IRR2199    829124EML-0011240107SAO PAULO      25990000000000000362727005000         
IRR2199    829125CVT-7611240107SAO PAULO      25990000000000000663657005000         
IRR2199    829126DED-2326240107SAO PAULO      25990000000000003344586005000         
IRR2199    829133DED-2326240107SAO PAULO      25990000000000000052046005000         
IRR2199    829135EML-0011240107SAO PAULO      25990000000000000112662005000         
IRR2199    829141CSN-3532240107SAO PAULO      25990000000000000063182005000         
IRR2199    829149CSN-3532240107SAO PAULO      25990000000000000097471005000         
IRR2199    829154DED-2326240107SAO PAULO      25990000000000000122238005000         
IRR2199    829156DED-2326240107SAO PAULO      25990000000000000050485005000         
IRR2199    829162DIE-8438240107SAO PAULO      25990000000000000060595005000         
IRR2199    829168CSN-3532240107SAO PAULO      25990000000000000080126005000         
IRR2199    829170CVT-7611240107SAO PAULO      25990000000000000108644005000         
IRR2199    829174CVT-7611240107SAO PAULO      25990000000000000036306005000         
IRR2199    829177DED-2326240107SAO PAULO      25990000000000000105447005000         
IRR2199    829180EML-0011240107SAO PAULO      25990000000000000080267005000         
IRR2199    829189DED-2326240107SAO PAULO      25990000000000000043850005000         
IRR2199    829190CSN-3532240107SAO PAULO      25990000000000000087809005000         
IRR2199    829195EML-0011240107SAO PAULO      25990000000000000104678005000         
IRR2199    829198CKH-2088240107SAO PAULO      25990000000000000037688005000         
IRR2199    829200CSN-3532240107SAO PAULO      25990000000000000085287005000         
IRR2199    829203CKH-2088240107SAO PAULO      25990000000000000074813005000         
IRR2199    829207EML-0011240107SAO PAULO      25990000000000000084156005000         
IRR2199    829209DIE-8438240107SAO PAULO      25990000000000000046680005000         
IRR2199    829216CSN-3532240107SAO PAULO      25990000000000000120858005000         
IRR2199    829217DED-2326240107SAO PAULO      25990000000000000093021005000         
IRR2199    829218CKH-2088240107SAO PAULO      25990000000000000047898005000         
IRR2199    829219EML-0011240107SAO PAULO      25990000000000000045268005000         
IRR2199    829222EML-0011240107SAO PAULO      25990000000000000103909005000         
IRR2199    829230DIE-8438240107SAO PAULO      25990000000000000076314005000         
IRR2199    829233CKH-2088240107SAO PAULO      25990000000000000040562005000         
IRR2199    829240CSN-3532240107SAO PAULO      25990000000000000128259005000         
IRR2199    829245EML-0011240107SAO PAULO      25990000000000000120640005000         
IRR2199    829253EML-0011240107SAO PAULO      25990000000000000167696005000         
IRR2199    829255DED-2326240107SAO PAULO      25990000000000000146020005000         
IRR2199    829260CVT-7611240107SAO PAULO      25990000000000000175301005000         
IRR2199    829266CSN-3532240107SAO PAULO      25990000000000000164246005000         
IRR2199    829269CSN-3532240107SAO PAULO      25990000000000000122907005000         
IRR2199    829270CVT-7611240107SAO PAULO      25990000000000000121968005000         
IRR2199    829271EML-0011240107SAO PAULO      25990000000000000073887005000         
IRR2199    829272EML-0011240107SAO PAULO      25990000000000000168560005000         
IRR2199    829273CVT-7611240107SAO PAULO      25990000000000000103664005000         
IRR2199    829274CVT-7611240107SAO PAULO      25990000000000000108845005000         
IRR2199    829278CSN-3532240107SAO PAULO      25990000000000000204839005000         
IRR2199    829280EML-0011240107SAO PAULO      25990000000000000203199005000         
IRR2199    829285DED-2326240107SAO PAULO      25990000000000000125236005000         
IRR2199    829288CST-1995240107SAO PAULO      25990000000000000143753005000         
IRR2199    829291CSN-3532240107SAO PAULO      25990000000000000252393005000         
IRR2199    829292DIE-8438240107SAO PAULO      25990000000000000124162005000         
IRR2199    829304CKH-2088240107SAO PAULO      25990000000000000124778005000         
IRR2199    828260DCH-3289240107SAO PAULO      25990000000000000096336005000         
IRR2199    828559DIZ-3437240107SAO PAULO      25990000000000000044873005000         
IRR2199    828563CMR-4489240107SAO PAULO      25990000000000002974050005000         
IRR2199    828798BRA-1580240107SAO PAULO      25990000000000000460888005000         
IRR2199    828912CST-1995240107SAO PAULO      25990000000000000091231005000         
IRR2199    829127DIE-8438240107SAO PAULO      25990000000000000579965005000         
IRR2199    829221CKH-2088240107SAO PAULO      25990000000000000055754005000         
IRR2199    154405DIE-8438240107SAO PAULO      25990000000000000001000005000         
IRR2199    154457CST-1995240107SAO PAULO      25990000000000000001000005000         
IRR2199    827959DIZ-3437240107SAO PAULO      25990000000000000233351005000         
IRR2199    828868DRH-0195240107SAO PAULO      25990000000000000092701005000         
IRR2199    828969DRH-0195240107SAO PAULO      25990000000000000112746005000         
IRR2199    828999CST-1995240107SAO PAULO      25990000000000003900899005000         
IRR2199    829279DED-2326240107SAO PAULO      25990000000000000138885005000         
