00100000         229744778000197000139318           032212000000991255X2IGREJA UNIVERSAL DO REINO DE DBANCO DO BRASIL SA                      21001201300121600013008100000CDC241000000000
0010000111201101201300010000001229744778000197      000139318           032212000000991255X2IGREJA UNIVERSAL DO REINO DE D01
0010001300001H0ALUISIO ANDRADE DE AZEVEDO          3513466641535134666415 1 2 00000000000000000 22601201340400209200926012013000300000000304874000013920000013523744806312           01000000000000000000
0010001300002H0RICHARD MARQUES DE ARAUJO           0019980310200199803102 1 2 00000000000000000 22601201340480209200926092013000590000000599726000025152000194239744821329           01000000000000000000
0010001300003H0LUIS EDUARDO CARDOSO VILAR          3048165789430481657894 1 2 00000000000000000 22601201336362001201026012013000150000000152377000006915000006723751013411           01000000000000000000
0010001300004H0INACIO FERREIRA DO NASCIMENTO       3130736158731307361587 1 2 00000000000000000 22801201335360202201028022013000650000000660539000030553000058560751595049           01000000000000000000
0010001300005H0EDMILSON PEREIRA GONCALVES          2235926487722359264877 1 2 00000000000000000 22801201335360202201028022013000640000000650378000030083000057655751614448           01000000000000000000
0010001300006H0LUCIANA AUXILIADORA TEODORO         1520299788415202997884 1 2 00000000000000000 22801201335360402201028022013001000000001016179000046914000089881751697327           01000000000000000000
0010001300007H0FRANCISCO MOREIRA DA SILVA          5119649238751196492387 1 2 00000000000000000 22801201335362202201028022013000620000000629829000028583000054757752541753           01000000000000000000
0010001300008H0ADELMAR SANTOS NUNES                8160265034981602650349 1 2 00000000000000000 22801201334340303201028012013000420000000426760000020388000019806752981794           01000000000000000000
0010001300009H0LUCIANO ARRUDA SANTOS               1867840987818678409878 1 2 00000000000000000 22801201334361103201028032013000070000000071123000003262000009228753492594           01000000000000000000
0010001300010H0EDISON EVANGELISTA SILVA            0868999580308689995803 1 2 00000000000000000 22801201334361203201028032013001428553001447826000066334000187985753503222           01000000000000000000
0010001300011H0JOSE LUIZ NUNES MEDEIROS            0532877489205328774892 1 2 00000000000000000 22801201334361803201028032013002935657002972888000135430000383810753801378           01000000000000000000
0010001300012H0JOSE ALBERTO FIRMINO ALVES          4110019036841100190368 1 2 00000000000000000 22801201332363004201028052013000452130000458295000021239000097539755905613           01000000000000000000
0010001300013H0JORGE DOS SANTOS                    7199053452071990534520 1 2 00000000000000000 22801201332360305201028052013000300000000304806000014085000064710755991040           01000000000000000000
0010001300014H0ELAINE APARECIDA SILVA              2744747181027447471810 1 2 00000000000000000 22801201332361105201028052013000513826000520611000023875000109657756464828           01000000000000000000
00100015000000100001600518000000000466733000000000000000000000000000000000000000000000000000000000000000000000
00199999         000001000018000000
