23700000         229744778000197000139318           03396000000099152005IGREJA UNIVERSAL DO REINO DE DBANCO BRADESCO SA                       21001201100434800010308100000CDC241000000000
2370000111201101201100010000001229744778000197      000139318           03396000000099152005IGREJA UNIVERSAL DO REINO DE D01
2370001300001H0ABRAAO MOREIRA CARDOSO              8708014175387080141753 1 2 00000000000000000 22801201100000000000000000000000000000000000000000032454000000000096317688           01000000000000000000
2370001300002H0ADEMIR SOARES RIBEIRO               6778877758767788777587 1 2 00000000000000000 22801201100000000000000000000000000000000000000000018643000000000105653160           01000000000000000000
2370001300003H0ADIEL SANTOS DA COSTA               2509996533425099965334 1 2 00000000000000000 22801201100000000000000000000000000000000000000000005348000000000094668444           01000000000000000000
2370001300004H0ADRIANA GOMES SOARES RIBEIRO        0256089973602560899736 1 2 00000000000000000 22801201100000000000000000000000000000000000000000033531000000000109025774           01000000000000000000
2370001300005H0ADRIANO ANTONIO GOMES               4284992627242849926272 1 2 00000000000000000 22801201100000000000000000000000000000000000000000017950000000000098972115           01000000000000000000
2370001300006H0ADRIANO DA SILVA SANTOS             9270930300092709303000 1 2 00000000000000000 22801201100000000000000000000000000000000000000000017989000000000111404909           01000000000000000000
2370001300007H0ALAN WILSON MAGALHAES FONSECA       6287966920062879669200 1 2 00000000000000000 22801201100000000000000000000000000000000000000000031135000000000102510393           01000000000000000000
2370001300008H0ALCILENE ANTONIA DE OPINHEIRO       0109925777801099257778 1 2 00000000000000000 22801201100000000000000000000000000000000000000000008978000000000095853501           01000000000000000000
2370001300009H0ALCILENE ANTONIA DE OPINHEIRO       0109925777801099257778 1 2 00000000000000000 22801201100000000000000000000000000000000000000000003222000000000120120620           01000000000000000000
2370001300010H0ALEXANDRE TELES DA SILVA            0260500879702605008797 1 2 00000000000000000 22801201100000000000000000000000000000000000000000050877000000000101928093           01000000000000000000
2370001300011H0AMILTON ALVES DA ROCHA              3281750966832817509668 1 2 00000000000000000 22801201100000000000000000000000000000000000000000008919000000000090849671           01000000000000000000
2370001300012H0ANDERSON GONCALVES NOGUEIRA         0922820775209228207752 1 2 00000000000000000 22801201100000000000000000000000000000000000000000065651000000000091220090           01000000000000000000
2370001300013H0ANDRE LUIS SILVA DE JESUS           1022708872710227088727 1 2 00000000000000000 22801201100000000000000000000000000000000000000000014758000000000119748784           01000000000000000000
2370001300014H0ANDRE LUIZ DA SILVA                 0148086578801480865788 1 2 00000000000000000 22801201100000000000000000000000000000000000000000011403000000000107919179           01000000000000000000
2370001300015H0ANDREIA CRISTINA PANTOJA MATO       6531864125365318641253 1 2 00000000000000000 22801201100000000000000000000000000000000000000000040200000000000119022297           01000000000000000000
2370001300016H0ANTONIO BERNARDO DA SILVA           0376461853103764618531 1 2 00000000000000000 22801201100000000000000000000000000000000000000000011709000000000094157413           01000000000000000000
2370001300017H0ANTONIO CARLOS PEREIRA              6414001678764140016787 1 2 00000000000000000 22801201100000000000000000000000000000000000000000044877000000000089447554           01000000000000000000
2370001300018H0ANTONIO CARLOS SOUSA DOS REIS       8442264531584422645315 1 2 00000000000000000 22801201100000000000000000000000000000000000000000014380000000000121535642           01000000000000000000
2370001300019H0ANTONIO DA SILVA MATOS              0291892370202918923702 1 2 00000000000000000 22801201100000000000000000000000000000000000000000010287000000000115543881           01000000000000000000
2370001300020H0ANTONIO EDSON SOARES                6591384170065913841700 1 2 00000000000000000 22801201100000000000000000000000000000000000000000023963000000000112751371           01000000000000000000
2370001300021H0ANTONIO MARCOS N MOREIRA            0140912860101409128601 1 2 00000000000000000 22801201100000000000000000000000000000000000000000015969000000000090748342           01000000000000000000
2370001300022H0ANTONIO MARIA BARBOSA DOS SAN       3037286024930372860249 1 2 00000000000000000 22801201100000000000000000000000000000000000000000030837000000000091632206           01000000000000000000
2370001300023H0BENEDITO BENEVALDO DA SILVA M       6419615127264196151272 1 2 00000000000000000 22801201100000000000000000000000000000000000000000013400000000000119022735           01000000000000000000
2370001300024H0BRUNA CARLA NASCIMENTO DOS SA       7694536721576945367215 1 2 00000000000000000 22801201100000000000000000000000000000000000000000022043000000000089317249           01000000000000000000
2370001300025H0CARLOS ALBERTO DE OLIVEIRA          0340136472303401364723 1 2 00000000000000000 22801201100000000000000000000000000000000000000000017891000000000115547363           01000000000000000000
2370001300026H0CARLOS EDUARDO FERNANDES DA S       9107442874991074428749 1 2 00000000000000000 22801201100000000000000000000000000000000000000000017677000000000111996391           01000000000000000000
2370001300027H0CARLOS EDUARDO THEODORINO DE        0047820373000478203730 1 2 00000000000000000 22801201100000000000000000000000000000000000000000025027000000000115548151           01000000000000000000
2370001300028H0CARLOS HUMBERTO SILVA DA CONC       3639585429136395854291 1 2 00000000000000000 22801201100000000000000000000000000000000000000000012528000000000099371205           01000000000000000000
2370001300029H0CASSIO MURILO DONATO                8651748175386517481753 1 2 00000000000000000 22801201100000000000000000000000000000000000000000015533000000000106037969           01000000000000000000
2370001300030H0CIDIA GABRIELA SANTOS OLIVEIR       0732520665807325206658 1 2 00000000000000000 22801201100000000000000000000000000000000000000000017748000000000097120594           01000000000000000000
2370001300031H0CLAUDIA DE SOUZA FRANCA             0240819179302408191793 1 2 00000000000000000 22801201100000000000000000000000000000000000000000017867000000000119017764           01000000000000000000
2370001300032H0CLAUDIO LUIS FERREIRA               0744909171207449091712 1 2 00000000000000000 22801201100000000000000000000000000000000000000000007028000000000093354204           01000000000000000000
2370001300033H0CRISTIANO FERREIRA DOS SANTOS       7872358220078723582200 1 2 00000000000000000 22801201100000000000000000000000000000000000000000008978000000000095866557           01000000000000000000
2370001300034H0DENIS SOUZA DA SILVA                5897322228758973222287 1 2 00000000000000000 22801201100000000000000000000000000000000000000000017804000000000109021909           01000000000000000000
2370001300035H0EDILSON CORREA ARAUJO               6269783828762697838287 1 2 00000000000000000 22801201100000000000000000000000000000000000000000015567000000000102511920           01000000000000000000
2370001300036H0EDILSON PEREIRA MENDONCA            2787170323427871703234 1 2 00000000000000000 22801201100000000000000000000000000000000000000000011127000000000109022494           01000000000000000000
2370001300037H0EDSON FERREIRA DOS SANTOS           7263960150472639601504 1 2 00000000000000000 22801201100000000000000000000000000000000000000000013432000000000108412605           01000000000000000000
2370001300038H0EDVAL MENDES DOS SANTOS             0203568370002035683700 1 2 00000000000000000 22801201100000000000000000000000000000000000000000045082000000000097210886           01000000000000000000
2370001300039H0ELESSANDRO DA SILVA SOUSA           6864027724968640277249 1 2 00000000000000000 22801201100000000000000000000000000000000000000000017322000000000090754254           01000000000000000000
2370001300040H0EVERMON BRITO SANTOS                9218164350492181643504 1 2 00000000000000000 22801201100000000000000000000000000000000000000000040120000000000115765726           01000000000000000000
2370001300041H0EVERTON GONTIJO                     4185281862041852818620 1 2 00000000000000000 22801201100000000000000000000000000000000000000000013369000000000112484150           01000000000000000000
2370001300042H0EVERTON LUIS MACHADO DA SILVA       7518384604975183846049 1 2 00000000000000000 22801201100000000000000000000000000000000000000000020647000000000091859375           01000000000000000000
2370001300043H0FABIO ALEXANDRE DO NASCIMENTO       7922234023079222340230 1 2 00000000000000000 22801201100000000000000000000000000000000000000000015444000000000089553252           01000000000000000000
2370001300044H0FABIO RIBEIRO SOARES                0831538775808315387758 1 2 00000000000000000 22801201100000000000000000000000000000000000000000019664000000000115628683           01000000000000000000
2370001300045H0FLAVIA CRISTINA ALVES DOS SAN       0516381679905163816799 1 2 00000000000000000 22801201100000000000000000000000000000000000000000014061000000000098395957           01000000000000000000
2370001300046H0FRANCISCO LUCIANO ME SILVA          8653944273486539442734 1 2 00000000000000000 22801201100000000000000000000000000000000000000000017998000000000108841881           01000000000000000000
2370001300047H0FRANCISCO RONALDO GONCALVES D       4771848025947718480259 1 2 00000000000000000 22801201100000000000000000000000000000000000000000011148000000000102270717           01000000000000000000
2370001300048H0GABRIEL LIMA BAHIA                  1681027925316810279253 1 2 00000000000000000 22801201100000000000000000000000000000000000000000031251000000000105532673           01000000000000000000
2370001300049H0GERALDO DE SOUZA DA CUNHA           4155766256841557662568 1 2 00000000000000000 22801201100000000000000000000000000000000000000000012930000000000118156716           01000000000000000000
2370001300050H0GERALDO MANOEL DA CONCEICAO         3696768871536967688715 1 2 00000000000000000 22801201100000000000000000000000000000000000000000016970000000000099369249           01000000000000000000
2370001300051H0GILBERTO VIDAL MONTEIRO             3964589420439645894204 1 2 00000000000000000 22801201100000000000000000000000000000000000000000022228000000000093091878           01000000000000000000
2370001300052H0GUILHERME MARTINS DE MAGALHAE       0864570872808645708728 1 2 00000000000000000 22801201100000000000000000000000000000000000000000026916000000000095216570           01000000000000000000
2370001300053H0HERBERTH DE JESUS PAIXAO MELO       4898074928748980749287 1 2 00000000000000000 22801201100000000000000000000000000000000000000000026721000000000099488891           01000000000000000000
2370001300054H0HERMANN NAVARRO JACQUES             3092984951530929849515 1 2 00000000000000000 22801201100000000000000000000000000000000000000000028126000000000105533865           01000000000000000000
2370001300055H0IRAN SERGIO CORREA                  3513167539135131675391 1 2 00000000000000000 22801201100000000000000000000000000000000000000000025261000000000100121493           01000000000000000000
2370001300056H0IRLEIZ LIZ DE FARIA ARRUDA          0353648175203536481752 1 2 00000000000000000 22801201100000000000000000000000000000000000000000014403000000000092255820           01000000000000000000
2370001300057H0IVAN DOMINGOS DE SOUZA              0093011245800930112458 1 2 00000000000000000 22801201100000000000000000000000000000000000000000013411000000000118957011           01000000000000000000
2370001300058H0IVANILDO NASCIMENTO DE JESUS        4604987823446049878234 1 2 00000000000000000 22801201100000000000000000000000000000000000000000017629000000000091786735           01000000000000000000
2370001300059H0JANAINA APARECIDA MANGELLI          5449160666854491606668 1 2 00000000000000000 22801201100000000000000000000000000000000000000000026418000000000104091622           01000000000000000000
2370001300060H0JOAO FREIRE DE LIMA NETO            4772364528747723645287 1 2 00000000000000000 22801201100000000000000000000000000000000000000000017770000000000093357533           01000000000000000000
2370001300061H0JOAQUIM DE NAZARE DA CRUZ POM       1802202226818022022268 1 2 00000000000000000 22801201100000000000000000000000000000000000000000017965000000000098901385           01000000000000000000
2370001300062H0JOSE CARLOS PENELVA DA SILVA        5866939622058669396220 1 2 00000000000000000 22801201100000000000000000000000000000000000000000012363000000000089681466           01000000000000000000
2370001300063H0JOSE MARIA AMARO DE SOUZA           3064184520030641845200 1 2 00000000000000000 22801201100000000000000000000000000000000000000000026755000000000102269201           01000000000000000000
2370001300064H0JOSE NILDO PEREIRA DA SILVA         0893315583008933155830 1 2 00000000000000000 22801201100000000000000000000000000000000000000000019862000000000094382751           01000000000000000000
2370001300065H0JOSE PAULA DA SILVA                 4338064676843380646768 1 2 00000000000000000 22801201100000000000000000000000000000000000000000015015000000000103067382           01000000000000000000
2370001300066H0JOSE RIBAMAR DANTAS JUNIOR          4761461730447614617304 1 2 00000000000000000 22801201100000000000000000000000000000000000000000009649000000000107913919           01000000000000000000
2370001300067H0JUCINEIDE SOARES SANTOS BONFI       9085208750090852087500 1 2 00000000000000000 22801201100000000000000000000000000000000000000000013921000000000106407270           01000000000000000000
2370001300068H0LAERTE RAUL DE OLIVEIRA             5910422871559104228715 1 2 00000000000000000 22801201100000000000000000000000000000000000000000020216000000000098855446           01000000000000000000
2370001300069H0LEVY LIMA DOS SANTOS                8658742024986587420249 1 2 00000000000000000 22801201100000000000000000000000000000000000000000011152000000000105602807           01000000000000000000
2370001300070H0LUIS CARLOS ALVES                   4111082025941110820259 1 2 00000000000000000 22801201100000000000000000000000000000000000000000011049000000000106413319           01000000000000000000
2370001300071H0LUIS FERNANDO COSTA LISBOA          8701267736887012677368 1 2 00000000000000000 22801201100000000000000000000000000000000000000000019978000000000109318360           01000000000000000000
2370001300072H0LUIS ROMUALDO PENA CONTRERAS        5217477873452174778734 1 2 00000000000000000 22801201100000000000000000000000000000000000000000044650000000000095792852           01000000000000000000
2370001300073H0LUIZ GUILHERME BENTES DE SOUZ       1745651721517456517215 1 2 00000000000000000 22801201100000000000000000000000000000000000000000015738000000000095217070           01000000000000000000
2370001300074H0MANOEL MARIA SILVA ALBUQUERQU       6807133723468071337234 1 2 00000000000000000 22801201100000000000000000000000000000000000000000017873000000000105456448           01000000000000000000
2370001300075H0MARCELO ALVES DE SOUZA              6304681453463046814534 1 2 00000000000000000 22801201100000000000000000000000000000000000000000029291000000000095863772           01000000000000000000
2370001300076H0MARCELO ANTONIO DOS SANTOS          5432674556854326745568 1 2 00000000000000000 22801201100000000000000000000000000000000000000000016504000000000105601774           01000000000000000000
2370001300077H0MARCILIO FREIRE BENEDITO            0007067372100070673721 1 2 00000000000000000 22801201100000000000000000000000000000000000000000017786000000000115960733           01000000000000000000
2370001300078H0MARCIO HENRIQUE FERREIRA FRAN       7289508033072895080330 1 2 00000000000000000 22801201100000000000000000000000000000000000000000023145000000000119078847           01000000000000000000
2370001300079H0MARCOS GATTI                        0283437189002834371890 1 2 00000000000000000 22801201100000000000000000000000000000000000000000052468000000000115950650           01000000000000000000
2370001300080H0MARIA ANTONIA PUREZA PANTOJA        2969390027829693900278 1 2 00000000000000000 22801201100000000000000000000000000000000000000000019978000000000109320059           01000000000000000000
2370001300081H0MARIA DAS CANDEIAS SANTANA DE       1632543559116325435591 1 2 00000000000000000 22801201100000000000000000000000000000000000000000028737000000000102360651           01000000000000000000
2370001300082H0MARINALVA CONCEICAO DOS SANTO       7804486359178044863591 1 2 00000000000000000 22801201100000000000000000000000000000000000000000023539000000000093358294           01000000000000000000
2370001300083H0MAURO CESAR CRISPIM                 0546923771005469237710 1 2 00000000000000000 22801201100000000000000000000000000000000000000000017365000000000096430404           01000000000000000000
2370001300084H0MONICA VIEIRA GONCALVES             8777052072087770520720 1 2 00000000000000000 22801201100000000000000000000000000000000000000000036603000000000097699625           01000000000000000000
2370001300085H0NADILSON DOS SANTOS NERIS           3952121428739521214287 1 2 00000000000000000 22801201100000000000000000000000000000000000000000015698000000000095732275           01000000000000000000
2370001300086H0NELIS ASSUNCAO COSTA                1994453524919944535249 1 2 00000000000000000 22801201100000000000000000000000000000000000000000026476000000000094290345           01000000000000000000
2370001300087H0OSMAR ALVES DOS SANTOS              8901309378789013093787 1 2 00000000000000000 22801201100000000000000000000000000000000000000000033698000000000111498922           01000000000000000000
2370001300088H0OSMAR RIBEIRO DE QUEIROZ            3327829675333278296753 1 2 00000000000000000 22801201100000000000000000000000000000000000000000009727000000000098142347           01000000000000000000
2370001300089H0PAULO FERREIRA DA SILVA             4556454026345564540263 1 2 00000000000000000 22801201100000000000000000000000000000000000000000013439000000000099139486           01000000000000000000
2370001300090H0PAULO ROBERTO DA SILVA QUEIRO       0478729677904787296779 1 2 00000000000000000 22801201100000000000000000000000000000000000000000011173000000000115623431           01000000000000000000
2370001300091H0PRISCILA VIEIRA DA ROCHA            0122006860801220068608 1 2 00000000000000000 22801201100000000000000000000000000000000000000000013900000000000119177041           01000000000000000000
2370001300092H0RAIMUNDO JOAO SILVA SANTOS          7536021771575360217715 1 2 00000000000000000 22801201100000000000000000000000000000000000000000007011000000000093573388           01000000000000000000
2370001300093H0RAPHAEL ESPOSITO DE SOUZA           0107170574101071705741 1 2 00000000000000000 22801201100000000000000000000000000000000000000000014564000000000110613463           01000000000000000000
2370001300094H0REINALDO PANCEIRO DA SILVA          5938687870459386878704 1 2 00000000000000000 22801201100000000000000000000000000000000000000000028108000000000115760101           01000000000000000000
2370001300095H0RICARDO DA SILVA SOUZA              8586506028785865060287 1 2 00000000000000000 22801201100000000000000000000000000000000000000000015581000000000102420441           01000000000000000000
2370001300096H0RITA DE CASSIA ESPIRITO SANTO       5459795117254597951172 1 2 00000000000000000 22801201100000000000000000000000000000000000000000010014000000000091167554           01000000000000000000
2370001300097H0ROBERT BARBOSA LUCENA               0187530076701875300767 1 2 00000000000000000 22801201100000000000000000000000000000000000000000033222000000000104759402           01000000000000000000
2370001300098H0ROBERTO MERCEDES DO NASCIMENT       0070048673900700486739 1 2 00000000000000000 22801201100000000000000000000000000000000000000000008946000000000115540014           01000000000000000000
2370001300099H0ROGER DE SOUZA VENINO               0005987512700059875127 1 2 00000000000000000 22801201100000000000000000000000000000000000000000025605000000000098550211           01000000000000000000
2370001300100H0ROMARIO RODRIGUES DA CRUZ           6020253007860202530078 1 2 00000000000000000 22801201100000000000000000000000000000000000000000017664000000000100888378           01000000000000000000
2370001300101H0ROSANA DE OLIVEIRA CASSEMIRO        0359231578103592315781 1 2 00000000000000000 22801201100000000000000000000000000000000000000000008248000000000111405641           01000000000000000000
2370001300102H0ROSELI TEIXEIRA DOS SANTOS          0783964072907839640729 1 2 00000000000000000 22801201100000000000000000000000000000000000000000005823000000000111913347           01000000000000000000
2370001300103H0ROSINALDO DIAS                      1753221323417532213234 1 2 00000000000000000 22801201100000000000000000000000000000000000000000013409000000000108786589           01000000000000000000
2370001300104H0SANDRA MARIA SILVA DE JESUS         9077278478790772784787 1 2 00000000000000000 22801201100000000000000000000000000000000000000000047860000000000116429834           01000000000000000000
2370001300105H0SEBASTIAO DOS SANTOS BARROS         2831147727228311477272 1 2 00000000000000000 22801201100000000000000000000000000000000000000000016624000000000098910233           01000000000000000000
2370001300106H0SERGIO ROBERTO MOREIRA DE AND       5524041070455240410704 1 2 00000000000000000 22801201100000000000000000000000000000000000000000064002000000000098198388           01000000000000000000
2370001300107H0SILVINO PINHEIRO DE OLIVEIRA        6831376428768313764287 1 2 00000000000000000 22801201100000000000000000000000000000000000000000013372000000000093093867           01000000000000000000
2370001300108H0SILVINO PINHEIRO DE OLIVEIRA        1480403423414804034234 1 2 00000000000000000 22801201100000000000000000000000000000000000000000026342000000000094919120           01000000000000000000
2370001300109H0SILVIO ANDERSON BARCELLA            0023714409300237144093 1 2 00000000000000000 22801201100000000000000000000000000000000000000000008914000000000105655904           01000000000000000000
2370001300110H0SIMONE DA CONCEICAO BATISTA         0539378275605393782756 1 2 00000000000000000 22801201100000000000000000000000000000000000000000009792000000000111321693           01000000000000000000
2370001300111H0SOLANGINA SIMOES DA CUNHA           0428659578104286595781 1 2 00000000000000000 22801201100000000000000000000000000000000000000000061673000000000115629604           01000000000000000000
2370001300112H0TATIANA DO SOCORRO NASCIMENTO       6497197028264971970282 1 2 00000000000000000 22801201100000000000000000000000000000000000000000011594000000000119185139           01000000000000000000
2370001300113H0TELMA BARBOSA SOUZA                 8005687338780056873387 1 2 00000000000000000 22801201100000000000000000000000000000000000000000008863000000000089552907           01000000000000000000
2370001300114H0UBIRATAN SANTANA DE CARVALHO        0342335677403423356774 1 2 00000000000000000 22801201100000000000000000000000000000000000000000014832000000000095592605           01000000000000000000
2370001300115H0VALMIR VIEIRA CHAMBARELLI           6856063075968560630759 1 2 00000000000000000 22801201100000000000000000000000000000000000000000014732000000000096164450           01000000000000000000
2370001300116H0VERA LUCIA DA SILVA                 8189770772081897707720 1 2 00000000000000000 22801201100000000000000000000000000000000000000000015660000000000118655264           01000000000000000000
2370001300117H0VERA LUCIA MARQUES SOUZA            6632070477266320704772 1 2 00000000000000000 22801201100000000000000000000000000000000000000000009892000000000095793454           01000000000000000000
2370001300118H0WAGNER BONIFACIO DA SILVA           0058107770900581077709 1 2 00000000000000000 22801201100000000000000000000000000000000000000000035470000000000112934847           01000000000000000000
2370001300119H0WELLINGTON PINHEIRO BARBOSA         0989564070609895640706 1 2 00000000000000000 22801201100000000000000000000000000000000000000000030593000000000112928557           01000000000000000000
2370001300120H0WOLFGANG DOWICH JUNIOR              4595247729145952477291 1 2 00000000000000000 22801201100000000000000000000000000000000000000000030837000000000091626388           01000000000000000000
2370001300121H0ZILMA NUNES DA CONCEICAO            9197715050091977150500 1 2 00000000000000000 22801201100000000000000000000000000000000000000000022086000000000110058700           01000000000000000000
2370001500000010012304962000000002518665000000000000000000000000000000000000000000000000000000000000000000000
23799999         00000100125000000
